{
  "contracts/VirtualLootKingdom.sol": {
    "VirtualLootKingdom": {
      "abi": [
        {
          "inputs": [
            {
              "internalType": "address",
              "name": "_houseAddress",
              "type": "address"
            }
          ],
          "stateMutability": "nonpayable",
          "type": "constructor"
        },
        {
          "inputs": [],
          "name": "Forbidden",
          "type": "error"
        },
        {
          "inputs": [],
          "name": "NoWonItemFound",
          "type": "error"
        },
        {
          "inputs": [
            {
              "internalType": "address",
              "name": "owner",
              "type": "address"
            }
          ],
          "name": "OwnableInvalidOwner",
          "type": "error"
        },
        {
          "inputs": [
            {
              "internalType": "address",
              "name": "account",
              "type": "address"
            }
          ],
          "name": "OwnableUnauthorizedAccount",
          "type": "error"
        },
        {
          "anonymous": false,
          "inputs": [
            {
              "indexed": true,
              "internalType": "uint256",
              "name": "id",
              "type": "uint256"
            },
            {
              "components": [
                {
                  "internalType": "uint256",
                  "name": "userId",
                  "type": "uint256"
                },
                {
                  "internalType": "uint256",
                  "name": "packId",
                  "type": "uint256"
                },
                {
                  "internalType": "uint256",
                  "name": "randomness",
                  "type": "uint256"
                },
                {
                  "internalType": "uint256",
                  "name": "itemIdWon",
                  "type": "uint256"
                },
                {
                  "internalType": "uint256",
                  "name": "prize",
                  "type": "uint256"
                },
                {
                  "internalType": "string",
                  "name": "key",
                  "type": "string"
                },
                {
                  "internalType": "string",
                  "name": "hash",
                  "type": "string"
                },
                {
                  "internalType": "string",
                  "name": "purchaseReference",
                  "type": "string"
                },
                {
                  "internalType": "bytes8",
                  "name": "battlemode",
                  "type": "bytes8"
                }
              ],
              "indexed": false,
              "internalType": "struct VirtualLootKingdom.Opening",
              "name": "opening",
              "type": "tuple"
            }
          ],
          "name": "NewOpening",
          "type": "event"
        },
        {
          "anonymous": false,
          "inputs": [
            {
              "indexed": true,
              "internalType": "address",
              "name": "previousOwner",
              "type": "address"
            },
            {
              "indexed": true,
              "internalType": "address",
              "name": "newOwner",
              "type": "address"
            }
          ],
          "name": "OwnershipTransferred",
          "type": "event"
        },
        {
          "anonymous": false,
          "inputs": [
            {
              "indexed": true,
              "internalType": "uint256",
              "name": "userId",
              "type": "uint256"
            },
            {
              "indexed": false,
              "internalType": "string",
              "name": "updatedKey",
              "type": "string"
            }
          ],
          "name": "UserKeyUpdated",
          "type": "event"
        },
        {
          "inputs": [
            {
              "internalType": "uint256[]",
              "name": "userIds",
              "type": "uint256[]"
            },
            {
              "internalType": "uint256[]",
              "name": "packIds",
              "type": "uint256[]"
            },
            {
              "internalType": "string[]",
              "name": "blocksHash",
              "type": "string[]"
            },
            {
              "internalType": "string[]",
              "name": "purchaseReferences",
              "type": "string[]"
            },
            {
              "internalType": "bytes8[]",
              "name": "battlemodes",
              "type": "bytes8[]"
            }
          ],
          "name": "batchValidateBattleOpens",
          "outputs": [],
          "stateMutability": "nonpayable",
          "type": "function"
        },
        {
          "inputs": [
            {
              "internalType": "uint256[]",
              "name": "userIds",
              "type": "uint256[]"
            },
            {
              "internalType": "uint256[]",
              "name": "packIds",
              "type": "uint256[]"
            },
            {
              "internalType": "string[]",
              "name": "blocksHash",
              "type": "string[]"
            },
            {
              "internalType": "string[]",
              "name": "purchaseReferences",
              "type": "string[]"
            }
          ],
          "name": "batchValidateOpens",
          "outputs": [],
          "stateMutability": "nonpayable",
          "type": "function"
        },
        {
          "inputs": [
            {
              "components": [
                {
                  "internalType": "string",
                  "name": "name",
                  "type": "string"
                },
                {
                  "internalType": "uint256[]",
                  "name": "ids",
                  "type": "uint256[]"
                },
                {
                  "internalType": "uint256[]",
                  "name": "chances",
                  "type": "uint256[]"
                },
                {
                  "internalType": "uint256[]",
                  "name": "prices",
                  "type": "uint256[]"
                },
                {
                  "internalType": "uint256",
                  "name": "price",
                  "type": "uint256"
                }
              ],
              "internalType": "struct VirtualLootKingdom.Pack",
              "name": "pack",
              "type": "tuple"
            },
            {
              "internalType": "uint256",
              "name": "chanceValue",
              "type": "uint256"
            }
          ],
          "name": "getItemWon",
          "outputs": [
            {
              "internalType": "uint256",
              "name": "",
              "type": "uint256"
            }
          ],
          "stateMutability": "pure",
          "type": "function"
        },
        {
          "inputs": [
            {
              "internalType": "uint256",
              "name": "openingId",
              "type": "uint256"
            }
          ],
          "name": "getOpeningArrays",
          "outputs": [
            {
              "internalType": "uint256[]",
              "name": "",
              "type": "uint256[]"
            },
            {
              "internalType": "uint256[]",
              "name": "",
              "type": "uint256[]"
            },
            {
              "internalType": "uint256[]",
              "name": "",
              "type": "uint256[]"
            }
          ],
          "stateMutability": "view",
          "type": "function"
        },
        {
          "inputs": [
            {
              "internalType": "uint256",
              "name": "packId",
              "type": "uint256"
            }
          ],
          "name": "getPackArrays",
          "outputs": [
            {
              "internalType": "uint256[]",
              "name": "",
              "type": "uint256[]"
            },
            {
              "internalType": "uint256[]",
              "name": "",
              "type": "uint256[]"
            },
            {
              "internalType": "uint256[]",
              "name": "",
              "type": "uint256[]"
            }
          ],
          "stateMutability": "view",
          "type": "function"
        },
        {
          "inputs": [
            {
              "internalType": "string",
              "name": "userKey",
              "type": "string"
            },
            {
              "internalType": "string",
              "name": "serverKey",
              "type": "string"
            }
          ],
          "name": "getRandomness",
          "outputs": [
            {
              "internalType": "uint256",
              "name": "",
              "type": "uint256"
            }
          ],
          "stateMutability": "pure",
          "type": "function"
        },
        {
          "inputs": [],
          "name": "houseAddress",
          "outputs": [
            {
              "internalType": "address",
              "name": "",
              "type": "address"
            }
          ],
          "stateMutability": "view",
          "type": "function"
        },
        {
          "inputs": [],
          "name": "id",
          "outputs": [
            {
              "internalType": "uint256",
              "name": "",
              "type": "uint256"
            }
          ],
          "stateMutability": "view",
          "type": "function"
        },
        {
          "inputs": [
            {
              "internalType": "uint256",
              "name": "",
              "type": "uint256"
            }
          ],
          "name": "openings",
          "outputs": [
            {
              "internalType": "uint256",
              "name": "userId",
              "type": "uint256"
            },
            {
              "internalType": "uint256",
              "name": "packId",
              "type": "uint256"
            },
            {
              "internalType": "uint256",
              "name": "randomness",
              "type": "uint256"
            },
            {
              "internalType": "uint256",
              "name": "itemIdWon",
              "type": "uint256"
            },
            {
              "internalType": "uint256",
              "name": "prize",
              "type": "uint256"
            },
            {
              "internalType": "string",
              "name": "key",
              "type": "string"
            },
            {
              "internalType": "string",
              "name": "hash",
              "type": "string"
            },
            {
              "internalType": "string",
              "name": "purchaseReference",
              "type": "string"
            },
            {
              "internalType": "bytes8",
              "name": "battlemode",
              "type": "bytes8"
            }
          ],
          "stateMutability": "view",
          "type": "function"
        },
        {
          "inputs": [],
          "name": "owner",
          "outputs": [
            {
              "internalType": "address",
              "name": "",
              "type": "address"
            }
          ],
          "stateMutability": "view",
          "type": "function"
        },
        {
          "inputs": [
            {
              "internalType": "uint256",
              "name": "",
              "type": "uint256"
            }
          ],
          "name": "packs",
          "outputs": [
            {
              "internalType": "string",
              "name": "name",
              "type": "string"
            },
            {
              "internalType": "uint256",
              "name": "price",
              "type": "uint256"
            }
          ],
          "stateMutability": "view",
          "type": "function"
        },
        {
          "inputs": [],
          "name": "renounceOwnership",
          "outputs": [],
          "stateMutability": "nonpayable",
          "type": "function"
        },
        {
          "inputs": [
            {
              "internalType": "uint256",
              "name": "packId",
              "type": "uint256"
            },
            {
              "components": [
                {
                  "internalType": "string",
                  "name": "name",
                  "type": "string"
                },
                {
                  "internalType": "uint256[]",
                  "name": "ids",
                  "type": "uint256[]"
                },
                {
                  "internalType": "uint256[]",
                  "name": "chances",
                  "type": "uint256[]"
                },
                {
                  "internalType": "uint256[]",
                  "name": "prices",
                  "type": "uint256[]"
                },
                {
                  "internalType": "uint256",
                  "name": "price",
                  "type": "uint256"
                }
              ],
              "internalType": "struct VirtualLootKingdom.Pack",
              "name": "pack",
              "type": "tuple"
            }
          ],
          "name": "setPack",
          "outputs": [],
          "stateMutability": "nonpayable",
          "type": "function"
        },
        {
          "inputs": [
            {
              "internalType": "uint256[]",
              "name": "userIds",
              "type": "uint256[]"
            },
            {
              "internalType": "string[]",
              "name": "updatedKeys",
              "type": "string[]"
            }
          ],
          "name": "setUserKeys",
          "outputs": [],
          "stateMutability": "nonpayable",
          "type": "function"
        },
        {
          "inputs": [
            {
              "internalType": "address[]",
              "name": "proposedValidators",
              "type": "address[]"
            }
          ],
          "name": "setWhitelist",
          "outputs": [],
          "stateMutability": "nonpayable",
          "type": "function"
        },
        {
          "inputs": [
            {
              "internalType": "address",
              "name": "newOwner",
              "type": "address"
            }
          ],
          "name": "transferOwnership",
          "outputs": [],
          "stateMutability": "nonpayable",
          "type": "function"
        },
        {
          "inputs": [
            {
              "internalType": "uint256",
              "name": "",
              "type": "uint256"
            }
          ],
          "name": "userIdToKey",
          "outputs": [
            {
              "internalType": "string",
              "name": "",
              "type": "string"
            }
          ],
          "stateMutability": "view",
          "type": "function"
        },
        {
          "inputs": [
            {
              "internalType": "address",
              "name": "",
              "type": "address"
            }
          ],
          "name": "validators",
          "outputs": [
            {
              "internalType": "bool",
              "name": "",
              "type": "bool"
            }
          ],
          "stateMutability": "view",
          "type": "function"
        }
      ],
      "evm": {
        "bytecode": {
          "linkReferences": {},
          "object": "60806040523480156200001157600080fd5b50604051620029bf380380620029bf8339810160408190526200003491620000dd565b33806200005b57604051631e4fbdf760e01b81526000600482015260240160405180910390fd5b62000066816200008d565b50600680546001600160a01b0319166001600160a01b03929092169190911790556200010f565b600080546001600160a01b038381166001600160a01b0319831681178455604051919092169283917f8be0079c531659141344cd1fd0a4f28419497f9722a3daafe3b4186f6b6457e09190a35050565b600060208284031215620000f057600080fd5b81516001600160a01b03811681146200010857600080fd5b9392505050565b6128a0806200011f6000396000f3fe608060405234801561001057600080fd5b50600436106101365760003560e01c80638da5cb5b116100b2578063d248f5f511610081578063f2fde38b11610066578063f2fde38b146102d0578063f4217648146102e3578063fa52c7d8146102f657600080fd5b8063d248f5f51461029d578063d7cee31e146102b057600080fd5b80638da5cb5b14610221578063af640d0f14610260578063b84c139214610269578063d119ad631461028a57600080fd5b80635351c41311610109578063715018a6116100ee578063715018a6146101d157806375e20f29146101d95780637c688e811461020157600080fd5b80635351c413146101ab57806370910899146101be57600080fd5b80630530050c1461013b5780630c2d8b281461015057806331c128c0146101765780634513b36914610198575b600080fd5b61014e610149366004611830565b610329565b005b61016361015e366004611aa9565b61038c565b6040519081526020015b60405180910390f35b610189610184366004611b96565b610451565b60405161016d93929190611bea565b61014e6101a6366004611c2d565b610583565b61014e6101b9366004611c7b565b6105ab565b6101896101cc366004611b96565b610612565b61014e61072f565b6101ec6101e7366004611b96565b610743565b60405161016d99989796959493929190611dda565b61021461020f366004611b96565b61092c565b60405161016d9190611e6e565b60005473ffffffffffffffffffffffffffffffffffffffff165b60405173ffffffffffffffffffffffffffffffffffffffff909116815260200161016d565b61016360015481565b61027c610277366004611b96565b6109c6565b60405161016d929190611e88565b61014e610298366004611eaa565b610a6a565b6101636102ab366004611f16565b610ba6565b60065461023b9073ffffffffffffffffffffffffffffffffffffffff1681565b61014e6102de366004611fad565b610bfb565b61014e6102f1366004611fe3565b610c64565b610319610304366004611fad565b60036020526000908152604090205460ff1681565b604051901515815260200161016d565b3360009081526003602052604090205460ff16610372576040517fee90c46800000000000000000000000000000000000000000000000000000000815260040160405180910390fd5b6103828888888888888888610d62565b5050505050505050565b6000805b60018460400151516103a29190612054565b81101561041857836040015181815181106103bf576103bf612067565b6020026020010151831180156103fc575060408401516103e0826001612096565b815181106103f0576103f0612067565b60200260200101518311155b1561040857905061044b565b610411816120a9565b9050610390565b506040517fb48c592600000000000000000000000000000000000000000000000000000000815260040160405180910390fd5b92915050565b6000818152600560209081526040808320600190810154845260028084529382902090810180548351818602810186019094528084526060958695869593949182019360039092019285918301828280156104cb57602002820191906000526020600020905b8154815260200190600101908083116104b7575b505050505092508180548060200260200160405190810160405280929190818152602001828054801561051d57602002820191906000526020600020905b815481526020019060010190808311610509575b505050505091508080548060200260200160405190810160405280929190818152602001828054801561056f57602002820191906000526020600020905b81548152602001906001019080831161055b575b505050505090509250925092509193909250565b61058b611155565b600082815260026020526040902081906105a582826123f6565b50505050565b3360009081526003602052604090205460ff166105f4576040517fee90c46800000000000000000000000000000000000000000000000000000000815260040160405180910390fd5b6106068a8a8a8a86868c8c8c8c6111a8565b50505050505050505050565b6000818152600260208181526040928390206001810180548551818502810185019096528086526060958695869593949081019360039091019285918301828280156104cb57602002820191906000526020600020908154815260200190600101908083116104b757505050505092508180548060200260200160405190810160405280929190818152602001828054801561051d576020028201919060005260206000209081548152602001906001019080831161050957505050505091508080548060200260200160405190810160405280929190818152602001828054801561056f576020028201919060005260206000209081548152602001906001019080831161055b57505050505090509250925092509193909250565b610737611155565b6107416000611656565b565b600560205280600052604060002060009150905080600001549080600101549080600201549080600301549080600401549080600501805461078490612146565b80601f01602080910402602001604051908101604052809291908181526020018280546107b090612146565b80156107fd5780601f106107d2576101008083540402835291602001916107fd565b820191906000526020600020905b8154815290600101906020018083116107e057829003601f168201915b50505050509080600601805461081290612146565b80601f016020809104026020016040519081016040528092919081815260200182805461083e90612146565b801561088b5780601f106108605761010080835404028352916020019161088b565b820191906000526020600020905b81548152906001019060200180831161086e57829003601f168201915b5050505050908060070180546108a090612146565b80601f01602080910402602001604051908101604052809291908181526020018280546108cc90612146565b80156109195780601f106108ee57610100808354040283529160200191610919565b820191906000526020600020905b8154815290600101906020018083116108fc57829003601f168201915b5050506008909301549192505060c01b89565b6004602052600090815260409020805461094590612146565b80601f016020809104026020016040519081016040528092919081815260200182805461097190612146565b80156109be5780601f10610993576101008083540402835291602001916109be565b820191906000526020600020905b8154815290600101906020018083116109a157829003601f168201915b505050505081565b6002602052600090815260409020805481906109e190612146565b80601f0160208091040260200160405190810160405280929190818152602001828054610a0d90612146565b8015610a5a5780601f10610a2f57610100808354040283529160200191610a5a565b820191906000526020600020905b815481529060010190602001808311610a3d57829003601f168201915b5050505050908060040154905082565b3360009081526003602052604090205460ff16610ab3576040517fee90c46800000000000000000000000000000000000000000000000000000000815260040160405180910390fd5b60005b83811015610b9f57828282818110610ad057610ad0612067565b9050602002810190610ae291906120e1565b60046000888886818110610af857610af8612067565b9050602002013581526020019081526020016000209182610b1a9291906121eb565b50848482818110610b2d57610b2d612067565b905060200201357f88c3ff32d649f190a2e1493fe9113aa0f0304e3a9c827940ac9c76b84edbf72d848484818110610b6757610b67612067565b9050602002810190610b7991906120e1565b604051610b879291906124c8565b60405180910390a2610b98816120a9565b9050610ab6565b5050505050565b6000828285604051602001610bbd93929190612515565b604080517fffffffffffffffffffffffffffffffffffffffffffffffffffffffffffffffe08184030181529190528051602090910120949350505050565b610c03611155565b73ffffffffffffffffffffffffffffffffffffffff8116610c58576040517f1e4fbdf7000000000000000000000000000000000000000000000000000000008152600060048201526024015b60405180910390fd5b610c6181611656565b50565b610c6c611155565b60005b81811015610d5d5760036000848484818110610c8d57610c8d612067565b9050602002016020810190610ca29190611fad565b73ffffffffffffffffffffffffffffffffffffffff168152602081019190915260400160009081205460ff161590600390858585818110610ce557610ce5612067565b9050602002016020810190610cfa9190611fad565b73ffffffffffffffffffffffffffffffffffffffff168152602081019190915260400160002080547fffffffffffffffffffffffffffffffffffffffffffffffffffffffffffffff0016911515919091179055610d56816120a9565b9050610c6f565b505050565b60005b8581101561114a576000610e4a600460008c8c86818110610d8857610d88612067565b9050602002013581526020019081526020016000208054610da890612146565b80601f0160208091040260200160405190810160405280929190818152602001828054610dd490612146565b8015610e215780601f10610df657610100808354040283529160200191610e21565b820191906000526020600020905b815481529060010190602001808311610e0457829003601f168201915b5050505050878785818110610e3857610e38612067565b90506020028101906102ab91906120e1565b90506000600260008a8a86818110610e6457610e64612067565b9050602002013581526020019081526020016000206040518060a0016040529081600082018054610e9490612146565b80601f0160208091040260200160405190810160405280929190818152602001828054610ec090612146565b8015610f0d5780601f10610ee257610100808354040283529160200191610f0d565b820191906000526020600020905b815481529060010190602001808311610ef057829003601f168201915b5050505050815260200160018201805480602002602001604051908101604052809291908181526020018280548015610f6557602002820191906000526020600020905b815481526020019060010190808311610f51575b5050505050815260200160028201805480602002602001604051908101604052809291908181526020018280548015610fbd57602002820191906000526020600020905b815481526020019060010190808311610fa9575b505050505081526020016003820180548060200260200160405190810160405280929190818152602001828054801561101557602002820191906000526020600020905b815481526020019060010190808311611001575b5050505050815260200160048201548152505090506000816040015160018360400151516110439190612054565b8151811061105357611053612067565b602002602001015183611066919061253c565b90506000611074838361038c565b90506111358b8b8781811061108b5761108b612067565b905060200201358e8e888181106110a4576110a4612067565b9050602002013586866060015185815181106110c2576110c2612067565b6020026020010151876020015186815181106110e0576110e0612067565b60200260200101518e8e8c8181106110fa576110fa612067565b905060200281019061110c91906120e1565b8e8e8e81811061111e5761111e612067565b905060200281019061113091906120e1565b6116cb565b5050505080611143906120a9565b9050610d65565b505050505050505050565b60005473ffffffffffffffffffffffffffffffffffffffff163314610741576040517f118cdaa7000000000000000000000000000000000000000000000000000000008152336004820152602401610c4f565b60005b878110156116495760006111ce600460008e8e86818110610d8857610d88612067565b90506000600260008c8c868181106111e8576111e8612067565b9050602002013581526020019081526020016000206040518060a001604052908160008201805461121890612146565b80601f016020809104026020016040519081016040528092919081815260200182805461124490612146565b80156112915780601f1061126657610100808354040283529160200191611291565b820191906000526020600020905b81548152906001019060200180831161127457829003601f168201915b50505050508152602001600182018054806020026020016040519081016040528092919081815260200182805480156112e957602002820191906000526020600020905b8154815260200190600101908083116112d5575b505050505081526020016002820180548060200260200160405190810160405280929190818152602001828054801561134157602002820191906000526020600020905b81548152602001906001019080831161132d575b505050505081526020016003820180548060200260200160405190810160405280929190818152602001828054801561139957602002820191906000526020600020905b815481526020019060010190808311611385575b5050505050815260200160048201548152505090506000816040015160018360400151516113c79190612054565b815181106113d7576113d7612067565b6020026020010151836113ea919061253c565b905060006113f8838361038c565b905060008f8f8781811061140e5761140e612067565b9050602002013590508d8d8781811061142957611429612067565b600180546000908152600560209081526040808320919094029590950135948201949094558054845281842085905554835290912060020186905550606084015180518390811061147c5761147c612067565b6020026020010151600560006001548152602001908152602001600020600401819055508989878181106114b2576114b2612067565b90506020028101906114c491906120e1565b6001546000908152600560205260409020600601916114e49190836121eb565b50600081815260046020908152604080832060015484526005928390529220019061150f9082612577565b508b8b8781811061152257611522612067565b905060200201602081019061153791906126ae565b600154600090815260056020526040902060080180547fffffffffffffffffffffffffffffffffffffffffffffffff00000000000000001660c09290921c91909117905587878781811061158d5761158d612067565b905060200281019061159f91906120e1565b6001546000908152600560205260409020600701916115bf9190836121eb565b5060018054600090815260056020819052604082206003018590558254927fb292fc7cb2c7d4671d9ca0ff79c8b2dc70244607e39b4e5c70266421b91059c4929084908261160c836120a9565b91905055815260200190815260200160002060405161162b919061278b565b60405180910390a2505050505080611642906120a9565b90506111ab565b5050505050505050505050565b6000805473ffffffffffffffffffffffffffffffffffffffff8381167fffffffffffffffffffffffff0000000000000000000000000000000000000000831681178455604051919092169283917f8be0079c531659141344cd1fd0a4f28419497f9722a3daafe3b4186f6b6457e09190a35050565b6001805460009081526005602052604080822083018c9055825482528082208b9055825482528082206002018a905582548252808220600401899055915481522060060161171a8486836121eb565b5060008881526004602090815260408083206001548452600592839052922001906117459082612577565b5060015460009081526005602052604090206007016117658284836121eb565b5060018054600090815260056020819052604082206003018890558254927fb292fc7cb2c7d4671d9ca0ff79c8b2dc70244607e39b4e5c70266421b91059c492908490826117b2836120a9565b9190505581526020019081526020016000206040516117d1919061278b565b60405180910390a2505050505050505050565b60008083601f8401126117f657600080fd5b50813567ffffffffffffffff81111561180e57600080fd5b6020830191508360208260051b850101111561182957600080fd5b9250929050565b6000806000806000806000806080898b03121561184c57600080fd5b883567ffffffffffffffff8082111561186457600080fd5b6118708c838d016117e4565b909a50985060208b013591508082111561188957600080fd5b6118958c838d016117e4565b909850965060408b01359150808211156118ae57600080fd5b6118ba8c838d016117e4565b909650945060608b01359150808211156118d357600080fd5b506118e08b828c016117e4565b999c989b5096995094979396929594505050565b7f4e487b7100000000000000000000000000000000000000000000000000000000600052604160045260246000fd5b60405160a0810167ffffffffffffffff81118282101715611946576119466118f4565b60405290565b604051601f82017fffffffffffffffffffffffffffffffffffffffffffffffffffffffffffffffe016810167ffffffffffffffff81118282101715611993576119936118f4565b604052919050565b600082601f8301126119ac57600080fd5b813567ffffffffffffffff8111156119c6576119c66118f4565b6119f760207fffffffffffffffffffffffffffffffffffffffffffffffffffffffffffffffe0601f8401160161194c565b818152846020838601011115611a0c57600080fd5b816020850160208301376000918101602001919091529392505050565b600082601f830112611a3a57600080fd5b8135602067ffffffffffffffff821115611a5657611a566118f4565b8160051b611a6582820161194c565b9283528481018201928281019087851115611a7f57600080fd5b83870192505b84831015611a9e57823582529183019190830190611a85565b979650505050505050565b60008060408385031215611abc57600080fd5b823567ffffffffffffffff80821115611ad457600080fd5b9084019060a08287031215611ae857600080fd5b611af0611923565b823582811115611aff57600080fd5b611b0b8882860161199b565b825250602083013582811115611b2057600080fd5b611b2c88828601611a29565b602083015250604083013582811115611b4457600080fd5b611b5088828601611a29565b604083015250606083013582811115611b6857600080fd5b611b7488828601611a29565b6060830152506080928301359281019290925250946020939093013593505050565b600060208284031215611ba857600080fd5b5035919050565b600081518084526020808501945080840160005b83811015611bdf57815187529582019590820190600101611bc3565b509495945050505050565b606081526000611bfd6060830186611baf565b8281036020840152611c0f8186611baf565b90508281036040840152611c238185611baf565b9695505050505050565b60008060408385031215611c4057600080fd5b82359150602083013567ffffffffffffffff811115611c5e57600080fd5b830160a08186031215611c7057600080fd5b809150509250929050565b60008060008060008060008060008060a08b8d031215611c9a57600080fd5b8a3567ffffffffffffffff80821115611cb257600080fd5b611cbe8e838f016117e4565b909c509a5060208d0135915080821115611cd757600080fd5b611ce38e838f016117e4565b909a50985060408d0135915080821115611cfc57600080fd5b611d088e838f016117e4565b909850965060608d0135915080821115611d2157600080fd5b611d2d8e838f016117e4565b909650945060808d0135915080821115611d4657600080fd5b50611d538d828e016117e4565b915080935050809150509295989b9194979a5092959850565b60005b83811015611d87578181015183820152602001611d6f565b50506000910152565b60008151808452611da8816020860160208601611d6c565b601f017fffffffffffffffffffffffffffffffffffffffffffffffffffffffffffffffe0169290920160200192915050565b60006101208b83528a60208401528960408401528860608401528760808401528060a0840152611e0c81840188611d90565b905082810360c0840152611e208187611d90565b905082810360e0840152611e348186611d90565b9150507fffffffffffffffff00000000000000000000000000000000000000000000000083166101008301529a9950505050505050505050565b602081526000611e816020830184611d90565b9392505050565b604081526000611e9b6040830185611d90565b90508260208301529392505050565b60008060008060408587031215611ec057600080fd5b843567ffffffffffffffff80821115611ed857600080fd5b611ee4888389016117e4565b90965094506020870135915080821115611efd57600080fd5b50611f0a878288016117e4565b95989497509550505050565b600080600060408486031215611f2b57600080fd5b833567ffffffffffffffff80821115611f4357600080fd5b611f4f8783880161199b565b94506020860135915080821115611f6557600080fd5b818601915086601f830112611f7957600080fd5b813581811115611f8857600080fd5b876020828501011115611f9a57600080fd5b6020830194508093505050509250925092565b600060208284031215611fbf57600080fd5b813573ffffffffffffffffffffffffffffffffffffffff81168114611e8157600080fd5b60008060208385031215611ff657600080fd5b823567ffffffffffffffff81111561200d57600080fd5b612019858286016117e4565b90969095509350505050565b7f4e487b7100000000000000000000000000000000000000000000000000000000600052601160045260246000fd5b8181038181111561044b5761044b612025565b7f4e487b7100000000000000000000000000000000000000000000000000000000600052603260045260246000fd5b8082018082111561044b5761044b612025565b60007fffffffffffffffffffffffffffffffffffffffffffffffffffffffffffffffff82036120da576120da612025565b5060010190565b60008083357fffffffffffffffffffffffffffffffffffffffffffffffffffffffffffffffe184360301811261211657600080fd5b83018035915067ffffffffffffffff82111561213157600080fd5b60200191503681900382131561182957600080fd5b600181811c9082168061215a57607f821691505b602082108103612193577f4e487b7100000000000000000000000000000000000000000000000000000000600052602260045260246000fd5b50919050565b5b818110156121ae576000815560010161219a565b5050565b601f821115610d5d57806000526020600020601f840160051c810160208510156121d95750805b610b9f601f850160051c830182612199565b67ffffffffffffffff831115612203576122036118f4565b612217836122118354612146565b836121b2565b6000601f84116001811461226957600085156122335750838201355b7fffffffffffffffffffffffffffffffffffffffffffffffffffffffffffffffff600387901b1c1916600186901b178355610b9f565b6000838152602090207fffffffffffffffffffffffffffffffffffffffffffffffffffffffffffffffe0861690835b828110156122b85786850135825560209485019460019092019101612298565b50868210156122f3577fffffffffffffffffffffffffffffffffffffffffffffffffffffffffffffffff60f88860031b161c19848701351681555b505060018560011b0183555050505050565b60008083357fffffffffffffffffffffffffffffffffffffffffffffffffffffffffffffffe184360301811261233a57600080fd5b83018035915067ffffffffffffffff82111561235557600080fd5b6020019150600581901b360382131561182957600080fd5b67ffffffffffffffff831115612385576123856118f4565b6801000000000000000083111561239e5761239e6118f4565b8054838255808410156123c4578160005260206000206123c2828201868301612199565b505b50818160005260208060002060005b868110156123ed57833582820155928201926001016123d3565b50505050505050565b81357fffffffffffffffffffffffffffffffffffffffffffffffffffffffffffffffe183360301811261242857600080fd5b8201803567ffffffffffffffff81111561244157600080fd5b60208201915080360382131561245657600080fd5b6124618183856121eb565b50506124706020830183612305565b61247e81836001860161236d565b505061248d6040830183612305565b61249b81836002860161236d565b50506124aa6060830183612305565b6124b881836003860161236d565b5050608082013560048201555050565b60208152816020820152818360408301376000818301604090810191909152601f9092017fffffffffffffffffffffffffffffffffffffffffffffffffffffffffffffffe0160101919050565b828482376000838201600081528351612532818360208801611d6c565b0195945050505050565b600082612572577f4e487b7100000000000000000000000000000000000000000000000000000000600052601260045260246000fd5b500690565b818103612582575050565b61258c8254612146565b67ffffffffffffffff8111156125a4576125a46118f4565b6125b8816125b28454612146565b846121b2565b6000601f82116001811461260a57600083156125d45750848201545b7fffffffffffffffffffffffffffffffffffffffffffffffffffffffffffffffff600385901b1c1916600184901b178455610b9f565b6000858152602090207fffffffffffffffffffffffffffffffffffffffffffffffffffffffffffffffe0841690600086815260209020845b838110156126625782860154825560019586019590910190602001612642565b508583101561269e57818501547fffffffffffffffffffffffffffffffffffffffffffffffffffffffffffffffff600388901b60f8161c191681555b5050505050600190811b01905550565b6000602082840312156126c057600080fd5b81357fffffffffffffffff00000000000000000000000000000000000000000000000081168114611e8157600080fd5b600081546126fd81612146565b80855260206001838116801561271a576001811461275257612780565b7fffffffffffffffffffffffffffffffffffffffffffffffffffffffffffffff008516838901528284151560051b8901019550612780565b866000528260002060005b858110156127785781548a820186015290830190840161275d565b890184019650505b505050505092915050565b6020815281546020820152600182015460408201526002820154606082015260038201546080820152600482015460a082015260006101208060c08401526127da6101408401600586016126f0565b7fffffffffffffffffffffffffffffffffffffffffffffffffffffffffffffffe0808583030160e086015261281282600688016126f0565b915080858303016101008601525061282d81600787016126f0565b905061283d600886015460c01b90565b7fffffffffffffffff0000000000000000000000000000000000000000000000001691909301525091905056fea2646970667358221220ff37c82b3208f2a32d517d5bda279eea083ad9b938bebd7dbdc1ad8ddd0c367f64736f6c63430008130033",
          "opcodes": "PUSH1 0x80 PUSH1 0x40 MSTORE CALLVALUE DUP1 ISZERO PUSH3 0x11 JUMPI PUSH1 0x0 DUP1 REVERT JUMPDEST POP PUSH1 0x40 MLOAD PUSH3 0x29BF CODESIZE SUB DUP1 PUSH3 0x29BF DUP4 CODECOPY DUP2 ADD PUSH1 0x40 DUP2 SWAP1 MSTORE PUSH3 0x34 SWAP2 PUSH3 0xDD JUMP JUMPDEST CALLER DUP1 PUSH3 0x5B JUMPI PUSH1 0x40 MLOAD PUSH4 0x1E4FBDF7 PUSH1 0xE0 SHL DUP2 MSTORE PUSH1 0x0 PUSH1 0x4 DUP3 ADD MSTORE PUSH1 0x24 ADD PUSH1 0x40 MLOAD DUP1 SWAP2 SUB SWAP1 REVERT JUMPDEST PUSH3 0x66 DUP2 PUSH3 0x8D JUMP JUMPDEST POP PUSH1 0x6 DUP1 SLOAD PUSH1 0x1 PUSH1 0x1 PUSH1 0xA0 SHL SUB NOT AND PUSH1 0x1 PUSH1 0x1 PUSH1 0xA0 SHL SUB SWAP3 SWAP1 SWAP3 AND SWAP2 SWAP1 SWAP2 OR SWAP1 SSTORE PUSH3 0x10F JUMP JUMPDEST PUSH1 0x0 DUP1 SLOAD PUSH1 0x1 PUSH1 0x1 PUSH1 0xA0 SHL SUB DUP4 DUP2 AND PUSH1 0x1 PUSH1 0x1 PUSH1 0xA0 SHL SUB NOT DUP4 AND DUP2 OR DUP5 SSTORE PUSH1 0x40 MLOAD SWAP2 SWAP1 SWAP3 AND SWAP3 DUP4 SWAP2 PUSH32 0x8BE0079C531659141344CD1FD0A4F28419497F9722A3DAAFE3B4186F6B6457E0 SWAP2 SWAP1 LOG3 POP POP JUMP JUMPDEST PUSH1 0x0 PUSH1 0x20 DUP3 DUP5 SUB SLT ISZERO PUSH3 0xF0 JUMPI PUSH1 0x0 DUP1 REVERT JUMPDEST DUP2 MLOAD PUSH1 0x1 PUSH1 0x1 PUSH1 0xA0 SHL SUB DUP2 AND DUP2 EQ PUSH3 0x108 JUMPI PUSH1 0x0 DUP1 REVERT JUMPDEST SWAP4 SWAP3 POP POP POP JUMP JUMPDEST PUSH2 0x28A0 DUP1 PUSH3 0x11F PUSH1 0x0 CODECOPY PUSH1 0x0 RETURN INVALID PUSH1 0x80 PUSH1 0x40 MSTORE CALLVALUE DUP1 ISZERO PUSH2 0x10 JUMPI PUSH1 0x0 DUP1 REVERT JUMPDEST POP PUSH1 0x4 CALLDATASIZE LT PUSH2 0x136 JUMPI PUSH1 0x0 CALLDATALOAD PUSH1 0xE0 SHR DUP1 PUSH4 0x8DA5CB5B GT PUSH2 0xB2 JUMPI DUP1 PUSH4 0xD248F5F5 GT PUSH2 0x81 JUMPI DUP1 PUSH4 0xF2FDE38B GT PUSH2 0x66 JUMPI DUP1 PUSH4 0xF2FDE38B EQ PUSH2 0x2D0 JUMPI DUP1 PUSH4 0xF4217648 EQ PUSH2 0x2E3 JUMPI DUP1 PUSH4 0xFA52C7D8 EQ PUSH2 0x2F6 JUMPI PUSH1 0x0 DUP1 REVERT JUMPDEST DUP1 PUSH4 0xD248F5F5 EQ PUSH2 0x29D JUMPI DUP1 PUSH4 0xD7CEE31E EQ PUSH2 0x2B0 JUMPI PUSH1 0x0 DUP1 REVERT JUMPDEST DUP1 PUSH4 0x8DA5CB5B EQ PUSH2 0x221 JUMPI DUP1 PUSH4 0xAF640D0F EQ PUSH2 0x260 JUMPI DUP1 PUSH4 0xB84C1392 EQ PUSH2 0x269 JUMPI DUP1 PUSH4 0xD119AD63 EQ PUSH2 0x28A JUMPI PUSH1 0x0 DUP1 REVERT JUMPDEST DUP1 PUSH4 0x5351C413 GT PUSH2 0x109 JUMPI DUP1 PUSH4 0x715018A6 GT PUSH2 0xEE JUMPI DUP1 PUSH4 0x715018A6 EQ PUSH2 0x1D1 JUMPI DUP1 PUSH4 0x75E20F29 EQ PUSH2 0x1D9 JUMPI DUP1 PUSH4 0x7C688E81 EQ PUSH2 0x201 JUMPI PUSH1 0x0 DUP1 REVERT JUMPDEST DUP1 PUSH4 0x5351C413 EQ PUSH2 0x1AB JUMPI DUP1 PUSH4 0x70910899 EQ PUSH2 0x1BE JUMPI PUSH1 0x0 DUP1 REVERT JUMPDEST DUP1 PUSH4 0x530050C EQ PUSH2 0x13B JUMPI DUP1 PUSH4 0xC2D8B28 EQ PUSH2 0x150 JUMPI DUP1 PUSH4 0x31C128C0 EQ PUSH2 0x176 JUMPI DUP1 PUSH4 0x4513B369 EQ PUSH2 0x198 JUMPI JUMPDEST PUSH1 0x0 DUP1 REVERT JUMPDEST PUSH2 0x14E PUSH2 0x149 CALLDATASIZE PUSH1 0x4 PUSH2 0x1830 JUMP JUMPDEST PUSH2 0x329 JUMP JUMPDEST STOP JUMPDEST PUSH2 0x163 PUSH2 0x15E CALLDATASIZE PUSH1 0x4 PUSH2 0x1AA9 JUMP JUMPDEST PUSH2 0x38C JUMP JUMPDEST PUSH1 0x40 MLOAD SWAP1 DUP2 MSTORE PUSH1 0x20 ADD JUMPDEST PUSH1 0x40 MLOAD DUP1 SWAP2 SUB SWAP1 RETURN JUMPDEST PUSH2 0x189 PUSH2 0x184 CALLDATASIZE PUSH1 0x4 PUSH2 0x1B96 JUMP JUMPDEST PUSH2 0x451 JUMP JUMPDEST PUSH1 0x40 MLOAD PUSH2 0x16D SWAP4 SWAP3 SWAP2 SWAP1 PUSH2 0x1BEA JUMP JUMPDEST PUSH2 0x14E PUSH2 0x1A6 CALLDATASIZE PUSH1 0x4 PUSH2 0x1C2D JUMP JUMPDEST PUSH2 0x583 JUMP JUMPDEST PUSH2 0x14E PUSH2 0x1B9 CALLDATASIZE PUSH1 0x4 PUSH2 0x1C7B JUMP JUMPDEST PUSH2 0x5AB JUMP JUMPDEST PUSH2 0x189 PUSH2 0x1CC CALLDATASIZE PUSH1 0x4 PUSH2 0x1B96 JUMP JUMPDEST PUSH2 0x612 JUMP JUMPDEST PUSH2 0x14E PUSH2 0x72F JUMP JUMPDEST PUSH2 0x1EC PUSH2 0x1E7 CALLDATASIZE PUSH1 0x4 PUSH2 0x1B96 JUMP JUMPDEST PUSH2 0x743 JUMP JUMPDEST PUSH1 0x40 MLOAD PUSH2 0x16D SWAP10 SWAP9 SWAP8 SWAP7 SWAP6 SWAP5 SWAP4 SWAP3 SWAP2 SWAP1 PUSH2 0x1DDA JUMP JUMPDEST PUSH2 0x214 PUSH2 0x20F CALLDATASIZE PUSH1 0x4 PUSH2 0x1B96 JUMP JUMPDEST PUSH2 0x92C JUMP JUMPDEST PUSH1 0x40 MLOAD PUSH2 0x16D SWAP2 SWAP1 PUSH2 0x1E6E JUMP JUMPDEST PUSH1 0x0 SLOAD PUSH20 0xFFFFFFFFFFFFFFFFFFFFFFFFFFFFFFFFFFFFFFFF AND JUMPDEST PUSH1 0x40 MLOAD PUSH20 0xFFFFFFFFFFFFFFFFFFFFFFFFFFFFFFFFFFFFFFFF SWAP1 SWAP2 AND DUP2 MSTORE PUSH1 0x20 ADD PUSH2 0x16D JUMP JUMPDEST PUSH2 0x163 PUSH1 0x1 SLOAD DUP2 JUMP JUMPDEST PUSH2 0x27C PUSH2 0x277 CALLDATASIZE PUSH1 0x4 PUSH2 0x1B96 JUMP JUMPDEST PUSH2 0x9C6 JUMP JUMPDEST PUSH1 0x40 MLOAD PUSH2 0x16D SWAP3 SWAP2 SWAP1 PUSH2 0x1E88 JUMP JUMPDEST PUSH2 0x14E PUSH2 0x298 CALLDATASIZE PUSH1 0x4 PUSH2 0x1EAA JUMP JUMPDEST PUSH2 0xA6A JUMP JUMPDEST PUSH2 0x163 PUSH2 0x2AB CALLDATASIZE PUSH1 0x4 PUSH2 0x1F16 JUMP JUMPDEST PUSH2 0xBA6 JUMP JUMPDEST PUSH1 0x6 SLOAD PUSH2 0x23B SWAP1 PUSH20 0xFFFFFFFFFFFFFFFFFFFFFFFFFFFFFFFFFFFFFFFF AND DUP2 JUMP JUMPDEST PUSH2 0x14E PUSH2 0x2DE CALLDATASIZE PUSH1 0x4 PUSH2 0x1FAD JUMP JUMPDEST PUSH2 0xBFB JUMP JUMPDEST PUSH2 0x14E PUSH2 0x2F1 CALLDATASIZE PUSH1 0x4 PUSH2 0x1FE3 JUMP JUMPDEST PUSH2 0xC64 JUMP JUMPDEST PUSH2 0x319 PUSH2 0x304 CALLDATASIZE PUSH1 0x4 PUSH2 0x1FAD JUMP JUMPDEST PUSH1 0x3 PUSH1 0x20 MSTORE PUSH1 0x0 SWAP1 DUP2 MSTORE PUSH1 0x40 SWAP1 KECCAK256 SLOAD PUSH1 0xFF AND DUP2 JUMP JUMPDEST PUSH1 0x40 MLOAD SWAP1 ISZERO ISZERO DUP2 MSTORE PUSH1 0x20 ADD PUSH2 0x16D JUMP JUMPDEST CALLER PUSH1 0x0 SWAP1 DUP2 MSTORE PUSH1 0x3 PUSH1 0x20 MSTORE PUSH1 0x40 SWAP1 KECCAK256 SLOAD PUSH1 0xFF AND PUSH2 0x372 JUMPI PUSH1 0x40 MLOAD PUSH32 0xEE90C46800000000000000000000000000000000000000000000000000000000 DUP2 MSTORE PUSH1 0x4 ADD PUSH1 0x40 MLOAD DUP1 SWAP2 SUB SWAP1 REVERT JUMPDEST PUSH2 0x382 DUP9 DUP9 DUP9 DUP9 DUP9 DUP9 DUP9 DUP9 PUSH2 0xD62 JUMP JUMPDEST POP POP POP POP POP POP POP POP JUMP JUMPDEST PUSH1 0x0 DUP1 JUMPDEST PUSH1 0x1 DUP5 PUSH1 0x40 ADD MLOAD MLOAD PUSH2 0x3A2 SWAP2 SWAP1 PUSH2 0x2054 JUMP JUMPDEST DUP2 LT ISZERO PUSH2 0x418 JUMPI DUP4 PUSH1 0x40 ADD MLOAD DUP2 DUP2 MLOAD DUP2 LT PUSH2 0x3BF JUMPI PUSH2 0x3BF PUSH2 0x2067 JUMP JUMPDEST PUSH1 0x20 MUL PUSH1 0x20 ADD ADD MLOAD DUP4 GT DUP1 ISZERO PUSH2 0x3FC JUMPI POP PUSH1 0x40 DUP5 ADD MLOAD PUSH2 0x3E0 DUP3 PUSH1 0x1 PUSH2 0x2096 JUMP JUMPDEST DUP2 MLOAD DUP2 LT PUSH2 0x3F0 JUMPI PUSH2 0x3F0 PUSH2 0x2067 JUMP JUMPDEST PUSH1 0x20 MUL PUSH1 0x20 ADD ADD MLOAD DUP4 GT ISZERO JUMPDEST ISZERO PUSH2 0x408 JUMPI SWAP1 POP PUSH2 0x44B JUMP JUMPDEST PUSH2 0x411 DUP2 PUSH2 0x20A9 JUMP JUMPDEST SWAP1 POP PUSH2 0x390 JUMP JUMPDEST POP PUSH1 0x40 MLOAD PUSH32 0xB48C592600000000000000000000000000000000000000000000000000000000 DUP2 MSTORE PUSH1 0x4 ADD PUSH1 0x40 MLOAD DUP1 SWAP2 SUB SWAP1 REVERT JUMPDEST SWAP3 SWAP2 POP POP JUMP JUMPDEST PUSH1 0x0 DUP2 DUP2 MSTORE PUSH1 0x5 PUSH1 0x20 SWAP1 DUP2 MSTORE PUSH1 0x40 DUP1 DUP4 KECCAK256 PUSH1 0x1 SWAP1 DUP2 ADD SLOAD DUP5 MSTORE PUSH1 0x2 DUP1 DUP5 MSTORE SWAP4 DUP3 SWAP1 KECCAK256 SWAP1 DUP2 ADD DUP1 SLOAD DUP4 MLOAD DUP2 DUP7 MUL DUP2 ADD DUP7 ADD SWAP1 SWAP5 MSTORE DUP1 DUP5 MSTORE PUSH1 0x60 SWAP6 DUP7 SWAP6 DUP7 SWAP6 SWAP4 SWAP5 SWAP2 DUP3 ADD SWAP4 PUSH1 0x3 SWAP1 SWAP3 ADD SWAP3 DUP6 SWAP2 DUP4 ADD DUP3 DUP3 DUP1 ISZERO PUSH2 0x4CB JUMPI PUSH1 0x20 MUL DUP3 ADD SWAP2 SWAP1 PUSH1 0x0 MSTORE PUSH1 0x20 PUSH1 0x0 KECCAK256 SWAP1 JUMPDEST DUP2 SLOAD DUP2 MSTORE PUSH1 0x20 ADD SWAP1 PUSH1 0x1 ADD SWAP1 DUP1 DUP4 GT PUSH2 0x4B7 JUMPI JUMPDEST POP POP POP POP POP SWAP3 POP DUP2 DUP1 SLOAD DUP1 PUSH1 0x20 MUL PUSH1 0x20 ADD PUSH1 0x40 MLOAD SWAP1 DUP2 ADD PUSH1 0x40 MSTORE DUP1 SWAP3 SWAP2 SWAP1 DUP2 DUP2 MSTORE PUSH1 0x20 ADD DUP3 DUP1 SLOAD DUP1 ISZERO PUSH2 0x51D JUMPI PUSH1 0x20 MUL DUP3 ADD SWAP2 SWAP1 PUSH1 0x0 MSTORE PUSH1 0x20 PUSH1 0x0 KECCAK256 SWAP1 JUMPDEST DUP2 SLOAD DUP2 MSTORE PUSH1 0x20 ADD SWAP1 PUSH1 0x1 ADD SWAP1 DUP1 DUP4 GT PUSH2 0x509 JUMPI JUMPDEST POP POP POP POP POP SWAP2 POP DUP1 DUP1 SLOAD DUP1 PUSH1 0x20 MUL PUSH1 0x20 ADD PUSH1 0x40 MLOAD SWAP1 DUP2 ADD PUSH1 0x40 MSTORE DUP1 SWAP3 SWAP2 SWAP1 DUP2 DUP2 MSTORE PUSH1 0x20 ADD DUP3 DUP1 SLOAD DUP1 ISZERO PUSH2 0x56F JUMPI PUSH1 0x20 MUL DUP3 ADD SWAP2 SWAP1 PUSH1 0x0 MSTORE PUSH1 0x20 PUSH1 0x0 KECCAK256 SWAP1 JUMPDEST DUP2 SLOAD DUP2 MSTORE PUSH1 0x20 ADD SWAP1 PUSH1 0x1 ADD SWAP1 DUP1 DUP4 GT PUSH2 0x55B JUMPI JUMPDEST POP POP POP POP POP SWAP1 POP SWAP3 POP SWAP3 POP SWAP3 POP SWAP2 SWAP4 SWAP1 SWAP3 POP JUMP JUMPDEST PUSH2 0x58B PUSH2 0x1155 JUMP JUMPDEST PUSH1 0x0 DUP3 DUP2 MSTORE PUSH1 0x2 PUSH1 0x20 MSTORE PUSH1 0x40 SWAP1 KECCAK256 DUP2 SWAP1 PUSH2 0x5A5 DUP3 DUP3 PUSH2 0x23F6 JUMP JUMPDEST POP POP POP POP JUMP JUMPDEST CALLER PUSH1 0x0 SWAP1 DUP2 MSTORE PUSH1 0x3 PUSH1 0x20 MSTORE PUSH1 0x40 SWAP1 KECCAK256 SLOAD PUSH1 0xFF AND PUSH2 0x5F4 JUMPI PUSH1 0x40 MLOAD PUSH32 0xEE90C46800000000000000000000000000000000000000000000000000000000 DUP2 MSTORE PUSH1 0x4 ADD PUSH1 0x40 MLOAD DUP1 SWAP2 SUB SWAP1 REVERT JUMPDEST PUSH2 0x606 DUP11 DUP11 DUP11 DUP11 DUP7 DUP7 DUP13 DUP13 DUP13 DUP13 PUSH2 0x11A8 JUMP JUMPDEST POP POP POP POP POP POP POP POP POP POP JUMP JUMPDEST PUSH1 0x0 DUP2 DUP2 MSTORE PUSH1 0x2 PUSH1 0x20 DUP2 DUP2 MSTORE PUSH1 0x40 SWAP3 DUP4 SWAP1 KECCAK256 PUSH1 0x1 DUP2 ADD DUP1 SLOAD DUP6 MLOAD DUP2 DUP6 MUL DUP2 ADD DUP6 ADD SWAP1 SWAP7 MSTORE DUP1 DUP7 MSTORE PUSH1 0x60 SWAP6 DUP7 SWAP6 DUP7 SWAP6 SWAP4 SWAP5 SWAP1 DUP2 ADD SWAP4 PUSH1 0x3 SWAP1 SWAP2 ADD SWAP3 DUP6 SWAP2 DUP4 ADD DUP3 DUP3 DUP1 ISZERO PUSH2 0x4CB JUMPI PUSH1 0x20 MUL DUP3 ADD SWAP2 SWAP1 PUSH1 0x0 MSTORE PUSH1 0x20 PUSH1 0x0 KECCAK256 SWAP1 DUP2 SLOAD DUP2 MSTORE PUSH1 0x20 ADD SWAP1 PUSH1 0x1 ADD SWAP1 DUP1 DUP4 GT PUSH2 0x4B7 JUMPI POP POP POP POP POP SWAP3 POP DUP2 DUP1 SLOAD DUP1 PUSH1 0x20 MUL PUSH1 0x20 ADD PUSH1 0x40 MLOAD SWAP1 DUP2 ADD PUSH1 0x40 MSTORE DUP1 SWAP3 SWAP2 SWAP1 DUP2 DUP2 MSTORE PUSH1 0x20 ADD DUP3 DUP1 SLOAD DUP1 ISZERO PUSH2 0x51D JUMPI PUSH1 0x20 MUL DUP3 ADD SWAP2 SWAP1 PUSH1 0x0 MSTORE PUSH1 0x20 PUSH1 0x0 KECCAK256 SWAP1 DUP2 SLOAD DUP2 MSTORE PUSH1 0x20 ADD SWAP1 PUSH1 0x1 ADD SWAP1 DUP1 DUP4 GT PUSH2 0x509 JUMPI POP POP POP POP POP SWAP2 POP DUP1 DUP1 SLOAD DUP1 PUSH1 0x20 MUL PUSH1 0x20 ADD PUSH1 0x40 MLOAD SWAP1 DUP2 ADD PUSH1 0x40 MSTORE DUP1 SWAP3 SWAP2 SWAP1 DUP2 DUP2 MSTORE PUSH1 0x20 ADD DUP3 DUP1 SLOAD DUP1 ISZERO PUSH2 0x56F JUMPI PUSH1 0x20 MUL DUP3 ADD SWAP2 SWAP1 PUSH1 0x0 MSTORE PUSH1 0x20 PUSH1 0x0 KECCAK256 SWAP1 DUP2 SLOAD DUP2 MSTORE PUSH1 0x20 ADD SWAP1 PUSH1 0x1 ADD SWAP1 DUP1 DUP4 GT PUSH2 0x55B JUMPI POP POP POP POP POP SWAP1 POP SWAP3 POP SWAP3 POP SWAP3 POP SWAP2 SWAP4 SWAP1 SWAP3 POP JUMP JUMPDEST PUSH2 0x737 PUSH2 0x1155 JUMP JUMPDEST PUSH2 0x741 PUSH1 0x0 PUSH2 0x1656 JUMP JUMPDEST JUMP JUMPDEST PUSH1 0x5 PUSH1 0x20 MSTORE DUP1 PUSH1 0x0 MSTORE PUSH1 0x40 PUSH1 0x0 KECCAK256 PUSH1 0x0 SWAP2 POP SWAP1 POP DUP1 PUSH1 0x0 ADD SLOAD SWAP1 DUP1 PUSH1 0x1 ADD SLOAD SWAP1 DUP1 PUSH1 0x2 ADD SLOAD SWAP1 DUP1 PUSH1 0x3 ADD SLOAD SWAP1 DUP1 PUSH1 0x4 ADD SLOAD SWAP1 DUP1 PUSH1 0x5 ADD DUP1 SLOAD PUSH2 0x784 SWAP1 PUSH2 0x2146 JUMP JUMPDEST DUP1 PUSH1 0x1F ADD PUSH1 0x20 DUP1 SWAP2 DIV MUL PUSH1 0x20 ADD PUSH1 0x40 MLOAD SWAP1 DUP2 ADD PUSH1 0x40 MSTORE DUP1 SWAP3 SWAP2 SWAP1 DUP2 DUP2 MSTORE PUSH1 0x20 ADD DUP3 DUP1 SLOAD PUSH2 0x7B0 SWAP1 PUSH2 0x2146 JUMP JUMPDEST DUP1 ISZERO PUSH2 0x7FD JUMPI DUP1 PUSH1 0x1F LT PUSH2 0x7D2 JUMPI PUSH2 0x100 DUP1 DUP4 SLOAD DIV MUL DUP4 MSTORE SWAP2 PUSH1 0x20 ADD SWAP2 PUSH2 0x7FD JUMP JUMPDEST DUP3 ADD SWAP2 SWAP1 PUSH1 0x0 MSTORE PUSH1 0x20 PUSH1 0x0 KECCAK256 SWAP1 JUMPDEST DUP2 SLOAD DUP2 MSTORE SWAP1 PUSH1 0x1 ADD SWAP1 PUSH1 0x20 ADD DUP1 DUP4 GT PUSH2 0x7E0 JUMPI DUP3 SWAP1 SUB PUSH1 0x1F AND DUP3 ADD SWAP2 JUMPDEST POP POP POP POP POP SWAP1 DUP1 PUSH1 0x6 ADD DUP1 SLOAD PUSH2 0x812 SWAP1 PUSH2 0x2146 JUMP JUMPDEST DUP1 PUSH1 0x1F ADD PUSH1 0x20 DUP1 SWAP2 DIV MUL PUSH1 0x20 ADD PUSH1 0x40 MLOAD SWAP1 DUP2 ADD PUSH1 0x40 MSTORE DUP1 SWAP3 SWAP2 SWAP1 DUP2 DUP2 MSTORE PUSH1 0x20 ADD DUP3 DUP1 SLOAD PUSH2 0x83E SWAP1 PUSH2 0x2146 JUMP JUMPDEST DUP1 ISZERO PUSH2 0x88B JUMPI DUP1 PUSH1 0x1F LT PUSH2 0x860 JUMPI PUSH2 0x100 DUP1 DUP4 SLOAD DIV MUL DUP4 MSTORE SWAP2 PUSH1 0x20 ADD SWAP2 PUSH2 0x88B JUMP JUMPDEST DUP3 ADD SWAP2 SWAP1 PUSH1 0x0 MSTORE PUSH1 0x20 PUSH1 0x0 KECCAK256 SWAP1 JUMPDEST DUP2 SLOAD DUP2 MSTORE SWAP1 PUSH1 0x1 ADD SWAP1 PUSH1 0x20 ADD DUP1 DUP4 GT PUSH2 0x86E JUMPI DUP3 SWAP1 SUB PUSH1 0x1F AND DUP3 ADD SWAP2 JUMPDEST POP POP POP POP POP SWAP1 DUP1 PUSH1 0x7 ADD DUP1 SLOAD PUSH2 0x8A0 SWAP1 PUSH2 0x2146 JUMP JUMPDEST DUP1 PUSH1 0x1F ADD PUSH1 0x20 DUP1 SWAP2 DIV MUL PUSH1 0x20 ADD PUSH1 0x40 MLOAD SWAP1 DUP2 ADD PUSH1 0x40 MSTORE DUP1 SWAP3 SWAP2 SWAP1 DUP2 DUP2 MSTORE PUSH1 0x20 ADD DUP3 DUP1 SLOAD PUSH2 0x8CC SWAP1 PUSH2 0x2146 JUMP JUMPDEST DUP1 ISZERO PUSH2 0x919 JUMPI DUP1 PUSH1 0x1F LT PUSH2 0x8EE JUMPI PUSH2 0x100 DUP1 DUP4 SLOAD DIV MUL DUP4 MSTORE SWAP2 PUSH1 0x20 ADD SWAP2 PUSH2 0x919 JUMP JUMPDEST DUP3 ADD SWAP2 SWAP1 PUSH1 0x0 MSTORE PUSH1 0x20 PUSH1 0x0 KECCAK256 SWAP1 JUMPDEST DUP2 SLOAD DUP2 MSTORE SWAP1 PUSH1 0x1 ADD SWAP1 PUSH1 0x20 ADD DUP1 DUP4 GT PUSH2 0x8FC JUMPI DUP3 SWAP1 SUB PUSH1 0x1F AND DUP3 ADD SWAP2 JUMPDEST POP POP POP PUSH1 0x8 SWAP1 SWAP4 ADD SLOAD SWAP2 SWAP3 POP POP PUSH1 0xC0 SHL DUP10 JUMP JUMPDEST PUSH1 0x4 PUSH1 0x20 MSTORE PUSH1 0x0 SWAP1 DUP2 MSTORE PUSH1 0x40 SWAP1 KECCAK256 DUP1 SLOAD PUSH2 0x945 SWAP1 PUSH2 0x2146 JUMP JUMPDEST DUP1 PUSH1 0x1F ADD PUSH1 0x20 DUP1 SWAP2 DIV MUL PUSH1 0x20 ADD PUSH1 0x40 MLOAD SWAP1 DUP2 ADD PUSH1 0x40 MSTORE DUP1 SWAP3 SWAP2 SWAP1 DUP2 DUP2 MSTORE PUSH1 0x20 ADD DUP3 DUP1 SLOAD PUSH2 0x971 SWAP1 PUSH2 0x2146 JUMP JUMPDEST DUP1 ISZERO PUSH2 0x9BE JUMPI DUP1 PUSH1 0x1F LT PUSH2 0x993 JUMPI PUSH2 0x100 DUP1 DUP4 SLOAD DIV MUL DUP4 MSTORE SWAP2 PUSH1 0x20 ADD SWAP2 PUSH2 0x9BE JUMP JUMPDEST DUP3 ADD SWAP2 SWAP1 PUSH1 0x0 MSTORE PUSH1 0x20 PUSH1 0x0 KECCAK256 SWAP1 JUMPDEST DUP2 SLOAD DUP2 MSTORE SWAP1 PUSH1 0x1 ADD SWAP1 PUSH1 0x20 ADD DUP1 DUP4 GT PUSH2 0x9A1 JUMPI DUP3 SWAP1 SUB PUSH1 0x1F AND DUP3 ADD SWAP2 JUMPDEST POP POP POP POP POP DUP2 JUMP JUMPDEST PUSH1 0x2 PUSH1 0x20 MSTORE PUSH1 0x0 SWAP1 DUP2 MSTORE PUSH1 0x40 SWAP1 KECCAK256 DUP1 SLOAD DUP2 SWAP1 PUSH2 0x9E1 SWAP1 PUSH2 0x2146 JUMP JUMPDEST DUP1 PUSH1 0x1F ADD PUSH1 0x20 DUP1 SWAP2 DIV MUL PUSH1 0x20 ADD PUSH1 0x40 MLOAD SWAP1 DUP2 ADD PUSH1 0x40 MSTORE DUP1 SWAP3 SWAP2 SWAP1 DUP2 DUP2 MSTORE PUSH1 0x20 ADD DUP3 DUP1 SLOAD PUSH2 0xA0D SWAP1 PUSH2 0x2146 JUMP JUMPDEST DUP1 ISZERO PUSH2 0xA5A JUMPI DUP1 PUSH1 0x1F LT PUSH2 0xA2F JUMPI PUSH2 0x100 DUP1 DUP4 SLOAD DIV MUL DUP4 MSTORE SWAP2 PUSH1 0x20 ADD SWAP2 PUSH2 0xA5A JUMP JUMPDEST DUP3 ADD SWAP2 SWAP1 PUSH1 0x0 MSTORE PUSH1 0x20 PUSH1 0x0 KECCAK256 SWAP1 JUMPDEST DUP2 SLOAD DUP2 MSTORE SWAP1 PUSH1 0x1 ADD SWAP1 PUSH1 0x20 ADD DUP1 DUP4 GT PUSH2 0xA3D JUMPI DUP3 SWAP1 SUB PUSH1 0x1F AND DUP3 ADD SWAP2 JUMPDEST POP POP POP POP POP SWAP1 DUP1 PUSH1 0x4 ADD SLOAD SWAP1 POP DUP3 JUMP JUMPDEST CALLER PUSH1 0x0 SWAP1 DUP2 MSTORE PUSH1 0x3 PUSH1 0x20 MSTORE PUSH1 0x40 SWAP1 KECCAK256 SLOAD PUSH1 0xFF AND PUSH2 0xAB3 JUMPI PUSH1 0x40 MLOAD PUSH32 0xEE90C46800000000000000000000000000000000000000000000000000000000 DUP2 MSTORE PUSH1 0x4 ADD PUSH1 0x40 MLOAD DUP1 SWAP2 SUB SWAP1 REVERT JUMPDEST PUSH1 0x0 JUMPDEST DUP4 DUP2 LT ISZERO PUSH2 0xB9F JUMPI DUP3 DUP3 DUP3 DUP2 DUP2 LT PUSH2 0xAD0 JUMPI PUSH2 0xAD0 PUSH2 0x2067 JUMP JUMPDEST SWAP1 POP PUSH1 0x20 MUL DUP2 ADD SWAP1 PUSH2 0xAE2 SWAP2 SWAP1 PUSH2 0x20E1 JUMP JUMPDEST PUSH1 0x4 PUSH1 0x0 DUP9 DUP9 DUP7 DUP2 DUP2 LT PUSH2 0xAF8 JUMPI PUSH2 0xAF8 PUSH2 0x2067 JUMP JUMPDEST SWAP1 POP PUSH1 0x20 MUL ADD CALLDATALOAD DUP2 MSTORE PUSH1 0x20 ADD SWAP1 DUP2 MSTORE PUSH1 0x20 ADD PUSH1 0x0 KECCAK256 SWAP2 DUP3 PUSH2 0xB1A SWAP3 SWAP2 SWAP1 PUSH2 0x21EB JUMP JUMPDEST POP DUP5 DUP5 DUP3 DUP2 DUP2 LT PUSH2 0xB2D JUMPI PUSH2 0xB2D PUSH2 0x2067 JUMP JUMPDEST SWAP1 POP PUSH1 0x20 MUL ADD CALLDATALOAD PUSH32 0x88C3FF32D649F190A2E1493FE9113AA0F0304E3A9C827940AC9C76B84EDBF72D DUP5 DUP5 DUP5 DUP2 DUP2 LT PUSH2 0xB67 JUMPI PUSH2 0xB67 PUSH2 0x2067 JUMP JUMPDEST SWAP1 POP PUSH1 0x20 MUL DUP2 ADD SWAP1 PUSH2 0xB79 SWAP2 SWAP1 PUSH2 0x20E1 JUMP JUMPDEST PUSH1 0x40 MLOAD PUSH2 0xB87 SWAP3 SWAP2 SWAP1 PUSH2 0x24C8 JUMP JUMPDEST PUSH1 0x40 MLOAD DUP1 SWAP2 SUB SWAP1 LOG2 PUSH2 0xB98 DUP2 PUSH2 0x20A9 JUMP JUMPDEST SWAP1 POP PUSH2 0xAB6 JUMP JUMPDEST POP POP POP POP POP JUMP JUMPDEST PUSH1 0x0 DUP3 DUP3 DUP6 PUSH1 0x40 MLOAD PUSH1 0x20 ADD PUSH2 0xBBD SWAP4 SWAP3 SWAP2 SWAP1 PUSH2 0x2515 JUMP JUMPDEST PUSH1 0x40 DUP1 MLOAD PUSH32 0xFFFFFFFFFFFFFFFFFFFFFFFFFFFFFFFFFFFFFFFFFFFFFFFFFFFFFFFFFFFFFFE0 DUP2 DUP5 SUB ADD DUP2 MSTORE SWAP2 SWAP1 MSTORE DUP1 MLOAD PUSH1 0x20 SWAP1 SWAP2 ADD KECCAK256 SWAP5 SWAP4 POP POP POP POP JUMP JUMPDEST PUSH2 0xC03 PUSH2 0x1155 JUMP JUMPDEST PUSH20 0xFFFFFFFFFFFFFFFFFFFFFFFFFFFFFFFFFFFFFFFF DUP2 AND PUSH2 0xC58 JUMPI PUSH1 0x40 MLOAD PUSH32 0x1E4FBDF700000000000000000000000000000000000000000000000000000000 DUP2 MSTORE PUSH1 0x0 PUSH1 0x4 DUP3 ADD MSTORE PUSH1 0x24 ADD JUMPDEST PUSH1 0x40 MLOAD DUP1 SWAP2 SUB SWAP1 REVERT JUMPDEST PUSH2 0xC61 DUP2 PUSH2 0x1656 JUMP JUMPDEST POP JUMP JUMPDEST PUSH2 0xC6C PUSH2 0x1155 JUMP JUMPDEST PUSH1 0x0 JUMPDEST DUP2 DUP2 LT ISZERO PUSH2 0xD5D JUMPI PUSH1 0x3 PUSH1 0x0 DUP5 DUP5 DUP5 DUP2 DUP2 LT PUSH2 0xC8D JUMPI PUSH2 0xC8D PUSH2 0x2067 JUMP JUMPDEST SWAP1 POP PUSH1 0x20 MUL ADD PUSH1 0x20 DUP2 ADD SWAP1 PUSH2 0xCA2 SWAP2 SWAP1 PUSH2 0x1FAD JUMP JUMPDEST PUSH20 0xFFFFFFFFFFFFFFFFFFFFFFFFFFFFFFFFFFFFFFFF AND DUP2 MSTORE PUSH1 0x20 DUP2 ADD SWAP2 SWAP1 SWAP2 MSTORE PUSH1 0x40 ADD PUSH1 0x0 SWAP1 DUP2 KECCAK256 SLOAD PUSH1 0xFF AND ISZERO SWAP1 PUSH1 0x3 SWAP1 DUP6 DUP6 DUP6 DUP2 DUP2 LT PUSH2 0xCE5 JUMPI PUSH2 0xCE5 PUSH2 0x2067 JUMP JUMPDEST SWAP1 POP PUSH1 0x20 MUL ADD PUSH1 0x20 DUP2 ADD SWAP1 PUSH2 0xCFA SWAP2 SWAP1 PUSH2 0x1FAD JUMP JUMPDEST PUSH20 0xFFFFFFFFFFFFFFFFFFFFFFFFFFFFFFFFFFFFFFFF AND DUP2 MSTORE PUSH1 0x20 DUP2 ADD SWAP2 SWAP1 SWAP2 MSTORE PUSH1 0x40 ADD PUSH1 0x0 KECCAK256 DUP1 SLOAD PUSH32 0xFFFFFFFFFFFFFFFFFFFFFFFFFFFFFFFFFFFFFFFFFFFFFFFFFFFFFFFFFFFFFF00 AND SWAP2 ISZERO ISZERO SWAP2 SWAP1 SWAP2 OR SWAP1 SSTORE PUSH2 0xD56 DUP2 PUSH2 0x20A9 JUMP JUMPDEST SWAP1 POP PUSH2 0xC6F JUMP JUMPDEST POP POP POP JUMP JUMPDEST PUSH1 0x0 JUMPDEST DUP6 DUP2 LT ISZERO PUSH2 0x114A JUMPI PUSH1 0x0 PUSH2 0xE4A PUSH1 0x4 PUSH1 0x0 DUP13 DUP13 DUP7 DUP2 DUP2 LT PUSH2 0xD88 JUMPI PUSH2 0xD88 PUSH2 0x2067 JUMP JUMPDEST SWAP1 POP PUSH1 0x20 MUL ADD CALLDATALOAD DUP2 MSTORE PUSH1 0x20 ADD SWAP1 DUP2 MSTORE PUSH1 0x20 ADD PUSH1 0x0 KECCAK256 DUP1 SLOAD PUSH2 0xDA8 SWAP1 PUSH2 0x2146 JUMP JUMPDEST DUP1 PUSH1 0x1F ADD PUSH1 0x20 DUP1 SWAP2 DIV MUL PUSH1 0x20 ADD PUSH1 0x40 MLOAD SWAP1 DUP2 ADD PUSH1 0x40 MSTORE DUP1 SWAP3 SWAP2 SWAP1 DUP2 DUP2 MSTORE PUSH1 0x20 ADD DUP3 DUP1 SLOAD PUSH2 0xDD4 SWAP1 PUSH2 0x2146 JUMP JUMPDEST DUP1 ISZERO PUSH2 0xE21 JUMPI DUP1 PUSH1 0x1F LT PUSH2 0xDF6 JUMPI PUSH2 0x100 DUP1 DUP4 SLOAD DIV MUL DUP4 MSTORE SWAP2 PUSH1 0x20 ADD SWAP2 PUSH2 0xE21 JUMP JUMPDEST DUP3 ADD SWAP2 SWAP1 PUSH1 0x0 MSTORE PUSH1 0x20 PUSH1 0x0 KECCAK256 SWAP1 JUMPDEST DUP2 SLOAD DUP2 MSTORE SWAP1 PUSH1 0x1 ADD SWAP1 PUSH1 0x20 ADD DUP1 DUP4 GT PUSH2 0xE04 JUMPI DUP3 SWAP1 SUB PUSH1 0x1F AND DUP3 ADD SWAP2 JUMPDEST POP POP POP POP POP DUP8 DUP8 DUP6 DUP2 DUP2 LT PUSH2 0xE38 JUMPI PUSH2 0xE38 PUSH2 0x2067 JUMP JUMPDEST SWAP1 POP PUSH1 0x20 MUL DUP2 ADD SWAP1 PUSH2 0x2AB SWAP2 SWAP1 PUSH2 0x20E1 JUMP JUMPDEST SWAP1 POP PUSH1 0x0 PUSH1 0x2 PUSH1 0x0 DUP11 DUP11 DUP7 DUP2 DUP2 LT PUSH2 0xE64 JUMPI PUSH2 0xE64 PUSH2 0x2067 JUMP JUMPDEST SWAP1 POP PUSH1 0x20 MUL ADD CALLDATALOAD DUP2 MSTORE PUSH1 0x20 ADD SWAP1 DUP2 MSTORE PUSH1 0x20 ADD PUSH1 0x0 KECCAK256 PUSH1 0x40 MLOAD DUP1 PUSH1 0xA0 ADD PUSH1 0x40 MSTORE SWAP1 DUP2 PUSH1 0x0 DUP3 ADD DUP1 SLOAD PUSH2 0xE94 SWAP1 PUSH2 0x2146 JUMP JUMPDEST DUP1 PUSH1 0x1F ADD PUSH1 0x20 DUP1 SWAP2 DIV MUL PUSH1 0x20 ADD PUSH1 0x40 MLOAD SWAP1 DUP2 ADD PUSH1 0x40 MSTORE DUP1 SWAP3 SWAP2 SWAP1 DUP2 DUP2 MSTORE PUSH1 0x20 ADD DUP3 DUP1 SLOAD PUSH2 0xEC0 SWAP1 PUSH2 0x2146 JUMP JUMPDEST DUP1 ISZERO PUSH2 0xF0D JUMPI DUP1 PUSH1 0x1F LT PUSH2 0xEE2 JUMPI PUSH2 0x100 DUP1 DUP4 SLOAD DIV MUL DUP4 MSTORE SWAP2 PUSH1 0x20 ADD SWAP2 PUSH2 0xF0D JUMP JUMPDEST DUP3 ADD SWAP2 SWAP1 PUSH1 0x0 MSTORE PUSH1 0x20 PUSH1 0x0 KECCAK256 SWAP1 JUMPDEST DUP2 SLOAD DUP2 MSTORE SWAP1 PUSH1 0x1 ADD SWAP1 PUSH1 0x20 ADD DUP1 DUP4 GT PUSH2 0xEF0 JUMPI DUP3 SWAP1 SUB PUSH1 0x1F AND DUP3 ADD SWAP2 JUMPDEST POP POP POP POP POP DUP2 MSTORE PUSH1 0x20 ADD PUSH1 0x1 DUP3 ADD DUP1 SLOAD DUP1 PUSH1 0x20 MUL PUSH1 0x20 ADD PUSH1 0x40 MLOAD SWAP1 DUP2 ADD PUSH1 0x40 MSTORE DUP1 SWAP3 SWAP2 SWAP1 DUP2 DUP2 MSTORE PUSH1 0x20 ADD DUP3 DUP1 SLOAD DUP1 ISZERO PUSH2 0xF65 JUMPI PUSH1 0x20 MUL DUP3 ADD SWAP2 SWAP1 PUSH1 0x0 MSTORE PUSH1 0x20 PUSH1 0x0 KECCAK256 SWAP1 JUMPDEST DUP2 SLOAD DUP2 MSTORE PUSH1 0x20 ADD SWAP1 PUSH1 0x1 ADD SWAP1 DUP1 DUP4 GT PUSH2 0xF51 JUMPI JUMPDEST POP POP POP POP POP DUP2 MSTORE PUSH1 0x20 ADD PUSH1 0x2 DUP3 ADD DUP1 SLOAD DUP1 PUSH1 0x20 MUL PUSH1 0x20 ADD PUSH1 0x40 MLOAD SWAP1 DUP2 ADD PUSH1 0x40 MSTORE DUP1 SWAP3 SWAP2 SWAP1 DUP2 DUP2 MSTORE PUSH1 0x20 ADD DUP3 DUP1 SLOAD DUP1 ISZERO PUSH2 0xFBD JUMPI PUSH1 0x20 MUL DUP3 ADD SWAP2 SWAP1 PUSH1 0x0 MSTORE PUSH1 0x20 PUSH1 0x0 KECCAK256 SWAP1 JUMPDEST DUP2 SLOAD DUP2 MSTORE PUSH1 0x20 ADD SWAP1 PUSH1 0x1 ADD SWAP1 DUP1 DUP4 GT PUSH2 0xFA9 JUMPI JUMPDEST POP POP POP POP POP DUP2 MSTORE PUSH1 0x20 ADD PUSH1 0x3 DUP3 ADD DUP1 SLOAD DUP1 PUSH1 0x20 MUL PUSH1 0x20 ADD PUSH1 0x40 MLOAD SWAP1 DUP2 ADD PUSH1 0x40 MSTORE DUP1 SWAP3 SWAP2 SWAP1 DUP2 DUP2 MSTORE PUSH1 0x20 ADD DUP3 DUP1 SLOAD DUP1 ISZERO PUSH2 0x1015 JUMPI PUSH1 0x20 MUL DUP3 ADD SWAP2 SWAP1 PUSH1 0x0 MSTORE PUSH1 0x20 PUSH1 0x0 KECCAK256 SWAP1 JUMPDEST DUP2 SLOAD DUP2 MSTORE PUSH1 0x20 ADD SWAP1 PUSH1 0x1 ADD SWAP1 DUP1 DUP4 GT PUSH2 0x1001 JUMPI JUMPDEST POP POP POP POP POP DUP2 MSTORE PUSH1 0x20 ADD PUSH1 0x4 DUP3 ADD SLOAD DUP2 MSTORE POP POP SWAP1 POP PUSH1 0x0 DUP2 PUSH1 0x40 ADD MLOAD PUSH1 0x1 DUP4 PUSH1 0x40 ADD MLOAD MLOAD PUSH2 0x1043 SWAP2 SWAP1 PUSH2 0x2054 JUMP JUMPDEST DUP2 MLOAD DUP2 LT PUSH2 0x1053 JUMPI PUSH2 0x1053 PUSH2 0x2067 JUMP JUMPDEST PUSH1 0x20 MUL PUSH1 0x20 ADD ADD MLOAD DUP4 PUSH2 0x1066 SWAP2 SWAP1 PUSH2 0x253C JUMP JUMPDEST SWAP1 POP PUSH1 0x0 PUSH2 0x1074 DUP4 DUP4 PUSH2 0x38C JUMP JUMPDEST SWAP1 POP PUSH2 0x1135 DUP12 DUP12 DUP8 DUP2 DUP2 LT PUSH2 0x108B JUMPI PUSH2 0x108B PUSH2 0x2067 JUMP JUMPDEST SWAP1 POP PUSH1 0x20 MUL ADD CALLDATALOAD DUP15 DUP15 DUP9 DUP2 DUP2 LT PUSH2 0x10A4 JUMPI PUSH2 0x10A4 PUSH2 0x2067 JUMP JUMPDEST SWAP1 POP PUSH1 0x20 MUL ADD CALLDATALOAD DUP7 DUP7 PUSH1 0x60 ADD MLOAD DUP6 DUP2 MLOAD DUP2 LT PUSH2 0x10C2 JUMPI PUSH2 0x10C2 PUSH2 0x2067 JUMP JUMPDEST PUSH1 0x20 MUL PUSH1 0x20 ADD ADD MLOAD DUP8 PUSH1 0x20 ADD MLOAD DUP7 DUP2 MLOAD DUP2 LT PUSH2 0x10E0 JUMPI PUSH2 0x10E0 PUSH2 0x2067 JUMP JUMPDEST PUSH1 0x20 MUL PUSH1 0x20 ADD ADD MLOAD DUP15 DUP15 DUP13 DUP2 DUP2 LT PUSH2 0x10FA JUMPI PUSH2 0x10FA PUSH2 0x2067 JUMP JUMPDEST SWAP1 POP PUSH1 0x20 MUL DUP2 ADD SWAP1 PUSH2 0x110C SWAP2 SWAP1 PUSH2 0x20E1 JUMP JUMPDEST DUP15 DUP15 DUP15 DUP2 DUP2 LT PUSH2 0x111E JUMPI PUSH2 0x111E PUSH2 0x2067 JUMP JUMPDEST SWAP1 POP PUSH1 0x20 MUL DUP2 ADD SWAP1 PUSH2 0x1130 SWAP2 SWAP1 PUSH2 0x20E1 JUMP JUMPDEST PUSH2 0x16CB JUMP JUMPDEST POP POP POP POP DUP1 PUSH2 0x1143 SWAP1 PUSH2 0x20A9 JUMP JUMPDEST SWAP1 POP PUSH2 0xD65 JUMP JUMPDEST POP POP POP POP POP POP POP POP POP JUMP JUMPDEST PUSH1 0x0 SLOAD PUSH20 0xFFFFFFFFFFFFFFFFFFFFFFFFFFFFFFFFFFFFFFFF AND CALLER EQ PUSH2 0x741 JUMPI PUSH1 0x40 MLOAD PUSH32 0x118CDAA700000000000000000000000000000000000000000000000000000000 DUP2 MSTORE CALLER PUSH1 0x4 DUP3 ADD MSTORE PUSH1 0x24 ADD PUSH2 0xC4F JUMP JUMPDEST PUSH1 0x0 JUMPDEST DUP8 DUP2 LT ISZERO PUSH2 0x1649 JUMPI PUSH1 0x0 PUSH2 0x11CE PUSH1 0x4 PUSH1 0x0 DUP15 DUP15 DUP7 DUP2 DUP2 LT PUSH2 0xD88 JUMPI PUSH2 0xD88 PUSH2 0x2067 JUMP JUMPDEST SWAP1 POP PUSH1 0x0 PUSH1 0x2 PUSH1 0x0 DUP13 DUP13 DUP7 DUP2 DUP2 LT PUSH2 0x11E8 JUMPI PUSH2 0x11E8 PUSH2 0x2067 JUMP JUMPDEST SWAP1 POP PUSH1 0x20 MUL ADD CALLDATALOAD DUP2 MSTORE PUSH1 0x20 ADD SWAP1 DUP2 MSTORE PUSH1 0x20 ADD PUSH1 0x0 KECCAK256 PUSH1 0x40 MLOAD DUP1 PUSH1 0xA0 ADD PUSH1 0x40 MSTORE SWAP1 DUP2 PUSH1 0x0 DUP3 ADD DUP1 SLOAD PUSH2 0x1218 SWAP1 PUSH2 0x2146 JUMP JUMPDEST DUP1 PUSH1 0x1F ADD PUSH1 0x20 DUP1 SWAP2 DIV MUL PUSH1 0x20 ADD PUSH1 0x40 MLOAD SWAP1 DUP2 ADD PUSH1 0x40 MSTORE DUP1 SWAP3 SWAP2 SWAP1 DUP2 DUP2 MSTORE PUSH1 0x20 ADD DUP3 DUP1 SLOAD PUSH2 0x1244 SWAP1 PUSH2 0x2146 JUMP JUMPDEST DUP1 ISZERO PUSH2 0x1291 JUMPI DUP1 PUSH1 0x1F LT PUSH2 0x1266 JUMPI PUSH2 0x100 DUP1 DUP4 SLOAD DIV MUL DUP4 MSTORE SWAP2 PUSH1 0x20 ADD SWAP2 PUSH2 0x1291 JUMP JUMPDEST DUP3 ADD SWAP2 SWAP1 PUSH1 0x0 MSTORE PUSH1 0x20 PUSH1 0x0 KECCAK256 SWAP1 JUMPDEST DUP2 SLOAD DUP2 MSTORE SWAP1 PUSH1 0x1 ADD SWAP1 PUSH1 0x20 ADD DUP1 DUP4 GT PUSH2 0x1274 JUMPI DUP3 SWAP1 SUB PUSH1 0x1F AND DUP3 ADD SWAP2 JUMPDEST POP POP POP POP POP DUP2 MSTORE PUSH1 0x20 ADD PUSH1 0x1 DUP3 ADD DUP1 SLOAD DUP1 PUSH1 0x20 MUL PUSH1 0x20 ADD PUSH1 0x40 MLOAD SWAP1 DUP2 ADD PUSH1 0x40 MSTORE DUP1 SWAP3 SWAP2 SWAP1 DUP2 DUP2 MSTORE PUSH1 0x20 ADD DUP3 DUP1 SLOAD DUP1 ISZERO PUSH2 0x12E9 JUMPI PUSH1 0x20 MUL DUP3 ADD SWAP2 SWAP1 PUSH1 0x0 MSTORE PUSH1 0x20 PUSH1 0x0 KECCAK256 SWAP1 JUMPDEST DUP2 SLOAD DUP2 MSTORE PUSH1 0x20 ADD SWAP1 PUSH1 0x1 ADD SWAP1 DUP1 DUP4 GT PUSH2 0x12D5 JUMPI JUMPDEST POP POP POP POP POP DUP2 MSTORE PUSH1 0x20 ADD PUSH1 0x2 DUP3 ADD DUP1 SLOAD DUP1 PUSH1 0x20 MUL PUSH1 0x20 ADD PUSH1 0x40 MLOAD SWAP1 DUP2 ADD PUSH1 0x40 MSTORE DUP1 SWAP3 SWAP2 SWAP1 DUP2 DUP2 MSTORE PUSH1 0x20 ADD DUP3 DUP1 SLOAD DUP1 ISZERO PUSH2 0x1341 JUMPI PUSH1 0x20 MUL DUP3 ADD SWAP2 SWAP1 PUSH1 0x0 MSTORE PUSH1 0x20 PUSH1 0x0 KECCAK256 SWAP1 JUMPDEST DUP2 SLOAD DUP2 MSTORE PUSH1 0x20 ADD SWAP1 PUSH1 0x1 ADD SWAP1 DUP1 DUP4 GT PUSH2 0x132D JUMPI JUMPDEST POP POP POP POP POP DUP2 MSTORE PUSH1 0x20 ADD PUSH1 0x3 DUP3 ADD DUP1 SLOAD DUP1 PUSH1 0x20 MUL PUSH1 0x20 ADD PUSH1 0x40 MLOAD SWAP1 DUP2 ADD PUSH1 0x40 MSTORE DUP1 SWAP3 SWAP2 SWAP1 DUP2 DUP2 MSTORE PUSH1 0x20 ADD DUP3 DUP1 SLOAD DUP1 ISZERO PUSH2 0x1399 JUMPI PUSH1 0x20 MUL DUP3 ADD SWAP2 SWAP1 PUSH1 0x0 MSTORE PUSH1 0x20 PUSH1 0x0 KECCAK256 SWAP1 JUMPDEST DUP2 SLOAD DUP2 MSTORE PUSH1 0x20 ADD SWAP1 PUSH1 0x1 ADD SWAP1 DUP1 DUP4 GT PUSH2 0x1385 JUMPI JUMPDEST POP POP POP POP POP DUP2 MSTORE PUSH1 0x20 ADD PUSH1 0x4 DUP3 ADD SLOAD DUP2 MSTORE POP POP SWAP1 POP PUSH1 0x0 DUP2 PUSH1 0x40 ADD MLOAD PUSH1 0x1 DUP4 PUSH1 0x40 ADD MLOAD MLOAD PUSH2 0x13C7 SWAP2 SWAP1 PUSH2 0x2054 JUMP JUMPDEST DUP2 MLOAD DUP2 LT PUSH2 0x13D7 JUMPI PUSH2 0x13D7 PUSH2 0x2067 JUMP JUMPDEST PUSH1 0x20 MUL PUSH1 0x20 ADD ADD MLOAD DUP4 PUSH2 0x13EA SWAP2 SWAP1 PUSH2 0x253C JUMP JUMPDEST SWAP1 POP PUSH1 0x0 PUSH2 0x13F8 DUP4 DUP4 PUSH2 0x38C JUMP JUMPDEST SWAP1 POP PUSH1 0x0 DUP16 DUP16 DUP8 DUP2 DUP2 LT PUSH2 0x140E JUMPI PUSH2 0x140E PUSH2 0x2067 JUMP JUMPDEST SWAP1 POP PUSH1 0x20 MUL ADD CALLDATALOAD SWAP1 POP DUP14 DUP14 DUP8 DUP2 DUP2 LT PUSH2 0x1429 JUMPI PUSH2 0x1429 PUSH2 0x2067 JUMP JUMPDEST PUSH1 0x1 DUP1 SLOAD PUSH1 0x0 SWAP1 DUP2 MSTORE PUSH1 0x5 PUSH1 0x20 SWAP1 DUP2 MSTORE PUSH1 0x40 DUP1 DUP4 KECCAK256 SWAP2 SWAP1 SWAP5 MUL SWAP6 SWAP1 SWAP6 ADD CALLDATALOAD SWAP5 DUP3 ADD SWAP5 SWAP1 SWAP5 SSTORE DUP1 SLOAD DUP5 MSTORE DUP2 DUP5 KECCAK256 DUP6 SWAP1 SSTORE SLOAD DUP4 MSTORE SWAP1 SWAP2 KECCAK256 PUSH1 0x2 ADD DUP7 SWAP1 SSTORE POP PUSH1 0x60 DUP5 ADD MLOAD DUP1 MLOAD DUP4 SWAP1 DUP2 LT PUSH2 0x147C JUMPI PUSH2 0x147C PUSH2 0x2067 JUMP JUMPDEST PUSH1 0x20 MUL PUSH1 0x20 ADD ADD MLOAD PUSH1 0x5 PUSH1 0x0 PUSH1 0x1 SLOAD DUP2 MSTORE PUSH1 0x20 ADD SWAP1 DUP2 MSTORE PUSH1 0x20 ADD PUSH1 0x0 KECCAK256 PUSH1 0x4 ADD DUP2 SWAP1 SSTORE POP DUP10 DUP10 DUP8 DUP2 DUP2 LT PUSH2 0x14B2 JUMPI PUSH2 0x14B2 PUSH2 0x2067 JUMP JUMPDEST SWAP1 POP PUSH1 0x20 MUL DUP2 ADD SWAP1 PUSH2 0x14C4 SWAP2 SWAP1 PUSH2 0x20E1 JUMP JUMPDEST PUSH1 0x1 SLOAD PUSH1 0x0 SWAP1 DUP2 MSTORE PUSH1 0x5 PUSH1 0x20 MSTORE PUSH1 0x40 SWAP1 KECCAK256 PUSH1 0x6 ADD SWAP2 PUSH2 0x14E4 SWAP2 SWAP1 DUP4 PUSH2 0x21EB JUMP JUMPDEST POP PUSH1 0x0 DUP2 DUP2 MSTORE PUSH1 0x4 PUSH1 0x20 SWAP1 DUP2 MSTORE PUSH1 0x40 DUP1 DUP4 KECCAK256 PUSH1 0x1 SLOAD DUP5 MSTORE PUSH1 0x5 SWAP3 DUP4 SWAP1 MSTORE SWAP3 KECCAK256 ADD SWAP1 PUSH2 0x150F SWAP1 DUP3 PUSH2 0x2577 JUMP JUMPDEST POP DUP12 DUP12 DUP8 DUP2 DUP2 LT PUSH2 0x1522 JUMPI PUSH2 0x1522 PUSH2 0x2067 JUMP JUMPDEST SWAP1 POP PUSH1 0x20 MUL ADD PUSH1 0x20 DUP2 ADD SWAP1 PUSH2 0x1537 SWAP2 SWAP1 PUSH2 0x26AE JUMP JUMPDEST PUSH1 0x1 SLOAD PUSH1 0x0 SWAP1 DUP2 MSTORE PUSH1 0x5 PUSH1 0x20 MSTORE PUSH1 0x40 SWAP1 KECCAK256 PUSH1 0x8 ADD DUP1 SLOAD PUSH32 0xFFFFFFFFFFFFFFFFFFFFFFFFFFFFFFFFFFFFFFFFFFFFFFFF0000000000000000 AND PUSH1 0xC0 SWAP3 SWAP1 SWAP3 SHR SWAP2 SWAP1 SWAP2 OR SWAP1 SSTORE DUP8 DUP8 DUP8 DUP2 DUP2 LT PUSH2 0x158D JUMPI PUSH2 0x158D PUSH2 0x2067 JUMP JUMPDEST SWAP1 POP PUSH1 0x20 MUL DUP2 ADD SWAP1 PUSH2 0x159F SWAP2 SWAP1 PUSH2 0x20E1 JUMP JUMPDEST PUSH1 0x1 SLOAD PUSH1 0x0 SWAP1 DUP2 MSTORE PUSH1 0x5 PUSH1 0x20 MSTORE PUSH1 0x40 SWAP1 KECCAK256 PUSH1 0x7 ADD SWAP2 PUSH2 0x15BF SWAP2 SWAP1 DUP4 PUSH2 0x21EB JUMP JUMPDEST POP PUSH1 0x1 DUP1 SLOAD PUSH1 0x0 SWAP1 DUP2 MSTORE PUSH1 0x5 PUSH1 0x20 DUP2 SWAP1 MSTORE PUSH1 0x40 DUP3 KECCAK256 PUSH1 0x3 ADD DUP6 SWAP1 SSTORE DUP3 SLOAD SWAP3 PUSH32 0xB292FC7CB2C7D4671D9CA0FF79C8B2DC70244607E39B4E5C70266421B91059C4 SWAP3 SWAP1 DUP5 SWAP1 DUP3 PUSH2 0x160C DUP4 PUSH2 0x20A9 JUMP JUMPDEST SWAP2 SWAP1 POP SSTORE DUP2 MSTORE PUSH1 0x20 ADD SWAP1 DUP2 MSTORE PUSH1 0x20 ADD PUSH1 0x0 KECCAK256 PUSH1 0x40 MLOAD PUSH2 0x162B SWAP2 SWAP1 PUSH2 0x278B JUMP JUMPDEST PUSH1 0x40 MLOAD DUP1 SWAP2 SUB SWAP1 LOG2 POP POP POP POP POP DUP1 PUSH2 0x1642 SWAP1 PUSH2 0x20A9 JUMP JUMPDEST SWAP1 POP PUSH2 0x11AB JUMP JUMPDEST POP POP POP POP POP POP POP POP POP POP POP JUMP JUMPDEST PUSH1 0x0 DUP1 SLOAD PUSH20 0xFFFFFFFFFFFFFFFFFFFFFFFFFFFFFFFFFFFFFFFF DUP4 DUP2 AND PUSH32 0xFFFFFFFFFFFFFFFFFFFFFFFF0000000000000000000000000000000000000000 DUP4 AND DUP2 OR DUP5 SSTORE PUSH1 0x40 MLOAD SWAP2 SWAP1 SWAP3 AND SWAP3 DUP4 SWAP2 PUSH32 0x8BE0079C531659141344CD1FD0A4F28419497F9722A3DAAFE3B4186F6B6457E0 SWAP2 SWAP1 LOG3 POP POP JUMP JUMPDEST PUSH1 0x1 DUP1 SLOAD PUSH1 0x0 SWAP1 DUP2 MSTORE PUSH1 0x5 PUSH1 0x20 MSTORE PUSH1 0x40 DUP1 DUP3 KECCAK256 DUP4 ADD DUP13 SWAP1 SSTORE DUP3 SLOAD DUP3 MSTORE DUP1 DUP3 KECCAK256 DUP12 SWAP1 SSTORE DUP3 SLOAD DUP3 MSTORE DUP1 DUP3 KECCAK256 PUSH1 0x2 ADD DUP11 SWAP1 SSTORE DUP3 SLOAD DUP3 MSTORE DUP1 DUP3 KECCAK256 PUSH1 0x4 ADD DUP10 SWAP1 SSTORE SWAP2 SLOAD DUP2 MSTORE KECCAK256 PUSH1 0x6 ADD PUSH2 0x171A DUP5 DUP7 DUP4 PUSH2 0x21EB JUMP JUMPDEST POP PUSH1 0x0 DUP9 DUP2 MSTORE PUSH1 0x4 PUSH1 0x20 SWAP1 DUP2 MSTORE PUSH1 0x40 DUP1 DUP4 KECCAK256 PUSH1 0x1 SLOAD DUP5 MSTORE PUSH1 0x5 SWAP3 DUP4 SWAP1 MSTORE SWAP3 KECCAK256 ADD SWAP1 PUSH2 0x1745 SWAP1 DUP3 PUSH2 0x2577 JUMP JUMPDEST POP PUSH1 0x1 SLOAD PUSH1 0x0 SWAP1 DUP2 MSTORE PUSH1 0x5 PUSH1 0x20 MSTORE PUSH1 0x40 SWAP1 KECCAK256 PUSH1 0x7 ADD PUSH2 0x1765 DUP3 DUP5 DUP4 PUSH2 0x21EB JUMP JUMPDEST POP PUSH1 0x1 DUP1 SLOAD PUSH1 0x0 SWAP1 DUP2 MSTORE PUSH1 0x5 PUSH1 0x20 DUP2 SWAP1 MSTORE PUSH1 0x40 DUP3 KECCAK256 PUSH1 0x3 ADD DUP9 SWAP1 SSTORE DUP3 SLOAD SWAP3 PUSH32 0xB292FC7CB2C7D4671D9CA0FF79C8B2DC70244607E39B4E5C70266421B91059C4 SWAP3 SWAP1 DUP5 SWAP1 DUP3 PUSH2 0x17B2 DUP4 PUSH2 0x20A9 JUMP JUMPDEST SWAP2 SWAP1 POP SSTORE DUP2 MSTORE PUSH1 0x20 ADD SWAP1 DUP2 MSTORE PUSH1 0x20 ADD PUSH1 0x0 KECCAK256 PUSH1 0x40 MLOAD PUSH2 0x17D1 SWAP2 SWAP1 PUSH2 0x278B JUMP JUMPDEST PUSH1 0x40 MLOAD DUP1 SWAP2 SUB SWAP1 LOG2 POP POP POP POP POP POP POP POP POP JUMP JUMPDEST PUSH1 0x0 DUP1 DUP4 PUSH1 0x1F DUP5 ADD SLT PUSH2 0x17F6 JUMPI PUSH1 0x0 DUP1 REVERT JUMPDEST POP DUP2 CALLDATALOAD PUSH8 0xFFFFFFFFFFFFFFFF DUP2 GT ISZERO PUSH2 0x180E JUMPI PUSH1 0x0 DUP1 REVERT JUMPDEST PUSH1 0x20 DUP4 ADD SWAP2 POP DUP4 PUSH1 0x20 DUP3 PUSH1 0x5 SHL DUP6 ADD ADD GT ISZERO PUSH2 0x1829 JUMPI PUSH1 0x0 DUP1 REVERT JUMPDEST SWAP3 POP SWAP3 SWAP1 POP JUMP JUMPDEST PUSH1 0x0 DUP1 PUSH1 0x0 DUP1 PUSH1 0x0 DUP1 PUSH1 0x0 DUP1 PUSH1 0x80 DUP10 DUP12 SUB SLT ISZERO PUSH2 0x184C JUMPI PUSH1 0x0 DUP1 REVERT JUMPDEST DUP9 CALLDATALOAD PUSH8 0xFFFFFFFFFFFFFFFF DUP1 DUP3 GT ISZERO PUSH2 0x1864 JUMPI PUSH1 0x0 DUP1 REVERT JUMPDEST PUSH2 0x1870 DUP13 DUP4 DUP14 ADD PUSH2 0x17E4 JUMP JUMPDEST SWAP1 SWAP11 POP SWAP9 POP PUSH1 0x20 DUP12 ADD CALLDATALOAD SWAP2 POP DUP1 DUP3 GT ISZERO PUSH2 0x1889 JUMPI PUSH1 0x0 DUP1 REVERT JUMPDEST PUSH2 0x1895 DUP13 DUP4 DUP14 ADD PUSH2 0x17E4 JUMP JUMPDEST SWAP1 SWAP9 POP SWAP7 POP PUSH1 0x40 DUP12 ADD CALLDATALOAD SWAP2 POP DUP1 DUP3 GT ISZERO PUSH2 0x18AE JUMPI PUSH1 0x0 DUP1 REVERT JUMPDEST PUSH2 0x18BA DUP13 DUP4 DUP14 ADD PUSH2 0x17E4 JUMP JUMPDEST SWAP1 SWAP7 POP SWAP5 POP PUSH1 0x60 DUP12 ADD CALLDATALOAD SWAP2 POP DUP1 DUP3 GT ISZERO PUSH2 0x18D3 JUMPI PUSH1 0x0 DUP1 REVERT JUMPDEST POP PUSH2 0x18E0 DUP12 DUP3 DUP13 ADD PUSH2 0x17E4 JUMP JUMPDEST SWAP10 SWAP13 SWAP9 SWAP12 POP SWAP7 SWAP10 POP SWAP5 SWAP8 SWAP4 SWAP7 SWAP3 SWAP6 SWAP5 POP POP POP JUMP JUMPDEST PUSH32 0x4E487B7100000000000000000000000000000000000000000000000000000000 PUSH1 0x0 MSTORE PUSH1 0x41 PUSH1 0x4 MSTORE PUSH1 0x24 PUSH1 0x0 REVERT JUMPDEST PUSH1 0x40 MLOAD PUSH1 0xA0 DUP2 ADD PUSH8 0xFFFFFFFFFFFFFFFF DUP2 GT DUP3 DUP3 LT OR ISZERO PUSH2 0x1946 JUMPI PUSH2 0x1946 PUSH2 0x18F4 JUMP JUMPDEST PUSH1 0x40 MSTORE SWAP1 JUMP JUMPDEST PUSH1 0x40 MLOAD PUSH1 0x1F DUP3 ADD PUSH32 0xFFFFFFFFFFFFFFFFFFFFFFFFFFFFFFFFFFFFFFFFFFFFFFFFFFFFFFFFFFFFFFE0 AND DUP2 ADD PUSH8 0xFFFFFFFFFFFFFFFF DUP2 GT DUP3 DUP3 LT OR ISZERO PUSH2 0x1993 JUMPI PUSH2 0x1993 PUSH2 0x18F4 JUMP JUMPDEST PUSH1 0x40 MSTORE SWAP2 SWAP1 POP JUMP JUMPDEST PUSH1 0x0 DUP3 PUSH1 0x1F DUP4 ADD SLT PUSH2 0x19AC JUMPI PUSH1 0x0 DUP1 REVERT JUMPDEST DUP2 CALLDATALOAD PUSH8 0xFFFFFFFFFFFFFFFF DUP2 GT ISZERO PUSH2 0x19C6 JUMPI PUSH2 0x19C6 PUSH2 0x18F4 JUMP JUMPDEST PUSH2 0x19F7 PUSH1 0x20 PUSH32 0xFFFFFFFFFFFFFFFFFFFFFFFFFFFFFFFFFFFFFFFFFFFFFFFFFFFFFFFFFFFFFFE0 PUSH1 0x1F DUP5 ADD AND ADD PUSH2 0x194C JUMP JUMPDEST DUP2 DUP2 MSTORE DUP5 PUSH1 0x20 DUP4 DUP7 ADD ADD GT ISZERO PUSH2 0x1A0C JUMPI PUSH1 0x0 DUP1 REVERT JUMPDEST DUP2 PUSH1 0x20 DUP6 ADD PUSH1 0x20 DUP4 ADD CALLDATACOPY PUSH1 0x0 SWAP2 DUP2 ADD PUSH1 0x20 ADD SWAP2 SWAP1 SWAP2 MSTORE SWAP4 SWAP3 POP POP POP JUMP JUMPDEST PUSH1 0x0 DUP3 PUSH1 0x1F DUP4 ADD SLT PUSH2 0x1A3A JUMPI PUSH1 0x0 DUP1 REVERT JUMPDEST DUP2 CALLDATALOAD PUSH1 0x20 PUSH8 0xFFFFFFFFFFFFFFFF DUP3 GT ISZERO PUSH2 0x1A56 JUMPI PUSH2 0x1A56 PUSH2 0x18F4 JUMP JUMPDEST DUP2 PUSH1 0x5 SHL PUSH2 0x1A65 DUP3 DUP3 ADD PUSH2 0x194C JUMP JUMPDEST SWAP3 DUP4 MSTORE DUP5 DUP2 ADD DUP3 ADD SWAP3 DUP3 DUP2 ADD SWAP1 DUP8 DUP6 GT ISZERO PUSH2 0x1A7F JUMPI PUSH1 0x0 DUP1 REVERT JUMPDEST DUP4 DUP8 ADD SWAP3 POP JUMPDEST DUP5 DUP4 LT ISZERO PUSH2 0x1A9E JUMPI DUP3 CALLDATALOAD DUP3 MSTORE SWAP2 DUP4 ADD SWAP2 SWAP1 DUP4 ADD SWAP1 PUSH2 0x1A85 JUMP JUMPDEST SWAP8 SWAP7 POP POP POP POP POP POP POP JUMP JUMPDEST PUSH1 0x0 DUP1 PUSH1 0x40 DUP4 DUP6 SUB SLT ISZERO PUSH2 0x1ABC JUMPI PUSH1 0x0 DUP1 REVERT JUMPDEST DUP3 CALLDATALOAD PUSH8 0xFFFFFFFFFFFFFFFF DUP1 DUP3 GT ISZERO PUSH2 0x1AD4 JUMPI PUSH1 0x0 DUP1 REVERT JUMPDEST SWAP1 DUP5 ADD SWAP1 PUSH1 0xA0 DUP3 DUP8 SUB SLT ISZERO PUSH2 0x1AE8 JUMPI PUSH1 0x0 DUP1 REVERT JUMPDEST PUSH2 0x1AF0 PUSH2 0x1923 JUMP JUMPDEST DUP3 CALLDATALOAD DUP3 DUP2 GT ISZERO PUSH2 0x1AFF JUMPI PUSH1 0x0 DUP1 REVERT JUMPDEST PUSH2 0x1B0B DUP9 DUP3 DUP7 ADD PUSH2 0x199B JUMP JUMPDEST DUP3 MSTORE POP PUSH1 0x20 DUP4 ADD CALLDATALOAD DUP3 DUP2 GT ISZERO PUSH2 0x1B20 JUMPI PUSH1 0x0 DUP1 REVERT JUMPDEST PUSH2 0x1B2C DUP9 DUP3 DUP7 ADD PUSH2 0x1A29 JUMP JUMPDEST PUSH1 0x20 DUP4 ADD MSTORE POP PUSH1 0x40 DUP4 ADD CALLDATALOAD DUP3 DUP2 GT ISZERO PUSH2 0x1B44 JUMPI PUSH1 0x0 DUP1 REVERT JUMPDEST PUSH2 0x1B50 DUP9 DUP3 DUP7 ADD PUSH2 0x1A29 JUMP JUMPDEST PUSH1 0x40 DUP4 ADD MSTORE POP PUSH1 0x60 DUP4 ADD CALLDATALOAD DUP3 DUP2 GT ISZERO PUSH2 0x1B68 JUMPI PUSH1 0x0 DUP1 REVERT JUMPDEST PUSH2 0x1B74 DUP9 DUP3 DUP7 ADD PUSH2 0x1A29 JUMP JUMPDEST PUSH1 0x60 DUP4 ADD MSTORE POP PUSH1 0x80 SWAP3 DUP4 ADD CALLDATALOAD SWAP3 DUP2 ADD SWAP3 SWAP1 SWAP3 MSTORE POP SWAP5 PUSH1 0x20 SWAP4 SWAP1 SWAP4 ADD CALLDATALOAD SWAP4 POP POP POP JUMP JUMPDEST PUSH1 0x0 PUSH1 0x20 DUP3 DUP5 SUB SLT ISZERO PUSH2 0x1BA8 JUMPI PUSH1 0x0 DUP1 REVERT JUMPDEST POP CALLDATALOAD SWAP2 SWAP1 POP JUMP JUMPDEST PUSH1 0x0 DUP2 MLOAD DUP1 DUP5 MSTORE PUSH1 0x20 DUP1 DUP6 ADD SWAP5 POP DUP1 DUP5 ADD PUSH1 0x0 JUMPDEST DUP4 DUP2 LT ISZERO PUSH2 0x1BDF JUMPI DUP2 MLOAD DUP8 MSTORE SWAP6 DUP3 ADD SWAP6 SWAP1 DUP3 ADD SWAP1 PUSH1 0x1 ADD PUSH2 0x1BC3 JUMP JUMPDEST POP SWAP5 SWAP6 SWAP5 POP POP POP POP POP JUMP JUMPDEST PUSH1 0x60 DUP2 MSTORE PUSH1 0x0 PUSH2 0x1BFD PUSH1 0x60 DUP4 ADD DUP7 PUSH2 0x1BAF JUMP JUMPDEST DUP3 DUP2 SUB PUSH1 0x20 DUP5 ADD MSTORE PUSH2 0x1C0F DUP2 DUP7 PUSH2 0x1BAF JUMP JUMPDEST SWAP1 POP DUP3 DUP2 SUB PUSH1 0x40 DUP5 ADD MSTORE PUSH2 0x1C23 DUP2 DUP6 PUSH2 0x1BAF JUMP JUMPDEST SWAP7 SWAP6 POP POP POP POP POP POP JUMP JUMPDEST PUSH1 0x0 DUP1 PUSH1 0x40 DUP4 DUP6 SUB SLT ISZERO PUSH2 0x1C40 JUMPI PUSH1 0x0 DUP1 REVERT JUMPDEST DUP3 CALLDATALOAD SWAP2 POP PUSH1 0x20 DUP4 ADD CALLDATALOAD PUSH8 0xFFFFFFFFFFFFFFFF DUP2 GT ISZERO PUSH2 0x1C5E JUMPI PUSH1 0x0 DUP1 REVERT JUMPDEST DUP4 ADD PUSH1 0xA0 DUP2 DUP7 SUB SLT ISZERO PUSH2 0x1C70 JUMPI PUSH1 0x0 DUP1 REVERT JUMPDEST DUP1 SWAP2 POP POP SWAP3 POP SWAP3 SWAP1 POP JUMP JUMPDEST PUSH1 0x0 DUP1 PUSH1 0x0 DUP1 PUSH1 0x0 DUP1 PUSH1 0x0 DUP1 PUSH1 0x0 DUP1 PUSH1 0xA0 DUP12 DUP14 SUB SLT ISZERO PUSH2 0x1C9A JUMPI PUSH1 0x0 DUP1 REVERT JUMPDEST DUP11 CALLDATALOAD PUSH8 0xFFFFFFFFFFFFFFFF DUP1 DUP3 GT ISZERO PUSH2 0x1CB2 JUMPI PUSH1 0x0 DUP1 REVERT JUMPDEST PUSH2 0x1CBE DUP15 DUP4 DUP16 ADD PUSH2 0x17E4 JUMP JUMPDEST SWAP1 SWAP13 POP SWAP11 POP PUSH1 0x20 DUP14 ADD CALLDATALOAD SWAP2 POP DUP1 DUP3 GT ISZERO PUSH2 0x1CD7 JUMPI PUSH1 0x0 DUP1 REVERT JUMPDEST PUSH2 0x1CE3 DUP15 DUP4 DUP16 ADD PUSH2 0x17E4 JUMP JUMPDEST SWAP1 SWAP11 POP SWAP9 POP PUSH1 0x40 DUP14 ADD CALLDATALOAD SWAP2 POP DUP1 DUP3 GT ISZERO PUSH2 0x1CFC JUMPI PUSH1 0x0 DUP1 REVERT JUMPDEST PUSH2 0x1D08 DUP15 DUP4 DUP16 ADD PUSH2 0x17E4 JUMP JUMPDEST SWAP1 SWAP9 POP SWAP7 POP PUSH1 0x60 DUP14 ADD CALLDATALOAD SWAP2 POP DUP1 DUP3 GT ISZERO PUSH2 0x1D21 JUMPI PUSH1 0x0 DUP1 REVERT JUMPDEST PUSH2 0x1D2D DUP15 DUP4 DUP16 ADD PUSH2 0x17E4 JUMP JUMPDEST SWAP1 SWAP7 POP SWAP5 POP PUSH1 0x80 DUP14 ADD CALLDATALOAD SWAP2 POP DUP1 DUP3 GT ISZERO PUSH2 0x1D46 JUMPI PUSH1 0x0 DUP1 REVERT JUMPDEST POP PUSH2 0x1D53 DUP14 DUP3 DUP15 ADD PUSH2 0x17E4 JUMP JUMPDEST SWAP2 POP DUP1 SWAP4 POP POP DUP1 SWAP2 POP POP SWAP3 SWAP6 SWAP9 SWAP12 SWAP2 SWAP5 SWAP8 SWAP11 POP SWAP3 SWAP6 SWAP9 POP JUMP JUMPDEST PUSH1 0x0 JUMPDEST DUP4 DUP2 LT ISZERO PUSH2 0x1D87 JUMPI DUP2 DUP2 ADD MLOAD DUP4 DUP3 ADD MSTORE PUSH1 0x20 ADD PUSH2 0x1D6F JUMP JUMPDEST POP POP PUSH1 0x0 SWAP2 ADD MSTORE JUMP JUMPDEST PUSH1 0x0 DUP2 MLOAD DUP1 DUP5 MSTORE PUSH2 0x1DA8 DUP2 PUSH1 0x20 DUP7 ADD PUSH1 0x20 DUP7 ADD PUSH2 0x1D6C JUMP JUMPDEST PUSH1 0x1F ADD PUSH32 0xFFFFFFFFFFFFFFFFFFFFFFFFFFFFFFFFFFFFFFFFFFFFFFFFFFFFFFFFFFFFFFE0 AND SWAP3 SWAP1 SWAP3 ADD PUSH1 0x20 ADD SWAP3 SWAP2 POP POP JUMP JUMPDEST PUSH1 0x0 PUSH2 0x120 DUP12 DUP4 MSTORE DUP11 PUSH1 0x20 DUP5 ADD MSTORE DUP10 PUSH1 0x40 DUP5 ADD MSTORE DUP9 PUSH1 0x60 DUP5 ADD MSTORE DUP8 PUSH1 0x80 DUP5 ADD MSTORE DUP1 PUSH1 0xA0 DUP5 ADD MSTORE PUSH2 0x1E0C DUP2 DUP5 ADD DUP9 PUSH2 0x1D90 JUMP JUMPDEST SWAP1 POP DUP3 DUP2 SUB PUSH1 0xC0 DUP5 ADD MSTORE PUSH2 0x1E20 DUP2 DUP8 PUSH2 0x1D90 JUMP JUMPDEST SWAP1 POP DUP3 DUP2 SUB PUSH1 0xE0 DUP5 ADD MSTORE PUSH2 0x1E34 DUP2 DUP7 PUSH2 0x1D90 JUMP JUMPDEST SWAP2 POP POP PUSH32 0xFFFFFFFFFFFFFFFF000000000000000000000000000000000000000000000000 DUP4 AND PUSH2 0x100 DUP4 ADD MSTORE SWAP11 SWAP10 POP POP POP POP POP POP POP POP POP POP JUMP JUMPDEST PUSH1 0x20 DUP2 MSTORE PUSH1 0x0 PUSH2 0x1E81 PUSH1 0x20 DUP4 ADD DUP5 PUSH2 0x1D90 JUMP JUMPDEST SWAP4 SWAP3 POP POP POP JUMP JUMPDEST PUSH1 0x40 DUP2 MSTORE PUSH1 0x0 PUSH2 0x1E9B PUSH1 0x40 DUP4 ADD DUP6 PUSH2 0x1D90 JUMP JUMPDEST SWAP1 POP DUP3 PUSH1 0x20 DUP4 ADD MSTORE SWAP4 SWAP3 POP POP POP JUMP JUMPDEST PUSH1 0x0 DUP1 PUSH1 0x0 DUP1 PUSH1 0x40 DUP6 DUP8 SUB SLT ISZERO PUSH2 0x1EC0 JUMPI PUSH1 0x0 DUP1 REVERT JUMPDEST DUP5 CALLDATALOAD PUSH8 0xFFFFFFFFFFFFFFFF DUP1 DUP3 GT ISZERO PUSH2 0x1ED8 JUMPI PUSH1 0x0 DUP1 REVERT JUMPDEST PUSH2 0x1EE4 DUP9 DUP4 DUP10 ADD PUSH2 0x17E4 JUMP JUMPDEST SWAP1 SWAP7 POP SWAP5 POP PUSH1 0x20 DUP8 ADD CALLDATALOAD SWAP2 POP DUP1 DUP3 GT ISZERO PUSH2 0x1EFD JUMPI PUSH1 0x0 DUP1 REVERT JUMPDEST POP PUSH2 0x1F0A DUP8 DUP3 DUP9 ADD PUSH2 0x17E4 JUMP JUMPDEST SWAP6 SWAP9 SWAP5 SWAP8 POP SWAP6 POP POP POP POP JUMP JUMPDEST PUSH1 0x0 DUP1 PUSH1 0x0 PUSH1 0x40 DUP5 DUP7 SUB SLT ISZERO PUSH2 0x1F2B JUMPI PUSH1 0x0 DUP1 REVERT JUMPDEST DUP4 CALLDATALOAD PUSH8 0xFFFFFFFFFFFFFFFF DUP1 DUP3 GT ISZERO PUSH2 0x1F43 JUMPI PUSH1 0x0 DUP1 REVERT JUMPDEST PUSH2 0x1F4F DUP8 DUP4 DUP9 ADD PUSH2 0x199B JUMP JUMPDEST SWAP5 POP PUSH1 0x20 DUP7 ADD CALLDATALOAD SWAP2 POP DUP1 DUP3 GT ISZERO PUSH2 0x1F65 JUMPI PUSH1 0x0 DUP1 REVERT JUMPDEST DUP2 DUP7 ADD SWAP2 POP DUP7 PUSH1 0x1F DUP4 ADD SLT PUSH2 0x1F79 JUMPI PUSH1 0x0 DUP1 REVERT JUMPDEST DUP2 CALLDATALOAD DUP2 DUP2 GT ISZERO PUSH2 0x1F88 JUMPI PUSH1 0x0 DUP1 REVERT JUMPDEST DUP8 PUSH1 0x20 DUP3 DUP6 ADD ADD GT ISZERO PUSH2 0x1F9A JUMPI PUSH1 0x0 DUP1 REVERT JUMPDEST PUSH1 0x20 DUP4 ADD SWAP5 POP DUP1 SWAP4 POP POP POP POP SWAP3 POP SWAP3 POP SWAP3 JUMP JUMPDEST PUSH1 0x0 PUSH1 0x20 DUP3 DUP5 SUB SLT ISZERO PUSH2 0x1FBF JUMPI PUSH1 0x0 DUP1 REVERT JUMPDEST DUP2 CALLDATALOAD PUSH20 0xFFFFFFFFFFFFFFFFFFFFFFFFFFFFFFFFFFFFFFFF DUP2 AND DUP2 EQ PUSH2 0x1E81 JUMPI PUSH1 0x0 DUP1 REVERT JUMPDEST PUSH1 0x0 DUP1 PUSH1 0x20 DUP4 DUP6 SUB SLT ISZERO PUSH2 0x1FF6 JUMPI PUSH1 0x0 DUP1 REVERT JUMPDEST DUP3 CALLDATALOAD PUSH8 0xFFFFFFFFFFFFFFFF DUP2 GT ISZERO PUSH2 0x200D JUMPI PUSH1 0x0 DUP1 REVERT JUMPDEST PUSH2 0x2019 DUP6 DUP3 DUP7 ADD PUSH2 0x17E4 JUMP JUMPDEST SWAP1 SWAP7 SWAP1 SWAP6 POP SWAP4 POP POP POP POP JUMP JUMPDEST PUSH32 0x4E487B7100000000000000000000000000000000000000000000000000000000 PUSH1 0x0 MSTORE PUSH1 0x11 PUSH1 0x4 MSTORE PUSH1 0x24 PUSH1 0x0 REVERT JUMPDEST DUP2 DUP2 SUB DUP2 DUP2 GT ISZERO PUSH2 0x44B JUMPI PUSH2 0x44B PUSH2 0x2025 JUMP JUMPDEST PUSH32 0x4E487B7100000000000000000000000000000000000000000000000000000000 PUSH1 0x0 MSTORE PUSH1 0x32 PUSH1 0x4 MSTORE PUSH1 0x24 PUSH1 0x0 REVERT JUMPDEST DUP1 DUP3 ADD DUP1 DUP3 GT ISZERO PUSH2 0x44B JUMPI PUSH2 0x44B PUSH2 0x2025 JUMP JUMPDEST PUSH1 0x0 PUSH32 0xFFFFFFFFFFFFFFFFFFFFFFFFFFFFFFFFFFFFFFFFFFFFFFFFFFFFFFFFFFFFFFFF DUP3 SUB PUSH2 0x20DA JUMPI PUSH2 0x20DA PUSH2 0x2025 JUMP JUMPDEST POP PUSH1 0x1 ADD SWAP1 JUMP JUMPDEST PUSH1 0x0 DUP1 DUP4 CALLDATALOAD PUSH32 0xFFFFFFFFFFFFFFFFFFFFFFFFFFFFFFFFFFFFFFFFFFFFFFFFFFFFFFFFFFFFFFE1 DUP5 CALLDATASIZE SUB ADD DUP2 SLT PUSH2 0x2116 JUMPI PUSH1 0x0 DUP1 REVERT JUMPDEST DUP4 ADD DUP1 CALLDATALOAD SWAP2 POP PUSH8 0xFFFFFFFFFFFFFFFF DUP3 GT ISZERO PUSH2 0x2131 JUMPI PUSH1 0x0 DUP1 REVERT JUMPDEST PUSH1 0x20 ADD SWAP2 POP CALLDATASIZE DUP2 SWAP1 SUB DUP3 SGT ISZERO PUSH2 0x1829 JUMPI PUSH1 0x0 DUP1 REVERT JUMPDEST PUSH1 0x1 DUP2 DUP2 SHR SWAP1 DUP3 AND DUP1 PUSH2 0x215A JUMPI PUSH1 0x7F DUP3 AND SWAP2 POP JUMPDEST PUSH1 0x20 DUP3 LT DUP2 SUB PUSH2 0x2193 JUMPI PUSH32 0x4E487B7100000000000000000000000000000000000000000000000000000000 PUSH1 0x0 MSTORE PUSH1 0x22 PUSH1 0x4 MSTORE PUSH1 0x24 PUSH1 0x0 REVERT JUMPDEST POP SWAP2 SWAP1 POP JUMP JUMPDEST JUMPDEST DUP2 DUP2 LT ISZERO PUSH2 0x21AE JUMPI PUSH1 0x0 DUP2 SSTORE PUSH1 0x1 ADD PUSH2 0x219A JUMP JUMPDEST POP POP JUMP JUMPDEST PUSH1 0x1F DUP3 GT ISZERO PUSH2 0xD5D JUMPI DUP1 PUSH1 0x0 MSTORE PUSH1 0x20 PUSH1 0x0 KECCAK256 PUSH1 0x1F DUP5 ADD PUSH1 0x5 SHR DUP2 ADD PUSH1 0x20 DUP6 LT ISZERO PUSH2 0x21D9 JUMPI POP DUP1 JUMPDEST PUSH2 0xB9F PUSH1 0x1F DUP6 ADD PUSH1 0x5 SHR DUP4 ADD DUP3 PUSH2 0x2199 JUMP JUMPDEST PUSH8 0xFFFFFFFFFFFFFFFF DUP4 GT ISZERO PUSH2 0x2203 JUMPI PUSH2 0x2203 PUSH2 0x18F4 JUMP JUMPDEST PUSH2 0x2217 DUP4 PUSH2 0x2211 DUP4 SLOAD PUSH2 0x2146 JUMP JUMPDEST DUP4 PUSH2 0x21B2 JUMP JUMPDEST PUSH1 0x0 PUSH1 0x1F DUP5 GT PUSH1 0x1 DUP2 EQ PUSH2 0x2269 JUMPI PUSH1 0x0 DUP6 ISZERO PUSH2 0x2233 JUMPI POP DUP4 DUP3 ADD CALLDATALOAD JUMPDEST PUSH32 0xFFFFFFFFFFFFFFFFFFFFFFFFFFFFFFFFFFFFFFFFFFFFFFFFFFFFFFFFFFFFFFFF PUSH1 0x3 DUP8 SWAP1 SHL SHR NOT AND PUSH1 0x1 DUP7 SWAP1 SHL OR DUP4 SSTORE PUSH2 0xB9F JUMP JUMPDEST PUSH1 0x0 DUP4 DUP2 MSTORE PUSH1 0x20 SWAP1 KECCAK256 PUSH32 0xFFFFFFFFFFFFFFFFFFFFFFFFFFFFFFFFFFFFFFFFFFFFFFFFFFFFFFFFFFFFFFE0 DUP7 AND SWAP1 DUP4 JUMPDEST DUP3 DUP2 LT ISZERO PUSH2 0x22B8 JUMPI DUP7 DUP6 ADD CALLDATALOAD DUP3 SSTORE PUSH1 0x20 SWAP5 DUP6 ADD SWAP5 PUSH1 0x1 SWAP1 SWAP3 ADD SWAP2 ADD PUSH2 0x2298 JUMP JUMPDEST POP DUP7 DUP3 LT ISZERO PUSH2 0x22F3 JUMPI PUSH32 0xFFFFFFFFFFFFFFFFFFFFFFFFFFFFFFFFFFFFFFFFFFFFFFFFFFFFFFFFFFFFFFFF PUSH1 0xF8 DUP9 PUSH1 0x3 SHL AND SHR NOT DUP5 DUP8 ADD CALLDATALOAD AND DUP2 SSTORE JUMPDEST POP POP PUSH1 0x1 DUP6 PUSH1 0x1 SHL ADD DUP4 SSTORE POP POP POP POP POP JUMP JUMPDEST PUSH1 0x0 DUP1 DUP4 CALLDATALOAD PUSH32 0xFFFFFFFFFFFFFFFFFFFFFFFFFFFFFFFFFFFFFFFFFFFFFFFFFFFFFFFFFFFFFFE1 DUP5 CALLDATASIZE SUB ADD DUP2 SLT PUSH2 0x233A JUMPI PUSH1 0x0 DUP1 REVERT JUMPDEST DUP4 ADD DUP1 CALLDATALOAD SWAP2 POP PUSH8 0xFFFFFFFFFFFFFFFF DUP3 GT ISZERO PUSH2 0x2355 JUMPI PUSH1 0x0 DUP1 REVERT JUMPDEST PUSH1 0x20 ADD SWAP2 POP PUSH1 0x5 DUP2 SWAP1 SHL CALLDATASIZE SUB DUP3 SGT ISZERO PUSH2 0x1829 JUMPI PUSH1 0x0 DUP1 REVERT JUMPDEST PUSH8 0xFFFFFFFFFFFFFFFF DUP4 GT ISZERO PUSH2 0x2385 JUMPI PUSH2 0x2385 PUSH2 0x18F4 JUMP JUMPDEST PUSH9 0x10000000000000000 DUP4 GT ISZERO PUSH2 0x239E JUMPI PUSH2 0x239E PUSH2 0x18F4 JUMP JUMPDEST DUP1 SLOAD DUP4 DUP3 SSTORE DUP1 DUP5 LT ISZERO PUSH2 0x23C4 JUMPI DUP2 PUSH1 0x0 MSTORE PUSH1 0x20 PUSH1 0x0 KECCAK256 PUSH2 0x23C2 DUP3 DUP3 ADD DUP7 DUP4 ADD PUSH2 0x2199 JUMP JUMPDEST POP JUMPDEST POP DUP2 DUP2 PUSH1 0x0 MSTORE PUSH1 0x20 DUP1 PUSH1 0x0 KECCAK256 PUSH1 0x0 JUMPDEST DUP7 DUP2 LT ISZERO PUSH2 0x23ED JUMPI DUP4 CALLDATALOAD DUP3 DUP3 ADD SSTORE SWAP3 DUP3 ADD SWAP3 PUSH1 0x1 ADD PUSH2 0x23D3 JUMP JUMPDEST POP POP POP POP POP POP POP JUMP JUMPDEST DUP2 CALLDATALOAD PUSH32 0xFFFFFFFFFFFFFFFFFFFFFFFFFFFFFFFFFFFFFFFFFFFFFFFFFFFFFFFFFFFFFFE1 DUP4 CALLDATASIZE SUB ADD DUP2 SLT PUSH2 0x2428 JUMPI PUSH1 0x0 DUP1 REVERT JUMPDEST DUP3 ADD DUP1 CALLDATALOAD PUSH8 0xFFFFFFFFFFFFFFFF DUP2 GT ISZERO PUSH2 0x2441 JUMPI PUSH1 0x0 DUP1 REVERT JUMPDEST PUSH1 0x20 DUP3 ADD SWAP2 POP DUP1 CALLDATASIZE SUB DUP3 SGT ISZERO PUSH2 0x2456 JUMPI PUSH1 0x0 DUP1 REVERT JUMPDEST PUSH2 0x2461 DUP2 DUP4 DUP6 PUSH2 0x21EB JUMP JUMPDEST POP POP PUSH2 0x2470 PUSH1 0x20 DUP4 ADD DUP4 PUSH2 0x2305 JUMP JUMPDEST PUSH2 0x247E DUP2 DUP4 PUSH1 0x1 DUP7 ADD PUSH2 0x236D JUMP JUMPDEST POP POP PUSH2 0x248D PUSH1 0x40 DUP4 ADD DUP4 PUSH2 0x2305 JUMP JUMPDEST PUSH2 0x249B DUP2 DUP4 PUSH1 0x2 DUP7 ADD PUSH2 0x236D JUMP JUMPDEST POP POP PUSH2 0x24AA PUSH1 0x60 DUP4 ADD DUP4 PUSH2 0x2305 JUMP JUMPDEST PUSH2 0x24B8 DUP2 DUP4 PUSH1 0x3 DUP7 ADD PUSH2 0x236D JUMP JUMPDEST POP POP PUSH1 0x80 DUP3 ADD CALLDATALOAD PUSH1 0x4 DUP3 ADD SSTORE POP POP JUMP JUMPDEST PUSH1 0x20 DUP2 MSTORE DUP2 PUSH1 0x20 DUP3 ADD MSTORE DUP2 DUP4 PUSH1 0x40 DUP4 ADD CALLDATACOPY PUSH1 0x0 DUP2 DUP4 ADD PUSH1 0x40 SWAP1 DUP2 ADD SWAP2 SWAP1 SWAP2 MSTORE PUSH1 0x1F SWAP1 SWAP3 ADD PUSH32 0xFFFFFFFFFFFFFFFFFFFFFFFFFFFFFFFFFFFFFFFFFFFFFFFFFFFFFFFFFFFFFFE0 AND ADD ADD SWAP2 SWAP1 POP JUMP JUMPDEST DUP3 DUP5 DUP3 CALLDATACOPY PUSH1 0x0 DUP4 DUP3 ADD PUSH1 0x0 DUP2 MSTORE DUP4 MLOAD PUSH2 0x2532 DUP2 DUP4 PUSH1 0x20 DUP9 ADD PUSH2 0x1D6C JUMP JUMPDEST ADD SWAP6 SWAP5 POP POP POP POP POP JUMP JUMPDEST PUSH1 0x0 DUP3 PUSH2 0x2572 JUMPI PUSH32 0x4E487B7100000000000000000000000000000000000000000000000000000000 PUSH1 0x0 MSTORE PUSH1 0x12 PUSH1 0x4 MSTORE PUSH1 0x24 PUSH1 0x0 REVERT JUMPDEST POP MOD SWAP1 JUMP JUMPDEST DUP2 DUP2 SUB PUSH2 0x2582 JUMPI POP POP JUMP JUMPDEST PUSH2 0x258C DUP3 SLOAD PUSH2 0x2146 JUMP JUMPDEST PUSH8 0xFFFFFFFFFFFFFFFF DUP2 GT ISZERO PUSH2 0x25A4 JUMPI PUSH2 0x25A4 PUSH2 0x18F4 JUMP JUMPDEST PUSH2 0x25B8 DUP2 PUSH2 0x25B2 DUP5 SLOAD PUSH2 0x2146 JUMP JUMPDEST DUP5 PUSH2 0x21B2 JUMP JUMPDEST PUSH1 0x0 PUSH1 0x1F DUP3 GT PUSH1 0x1 DUP2 EQ PUSH2 0x260A JUMPI PUSH1 0x0 DUP4 ISZERO PUSH2 0x25D4 JUMPI POP DUP5 DUP3 ADD SLOAD JUMPDEST PUSH32 0xFFFFFFFFFFFFFFFFFFFFFFFFFFFFFFFFFFFFFFFFFFFFFFFFFFFFFFFFFFFFFFFF PUSH1 0x3 DUP6 SWAP1 SHL SHR NOT AND PUSH1 0x1 DUP5 SWAP1 SHL OR DUP5 SSTORE PUSH2 0xB9F JUMP JUMPDEST PUSH1 0x0 DUP6 DUP2 MSTORE PUSH1 0x20 SWAP1 KECCAK256 PUSH32 0xFFFFFFFFFFFFFFFFFFFFFFFFFFFFFFFFFFFFFFFFFFFFFFFFFFFFFFFFFFFFFFE0 DUP5 AND SWAP1 PUSH1 0x0 DUP7 DUP2 MSTORE PUSH1 0x20 SWAP1 KECCAK256 DUP5 JUMPDEST DUP4 DUP2 LT ISZERO PUSH2 0x2662 JUMPI DUP3 DUP7 ADD SLOAD DUP3 SSTORE PUSH1 0x1 SWAP6 DUP7 ADD SWAP6 SWAP1 SWAP2 ADD SWAP1 PUSH1 0x20 ADD PUSH2 0x2642 JUMP JUMPDEST POP DUP6 DUP4 LT ISZERO PUSH2 0x269E JUMPI DUP2 DUP6 ADD SLOAD PUSH32 0xFFFFFFFFFFFFFFFFFFFFFFFFFFFFFFFFFFFFFFFFFFFFFFFFFFFFFFFFFFFFFFFF PUSH1 0x3 DUP9 SWAP1 SHL PUSH1 0xF8 AND SHR NOT AND DUP2 SSTORE JUMPDEST POP POP POP POP POP PUSH1 0x1 SWAP1 DUP2 SHL ADD SWAP1 SSTORE POP JUMP JUMPDEST PUSH1 0x0 PUSH1 0x20 DUP3 DUP5 SUB SLT ISZERO PUSH2 0x26C0 JUMPI PUSH1 0x0 DUP1 REVERT JUMPDEST DUP2 CALLDATALOAD PUSH32 0xFFFFFFFFFFFFFFFF000000000000000000000000000000000000000000000000 DUP2 AND DUP2 EQ PUSH2 0x1E81 JUMPI PUSH1 0x0 DUP1 REVERT JUMPDEST PUSH1 0x0 DUP2 SLOAD PUSH2 0x26FD DUP2 PUSH2 0x2146 JUMP JUMPDEST DUP1 DUP6 MSTORE PUSH1 0x20 PUSH1 0x1 DUP4 DUP2 AND DUP1 ISZERO PUSH2 0x271A JUMPI PUSH1 0x1 DUP2 EQ PUSH2 0x2752 JUMPI PUSH2 0x2780 JUMP JUMPDEST PUSH32 0xFFFFFFFFFFFFFFFFFFFFFFFFFFFFFFFFFFFFFFFFFFFFFFFFFFFFFFFFFFFFFF00 DUP6 AND DUP4 DUP10 ADD MSTORE DUP3 DUP5 ISZERO ISZERO PUSH1 0x5 SHL DUP10 ADD ADD SWAP6 POP PUSH2 0x2780 JUMP JUMPDEST DUP7 PUSH1 0x0 MSTORE DUP3 PUSH1 0x0 KECCAK256 PUSH1 0x0 JUMPDEST DUP6 DUP2 LT ISZERO PUSH2 0x2778 JUMPI DUP2 SLOAD DUP11 DUP3 ADD DUP7 ADD MSTORE SWAP1 DUP4 ADD SWAP1 DUP5 ADD PUSH2 0x275D JUMP JUMPDEST DUP10 ADD DUP5 ADD SWAP7 POP POP JUMPDEST POP POP POP POP POP SWAP3 SWAP2 POP POP JUMP JUMPDEST PUSH1 0x20 DUP2 MSTORE DUP2 SLOAD PUSH1 0x20 DUP3 ADD MSTORE PUSH1 0x1 DUP3 ADD SLOAD PUSH1 0x40 DUP3 ADD MSTORE PUSH1 0x2 DUP3 ADD SLOAD PUSH1 0x60 DUP3 ADD MSTORE PUSH1 0x3 DUP3 ADD SLOAD PUSH1 0x80 DUP3 ADD MSTORE PUSH1 0x4 DUP3 ADD SLOAD PUSH1 0xA0 DUP3 ADD MSTORE PUSH1 0x0 PUSH2 0x120 DUP1 PUSH1 0xC0 DUP5 ADD MSTORE PUSH2 0x27DA PUSH2 0x140 DUP5 ADD PUSH1 0x5 DUP7 ADD PUSH2 0x26F0 JUMP JUMPDEST PUSH32 0xFFFFFFFFFFFFFFFFFFFFFFFFFFFFFFFFFFFFFFFFFFFFFFFFFFFFFFFFFFFFFFE0 DUP1 DUP6 DUP4 SUB ADD PUSH1 0xE0 DUP7 ADD MSTORE PUSH2 0x2812 DUP3 PUSH1 0x6 DUP9 ADD PUSH2 0x26F0 JUMP JUMPDEST SWAP2 POP DUP1 DUP6 DUP4 SUB ADD PUSH2 0x100 DUP7 ADD MSTORE POP PUSH2 0x282D DUP2 PUSH1 0x7 DUP8 ADD PUSH2 0x26F0 JUMP JUMPDEST SWAP1 POP PUSH2 0x283D PUSH1 0x8 DUP7 ADD SLOAD PUSH1 0xC0 SHL SWAP1 JUMP JUMPDEST PUSH32 0xFFFFFFFFFFFFFFFF000000000000000000000000000000000000000000000000 AND SWAP2 SWAP1 SWAP4 ADD MSTORE POP SWAP2 SWAP1 POP JUMP INVALID LOG2 PUSH5 0x6970667358 0x22 SLT KECCAK256 SELFDESTRUCT CALLDATACOPY 0xC8 0x2B ORIGIN ADDMOD CALLCODE LOG3 0x2D MLOAD PUSH30 0x5BDA279EEA083AD9B938BEBD7DBDC1AD8DDD0C367F64736F6C6343000813 STOP CALLER "
        },
        "methodIdentifiers": {
          "batchValidateBattleOpens(uint256[],uint256[],string[],string[],bytes8[])": "5351c413",
          "batchValidateOpens(uint256[],uint256[],string[],string[])": "0530050c",
          "getItemWon((string,uint256[],uint256[],uint256[],uint256),uint256)": "0c2d8b28",
          "getOpeningArrays(uint256)": "31c128c0",
          "getPackArrays(uint256)": "70910899",
          "getRandomness(string,string)": "d248f5f5",
          "houseAddress()": "d7cee31e",
          "id()": "af640d0f",
          "openings(uint256)": "75e20f29",
          "owner()": "8da5cb5b",
          "packs(uint256)": "b84c1392",
          "renounceOwnership()": "715018a6",
          "setPack(uint256,(string,uint256[],uint256[],uint256[],uint256))": "4513b369",
          "setUserKeys(uint256[],string[])": "d119ad63",
          "setWhitelist(address[])": "f4217648",
          "transferOwnership(address)": "f2fde38b",
          "userIdToKey(uint256)": "7c688e81",
          "validators(address)": "fa52c7d8"
        }
      }
    }
  }
}