{
  "contracts/LootKingdom.sol": {
    "LootKingdom": {
      "abi": [
        {
          "inputs": [
            {
              "internalType": "address",
              "name": "_houseAddress",
              "type": "address"
            }
          ],
          "stateMutability": "nonpayable",
          "type": "constructor"
        },
        {
          "inputs": [],
          "name": "Forbidden",
          "type": "error"
        },
        {
          "inputs": [],
          "name": "NoWonItemFound",
          "type": "error"
        },
        {
          "inputs": [
            {
              "internalType": "address",
              "name": "owner",
              "type": "address"
            }
          ],
          "name": "OwnableInvalidOwner",
          "type": "error"
        },
        {
          "inputs": [
            {
              "internalType": "address",
              "name": "account",
              "type": "address"
            }
          ],
          "name": "OwnableUnauthorizedAccount",
          "type": "error"
        },
        {
          "anonymous": false,
          "inputs": [
            {
              "indexed": true,
              "internalType": "uint256",
              "name": "id",
              "type": "uint256"
            },
            {
              "components": [
                {
                  "internalType": "uint256",
                  "name": "userId",
                  "type": "uint256"
                },
                {
                  "internalType": "uint256",
                  "name": "packId",
                  "type": "uint256"
                },
                {
                  "internalType": "uint256",
                  "name": "randomness",
                  "type": "uint256"
                },
                {
                  "internalType": "uint256",
                  "name": "itemIdWon",
                  "type": "uint256"
                },
                {
                  "internalType": "uint256",
                  "name": "prize",
                  "type": "uint256"
                },
                {
                  "internalType": "string",
                  "name": "key",
                  "type": "string"
                },
                {
                  "internalType": "string",
                  "name": "hash",
                  "type": "string"
                },
                {
                  "internalType": "string",
                  "name": "purchaseReference",
                  "type": "string"
                },
                {
                  "internalType": "bytes8",
                  "name": "battlemode",
                  "type": "bytes8"
                },
                {
                  "internalType": "bool",
                  "name": "isVirtual",
                  "type": "bool"
                }
              ],
              "indexed": false,
              "internalType": "struct LootKingdom.Opening",
              "name": "opening",
              "type": "tuple"
            }
          ],
          "name": "NewOpening",
          "type": "event"
        },
        {
          "anonymous": false,
          "inputs": [
            {
              "indexed": true,
              "internalType": "uint256",
              "name": "id",
              "type": "uint256"
            },
            {
              "components": [
                {
                  "internalType": "uint256",
                  "name": "userId",
                  "type": "uint256"
                },
                {
                  "internalType": "uint256",
                  "name": "packId",
                  "type": "uint256"
                },
                {
                  "internalType": "uint256",
                  "name": "randomness",
                  "type": "uint256"
                },
                {
                  "internalType": "uint256",
                  "name": "itemIdWon",
                  "type": "uint256"
                },
                {
                  "internalType": "uint256",
                  "name": "prize",
                  "type": "uint256"
                },
                {
                  "internalType": "string",
                  "name": "key",
                  "type": "string"
                },
                {
                  "internalType": "string",
                  "name": "hash",
                  "type": "string"
                },
                {
                  "internalType": "string",
                  "name": "purchaseReference",
                  "type": "string"
                },
                {
                  "internalType": "bytes8",
                  "name": "battlemode",
                  "type": "bytes8"
                },
                {
                  "internalType": "bool",
                  "name": "isVirtual",
                  "type": "bool"
                }
              ],
              "indexed": false,
              "internalType": "struct LootKingdom.Opening",
              "name": "opening",
              "type": "tuple"
            }
          ],
          "name": "NewVirtualOpening",
          "type": "event"
        },
        {
          "anonymous": false,
          "inputs": [
            {
              "indexed": true,
              "internalType": "address",
              "name": "previousOwner",
              "type": "address"
            },
            {
              "indexed": true,
              "internalType": "address",
              "name": "newOwner",
              "type": "address"
            }
          ],
          "name": "OwnershipTransferred",
          "type": "event"
        },
        {
          "anonymous": false,
          "inputs": [
            {
              "indexed": true,
              "internalType": "uint256",
              "name": "userId",
              "type": "uint256"
            },
            {
              "indexed": false,
              "internalType": "string",
              "name": "updatedKey",
              "type": "string"
            }
          ],
          "name": "UserKeyUpdated",
          "type": "event"
        },
        {
          "inputs": [
            {
              "internalType": "string[]",
              "name": "purchaseReferences",
              "type": "string[]"
            },
            {
              "internalType": "bytes8[]",
              "name": "battlemodes",
              "type": "bytes8[]"
            },
            {
              "internalType": "uint256[]",
              "name": "userIds",
              "type": "uint256[]"
            },
            {
              "internalType": "uint256[]",
              "name": "packIds",
              "type": "uint256[]"
            },
            {
              "internalType": "string[]",
              "name": "blocksHash",
              "type": "string[]"
            }
          ],
          "name": "batchValidateBattleOpens",
          "outputs": [],
          "stateMutability": "nonpayable",
          "type": "function"
        },
        {
          "inputs": [
            {
              "internalType": "uint256[]",
              "name": "userIds",
              "type": "uint256[]"
            },
            {
              "internalType": "uint256[]",
              "name": "packIds",
              "type": "uint256[]"
            },
            {
              "internalType": "string[]",
              "name": "blocksHash",
              "type": "string[]"
            },
            {
              "internalType": "string[]",
              "name": "purchaseReferences",
              "type": "string[]"
            }
          ],
          "name": "batchValidateOpens",
          "outputs": [],
          "stateMutability": "nonpayable",
          "type": "function"
        },
        {
          "inputs": [
            {
              "internalType": "string[]",
              "name": "purchaseReferences",
              "type": "string[]"
            },
            {
              "internalType": "bytes8[]",
              "name": "battlemodes",
              "type": "bytes8[]"
            },
            {
              "internalType": "uint256[]",
              "name": "userIds",
              "type": "uint256[]"
            },
            {
              "internalType": "uint256[]",
              "name": "packIds",
              "type": "uint256[]"
            },
            {
              "internalType": "string[]",
              "name": "blocksHash",
              "type": "string[]"
            }
          ],
          "name": "batchValidateVirtualBattleOpens",
          "outputs": [],
          "stateMutability": "nonpayable",
          "type": "function"
        },
        {
          "inputs": [
            {
              "internalType": "uint256[]",
              "name": "userIds",
              "type": "uint256[]"
            },
            {
              "internalType": "uint256[]",
              "name": "packIds",
              "type": "uint256[]"
            },
            {
              "internalType": "string[]",
              "name": "blocksHash",
              "type": "string[]"
            },
            {
              "internalType": "string[]",
              "name": "purchaseReferences",
              "type": "string[]"
            }
          ],
          "name": "batchValidateVirtualOpens",
          "outputs": [],
          "stateMutability": "nonpayable",
          "type": "function"
        },
        {
          "inputs": [
            {
              "components": [
                {
                  "internalType": "string",
                  "name": "name",
                  "type": "string"
                },
                {
                  "internalType": "uint256[]",
                  "name": "ids",
                  "type": "uint256[]"
                },
                {
                  "internalType": "uint256[]",
                  "name": "chances",
                  "type": "uint256[]"
                },
                {
                  "internalType": "uint256[]",
                  "name": "prices",
                  "type": "uint256[]"
                },
                {
                  "internalType": "uint256",
                  "name": "price",
                  "type": "uint256"
                }
              ],
              "internalType": "struct LootKingdom.Pack",
              "name": "pack",
              "type": "tuple"
            },
            {
              "internalType": "uint256",
              "name": "chanceValue",
              "type": "uint256"
            }
          ],
          "name": "getItemWon",
          "outputs": [
            {
              "internalType": "uint256",
              "name": "",
              "type": "uint256"
            }
          ],
          "stateMutability": "pure",
          "type": "function"
        },
        {
          "inputs": [
            {
              "internalType": "uint256",
              "name": "openingId",
              "type": "uint256"
            }
          ],
          "name": "getOpeningArrays",
          "outputs": [
            {
              "internalType": "uint256[]",
              "name": "",
              "type": "uint256[]"
            },
            {
              "internalType": "uint256[]",
              "name": "",
              "type": "uint256[]"
            },
            {
              "internalType": "uint256[]",
              "name": "",
              "type": "uint256[]"
            }
          ],
          "stateMutability": "view",
          "type": "function"
        },
        {
          "inputs": [
            {
              "internalType": "uint256",
              "name": "packId",
              "type": "uint256"
            }
          ],
          "name": "getPackArrays",
          "outputs": [
            {
              "internalType": "uint256[]",
              "name": "",
              "type": "uint256[]"
            },
            {
              "internalType": "uint256[]",
              "name": "",
              "type": "uint256[]"
            },
            {
              "internalType": "uint256[]",
              "name": "",
              "type": "uint256[]"
            }
          ],
          "stateMutability": "view",
          "type": "function"
        },
        {
          "inputs": [
            {
              "internalType": "string",
              "name": "userKey",
              "type": "string"
            },
            {
              "internalType": "string",
              "name": "serverKey",
              "type": "string"
            }
          ],
          "name": "getRandomness",
          "outputs": [
            {
              "internalType": "uint256",
              "name": "",
              "type": "uint256"
            }
          ],
          "stateMutability": "pure",
          "type": "function"
        },
        {
          "inputs": [],
          "name": "houseAddress",
          "outputs": [
            {
              "internalType": "address",
              "name": "",
              "type": "address"
            }
          ],
          "stateMutability": "view",
          "type": "function"
        },
        {
          "inputs": [],
          "name": "id",
          "outputs": [
            {
              "internalType": "uint256",
              "name": "",
              "type": "uint256"
            }
          ],
          "stateMutability": "view",
          "type": "function"
        },
        {
          "inputs": [
            {
              "internalType": "uint256",
              "name": "",
              "type": "uint256"
            }
          ],
          "name": "openings",
          "outputs": [
            {
              "internalType": "uint256",
              "name": "userId",
              "type": "uint256"
            },
            {
              "internalType": "uint256",
              "name": "packId",
              "type": "uint256"
            },
            {
              "internalType": "uint256",
              "name": "randomness",
              "type": "uint256"
            },
            {
              "internalType": "uint256",
              "name": "itemIdWon",
              "type": "uint256"
            },
            {
              "internalType": "uint256",
              "name": "prize",
              "type": "uint256"
            },
            {
              "internalType": "string",
              "name": "key",
              "type": "string"
            },
            {
              "internalType": "string",
              "name": "hash",
              "type": "string"
            },
            {
              "internalType": "string",
              "name": "purchaseReference",
              "type": "string"
            },
            {
              "internalType": "bytes8",
              "name": "battlemode",
              "type": "bytes8"
            },
            {
              "internalType": "bool",
              "name": "isVirtual",
              "type": "bool"
            }
          ],
          "stateMutability": "view",
          "type": "function"
        },
        {
          "inputs": [],
          "name": "owner",
          "outputs": [
            {
              "internalType": "address",
              "name": "",
              "type": "address"
            }
          ],
          "stateMutability": "view",
          "type": "function"
        },
        {
          "inputs": [
            {
              "internalType": "uint256",
              "name": "",
              "type": "uint256"
            }
          ],
          "name": "packs",
          "outputs": [
            {
              "internalType": "string",
              "name": "name",
              "type": "string"
            },
            {
              "internalType": "uint256",
              "name": "price",
              "type": "uint256"
            }
          ],
          "stateMutability": "view",
          "type": "function"
        },
        {
          "inputs": [],
          "name": "renounceOwnership",
          "outputs": [],
          "stateMutability": "nonpayable",
          "type": "function"
        },
        {
          "inputs": [
            {
              "internalType": "uint256",
              "name": "packId",
              "type": "uint256"
            },
            {
              "components": [
                {
                  "internalType": "string",
                  "name": "name",
                  "type": "string"
                },
                {
                  "internalType": "uint256[]",
                  "name": "ids",
                  "type": "uint256[]"
                },
                {
                  "internalType": "uint256[]",
                  "name": "chances",
                  "type": "uint256[]"
                },
                {
                  "internalType": "uint256[]",
                  "name": "prices",
                  "type": "uint256[]"
                },
                {
                  "internalType": "uint256",
                  "name": "price",
                  "type": "uint256"
                }
              ],
              "internalType": "struct LootKingdom.Pack",
              "name": "pack",
              "type": "tuple"
            }
          ],
          "name": "setPack",
          "outputs": [],
          "stateMutability": "nonpayable",
          "type": "function"
        },
        {
          "inputs": [
            {
              "internalType": "uint256[]",
              "name": "userIds",
              "type": "uint256[]"
            },
            {
              "internalType": "string[]",
              "name": "updatedKeys",
              "type": "string[]"
            }
          ],
          "name": "setUserKeys",
          "outputs": [],
          "stateMutability": "nonpayable",
          "type": "function"
        },
        {
          "inputs": [
            {
              "internalType": "address[]",
              "name": "proposedValidators",
              "type": "address[]"
            }
          ],
          "name": "setWhitelist",
          "outputs": [],
          "stateMutability": "nonpayable",
          "type": "function"
        },
        {
          "inputs": [
            {
              "internalType": "address",
              "name": "newOwner",
              "type": "address"
            }
          ],
          "name": "transferOwnership",
          "outputs": [],
          "stateMutability": "nonpayable",
          "type": "function"
        },
        {
          "inputs": [
            {
              "internalType": "uint256",
              "name": "",
              "type": "uint256"
            }
          ],
          "name": "userIdToKey",
          "outputs": [
            {
              "internalType": "string",
              "name": "",
              "type": "string"
            }
          ],
          "stateMutability": "view",
          "type": "function"
        },
        {
          "inputs": [
            {
              "internalType": "address",
              "name": "",
              "type": "address"
            }
          ],
          "name": "validators",
          "outputs": [
            {
              "internalType": "bool",
              "name": "",
              "type": "bool"
            }
          ],
          "stateMutability": "view",
          "type": "function"
        }
      ],
      "evm": {
        "bytecode": {
          "linkReferences": {},
          "object": "60806040523462000030576200001e62000018620000d3565b62000156565b60405161260662000272823961260690f35b600080fd5b634e487b7160e01b600052604160045260246000fd5b90601f01601f191681019081106001600160401b038211176200006d57604052565b62000035565b906200008a6200008260405190565b92836200004b565b565b6001600160a01b031690565b90565b6001600160a01b038116036200003057565b905051906200008a826200009b565b9060208282031262000030576200009891620000ad565b620000986200287880380380620000ea8162000073565b928339810190620000bc565b62000098906200008c906001600160a01b031682565b6200009890620000f6565b62000098906200010c565b906200013662000098620001529262000117565b82546001600160a01b0319166001600160a01b03919091161790565b9055565b6200008a9062000166336200019c565b600662000122565b6200008c62000098620000989290565b62000098906200016e565b6001600160a01b03909116815260200190565b620001a860006200017e565b6001600160a01b0381166001600160a01b03831614620001ce57506200008a906200020f565b620001f490620001dd60405190565b631e4fbdf760e01b81529182916004830162000189565b0390fd5b62000098906200008c565b620000989054620001f8565b6200021b600062000203565b906200022981600062000122565b62000260620002597f8be0079c531659141344cd1fd0a4f28419497f9722a3daafe3b4186f6b6457e09362000117565b9162000117565b916200026b60405190565b600090a356fe610100604052600436101561001357600080fd5b60003560e01c80630530050c146101535780630c2d8b281461014e5780632754a4141461014957806331c128c0146101445780634513b3691461013f57806368f019e61461013a5780637091089914610135578063715018a61461013057806375e20f291461012b5780637c688e81146101265780638da5cb5b14610121578063af640d0f1461011c578063b84c139214610117578063d119ad6314610112578063d248f5f51461010d578063d253a92b14610108578063d7cee31e14610103578063f2fde38b146100fe578063f4217648146100f95763fa52c7d80361018857610ed8565b610e51565b610e13565b610dbb565b610d61565b610d45565b610cb0565b610c38565b610bda565b610b76565b610b36565b610a8f565b61076e565b610748565b610723565b61070a565b61069c565b6105d2565b6104f4565b610221565b909182601f830112156101885781359167ffffffffffffffff831161018857602001926020830284011161018857565b600080fd5b909160808284031261018857813567ffffffffffffffff811161018857836101b6918401610158565b929093602082013567ffffffffffffffff811161018857816101d9918401610158565b929093604082013567ffffffffffffffff811161018857836101fc918401610158565b929093606082013567ffffffffffffffff81116101885761021d9201610158565b9091565b346101885761024361023436600461018d565b96959095949194939293611a00565b604051005b0390f35b7f4e487b7100000000000000000000000000000000000000000000000000000000600052604160045260246000fd5b90601f017fffffffffffffffffffffffffffffffffffffffffffffffffffffffffffffffe016810190811067ffffffffffffffff8211176102bb57604052565b61024c565b906102d46102cd60405190565b928361027b565b565b67ffffffffffffffff81116102bb57602090601f017fffffffffffffffffffffffffffffffffffffffffffffffffffffffffffffffe0160190565b0190565b90826000939282370152565b90929192610336610331826102d6565b6102c0565b93818552602085019082840111610188576102d492610315565b9080601f830112156101885781602061036b93359101610321565b90565b67ffffffffffffffff81116102bb5760208091020190565b805b0361018857565b905035906102d482610386565b909291926103ac6103318261036e565b938185526020808601920283019281841161018857915b8383106103d05750505050565b602080916103de848661038f565b8152019201916103c3565b9080601f830112156101885781602061036b9335910161039c565b91909160a0818403126101885761041b60a06102c0565b92813567ffffffffffffffff81116101885781610439918401610350565b8452602082013567ffffffffffffffff8111610188578161045b9184016103e9565b6020850152604082013567ffffffffffffffff811161018857816104809184016103e9565b604085015260608201359067ffffffffffffffff8211610188576104a9816104b89385016103e9565b6060860152608080930161038f565b90830152565b91906040838203126101885782359067ffffffffffffffff8211610188576104eb8161036b938601610404565b9360200161038f565b346101885761024861051061050a3660046104be565b9061183b565b6040519182918290815260200190565b9060a08282031261018857813567ffffffffffffffff81116101885781610548918401610158565b929093602082013567ffffffffffffffff8111610188578361056b918401610158565b929093604082013567ffffffffffffffff8111610188578161058e918401610158565b929093606082013567ffffffffffffffff811161018857836105b1918401610158565b929093608082013567ffffffffffffffff81116101885761021d9201610158565b34610188576102436105e5366004610520565b98979097969196959295949394611932565b906020828203126101885761036b9161038f565b9061062b61062461061a845190565b8084529260200190565b9260200190565b9060005b81811061063c5750505090565b9091926106596106526001928651815260200190565b9460200190565b92910161062f565b9161068e9061068061036b95936060860190868203600088015261060b565b90848203602086015261060b565b91604081840391015261060b565b34610188576102486106b76106b23660046105f7565b61144a565b60405191939193849384610661565b908160a09103126101885790565b919091604081840312610188576106eb838261038f565b92602082013567ffffffffffffffff81116101885761036b92016106c6565b346101885761024361071d3660046106d4565b90611383565b3461018857610243610736366004610520565b9897909796919695929594939461197a565b34610188576102486106b761075e3660046105f7565b611406565b600091031261018857565b346101885761077e366004610763565b610243612489565b61036b61036b61036b9290565b9061079d90610786565b600052602052604060002090565b61036b9081565b61036b90546107ab565b7f4e487b7100000000000000000000000000000000000000000000000000000000600052602260045260246000fd5b906001600283049216801561080b575b602083101461080657565b6107bc565b91607f16916107fb565b80546000939291610832610828836107eb565b8085529360200190565b9160018116908115610884575060011461084b57505050565b61085e9192939450600052602060002090565b916000925b8184106108705750500190565b805484840152602090930192600101610863565b92949550505060ff1916825215156020020190565b9061036b91610815565b906102d46108bd926108b460405190565b93848092610899565b038361027b565b61036b9060401c5b60ff1690565b61036b90546108c4565b6108e7906005610793565b906108f1826107b2565b916108fe600182016107b2565b9161090b600283016107b2565b91610918600382016107b2565b91610925600483016107b2565b91610932600582016108a3565b9161093f600683016108a3565b9161094c600782016108a3565b9161036b600861095f8185015460c01b90565b93016108d2565b60005b8381106109795750506000910152565b8181015183820152602001610969565b6109aa6109b36020936103119361099e815190565b80835293849260200190565b95869101610966565b601f017fffffffffffffffffffffffffffffffffffffffffffffffffffffffffffffffe01690565b956101209791610a3f91610a32610a87986102d49d9f9e9c97610a5b99610a24610a2b9260408f610a20610a4d9d610a1961014084019c6000850152565b6020830152565b0152565b60608d0152565b60808b0152565b88820360a08a0152610989565b9086820360c0880152610989565b9084820360e0860152610989565b7fffffffffffffffff000000000000000000000000000000000000000000000000909716610100830152565b019015159052565b3461018857610248610aaa610aa53660046105f7565b6108dc565b96610ac09a989a96919695929594939460405190565b9a8b9a8b6109db565b7f4e487b7100000000000000000000000000000000000000000000000000000000600052600060045260246000fd5b90600010610b095761036b906108a3565b610ac9565b61036b90610b20600491600092610793565b610af8565b602080825261036b92910190610989565b3461018857610248610b51610b4c3660046105f7565b610b0e565b60405191829182610b25565b73ffffffffffffffffffffffffffffffffffffffff1690565b3461018857610b86366004610763565b610248610b916123c6565b6040519182918273ffffffffffffffffffffffffffffffffffffffff909116815260200190565b61036b916008021c81565b9061036b9154610bb8565b61036b60006001610bc3565b3461018857610bea366004610763565b610248610510610bce565b610c00906002610793565b9061036b6004610c0f846108a3565b93016107b2565b92916020610c336102d49360408701908782036000890152610989565b940152565b3461018857610c50610c4b3660046105f7565b610bf5565b90610248610c5d60405190565b92839283610c16565b909160408284031261018857813567ffffffffffffffff81116101885783610c8f918401610158565b929093602082013567ffffffffffffffff81116101885761021d9201610158565b3461018857610243610cc3366004610c66565b9291909161175e565b909182601f830112156101885781359167ffffffffffffffff831161018857602001926001830284011161018857565b91909160408184031261018857803567ffffffffffffffff81116101885783610d26918301610350565b92602082013567ffffffffffffffff81116101885761021d9201610ccc565b3461018857610248610510610d5b366004610cfc565b916117b7565b3461018857610243610d7436600461018d565b969590959491949392936119be565b61036b916008021c73ffffffffffffffffffffffffffffffffffffffff1690565b9061036b9154610d83565b61036b60006006610da4565b3461018857610dcb366004610763565b610248610b91610daf565b73ffffffffffffffffffffffffffffffffffffffff8116610388565b905035906102d482610dd6565b906020828203126101885761036b91610df2565b3461018857610243610e26366004610dff565b61253b565b9060208282031261018857813567ffffffffffffffff81116101885761021d9201610158565b3461018857610243610e64366004610e2b565b90611609565b610b5d61036b61036b9273ffffffffffffffffffffffffffffffffffffffff1690565b61036b90610e6a565b61036b90610e8d565b9061079d90610e96565b61036b916008021c6108cc565b9061036b9154610ea9565b61036b90610ed3600391600092610e9f565b610eb6565b3461018857610248610ef3610eee366004610dff565b610ec1565b60405191829182901515815260200190565b906102d491610f126123d0565b61136f565b9035907fffffffffffffffffffffffffffffffffffffffffffffffffffffffffffffffe13682900301821215610188570180359067ffffffffffffffff8211610188576020019136829003831361018857565b91906008610fa2910291610f9d7fffffffffffffffffffffffffffffffffffffffffffffffffffffffffffffffff841b90565b921b90565b9181191691161790565b9190610fbd61036b610fc593610786565b908354610f6a565b9055565b6102d491600091610fac565b818110610fe0575050565b80610fee6000600193610fc9565b01610fd5565b9190601f811161100357505050565b6110156102d493600052602060002090565b906020601f840181900483019310611037575b6020601f909101040190610fd5565b9091508190611028565b919067ffffffffffffffff82116102bb576110668261106085546107eb565b85610ff4565b600090601f83116001146110bf57610fc59291600091836110b4575b50507fffffffffffffffffffffffffffffffffffffffffffffffffffffffffffffffff600883021c1916906002021790565b013590503880611082565b601f198316916110d485600052602060002090565b92815b818110611130575091600293918560019694106110f8575b50505002019055565b01357fffffffffffffffffffffffffffffffffffffffffffffffffffffffffffffffff601f84166008021c19165b90553880806110ef565b919360206001819287870135815501950192016110d7565b906102d49291611041565b9035907fffffffffffffffffffffffffffffffffffffffffffffffffffffffffffffffe13682900301821215610188570180359067ffffffffffffffff82116101885760200191602082023603831361018857565b7f4e487b7100000000000000000000000000000000000000000000000000000000600052601160045260246000fd5b8181106111e2575050565b806111f06000600193610fc9565b016111d7565b909182811061120457505050565b6102d4929061121a905b92600052602060002090565b90810191016111d7565b906801000000000000000081116102bb57816112416102d4935490565b908281556111f6565b3561036b81610386565b9067ffffffffffffffff83116102bb5761127761120e60019261036b8686611224565b92049160005b83811061128a5750505050565b600190602061129b61036b8661124a565b940193818401550161127d565b906102d49291611254565b907fffffffffffffffffffffffffffffffffffffffffffffffffffffffffffffffff90610fa2565b906112eb61036b610fc592610786565b82546112b3565b6102d4919061135f906080906004906113158161130f8780610f17565b91611148565b61132f600182016113296020880188611153565b916112a8565b611343600282016113296040880188611153565b611357600382016113296060880188611153565b01920161124a565b906112db565b906102d4916112f2565b9061137e6102d4926002610793565b611365565b906102d491610f05565b9061139c61120e61061a845490565b9060005b8181106113ad5750505090565b9091926113d16113ca6001926113c2876107b2565b815260200190565b9460010190565b9291016113a0565b9061036b9161138d565b906102d46108bd926113f460405190565b938480926113d9565b61036b906113e3565b60029161036b61144461143e60036114376001611423888a610793565b0196886114308282610793565b0198610793565b01946113fd565b946113fd565b926113fd565b90600590600261145a8484610793565b600101611466906107b2565b6114709082610793565b600101928161147f8683610793565b60010161148b906107b2565b6114959082610793565b01946114a091610793565b6001016114ac906107b2565b6114b591610793565b600301916114c2906113fd565b926114cc906113fd565b9161036b906113fd565b906102d4916114e36123d0565b61159b565b7fffffffffffffffffffffffffffffffffffffffffffffffffffffffffffffffff81146115155760010190565b6111a8565b7f4e487b7100000000000000000000000000000000000000000000000000000000600052603260045260246000fd5b9190811015611559576020020190565b61151a565b3561036b81610dd6565b61036b906108cc565b61036b9054611568565b9060ff90610fa2565b9061159461036b610fc592151590565b825461157b565b919060005b81811015611603576115fe906115f960036115f46115df6115db6115d66115d06115cb888b8e611549565b61155e565b85610e9f565b611571565b1590565b916115ee6115cb86898c611549565b90610e9f565b611584565b6114e8565b6115a0565b50509050565b906102d4916114d6565b9291906116276115db6115d6336003610e9f565b611634576102d4936116a9565b6040517fee90c468000000000000000000000000000000000000000000000000000000008152600490fd5b0390fd5b9082101561155957602061021d9202810190610f17565b91906109b381611691816103119560209181520190565b8095610315565b602080825261036b9391019161167a565b92939260005b8281101561175657806116ed6116c9611751938988611663565b906116e860046116e26116dd878b8b611549565b61124a565b90610793565b611148565b6116fb6116dd828686611549565b611706828988611663565b6117337f88c3ff32d649f190a2e1493fe9113aa0f0304e3a9c827940ac9c76b84edbf72d93929392610786565b9261174961174060405190565b92839283611698565b0390a26114e8565b6116af565b505050509050565b906102d4939291611613565b90916103119083908093610315565b6103116117919260209261178b815190565b94859290565b93849101610966565b61036b93926117a89261176a565b90611779565b61036b90610786565b9061036b926117ef916117c8600090565b506117e36117d560405190565b94859360208501938461179a565b9081038252038261027b565b6118016117fa825190565b9160200190565b206117ae565b9190820391821161151557565b9061181d825190565b811015611559576020809102010190565b9190820180921161151557565b9060005b6040830180515161185e61036b60019261185884610786565b90611807565b8310156118d15761187a61036b611876858551611814565b5190565b841191826118a1575b505061189b576118946040916114e8565b905061183f565b91505090565b6118c7925061036b916118c16118bb611876935192610786565b8661182e565b90611814565b8211153880611883565b6040517fb48c5926000000000000000000000000000000000000000000000000000000008152600490fd5b9897969594939291906119166115db6115d6336003610e9f565b611634576102d499956102d49995989498979197600099611c60565b906102d49998979695949392916118fc565b98979695949392919061195e6115db6115d6336003610e9f565b611634576102d499956102d49995989498979197600199611c60565b906102d4999897969594939291611944565b969594939291906119a46115db6115d6336003610e9f565b611634576102d4979593916102d497959391600197611adb565b906102d49796959493929161198c565b969594939291906119e66115db6115d6336003610e9f565b611634576102d4979593916102d497959391600097611adb565b906102d4979695949392916119ce565b61036b906108a3565b61036b60a06102c0565b906102d4611a8d6004611a34611a19565b94611a45611a41826108a3565b8752565b611a5b611a54600183016113e3565b6020880152565b611a71611a6a600283016113e3565b6040880152565b611a87611a80600383016113e3565b6060880152565b016107b2565b6080840152565b61036b90611a23565b7f4e487b7100000000000000000000000000000000000000000000000000000000600052601260045260246000fd5b8115611ad6570690565b611a9d565b989796939895929594919094611aef600090565b87811015611c215780898989898f8989878d93818c6004611b11838b84611549565b611b1a9061124a565b611b2391610793565b611b2e838886611663565b9091611b3990611a10565b91611b43926117b7565b9b8c95816002611b54828f85611549565b611b5d9061124a565b611b6691610793565b611b6f90611a94565b60408101518051919991611b836001610786565b611b8c91611807565b611b9591611814565b51611b9f91611acc565b611ba9908961183b565b9c611bb392611549565b611bbc9061124a565b99611bc692611549565b611bcf9061124a565b9880606086015190611be091611814565b51946020015190611bf091611814565b5194611bfb92611663565b95611c07929195611663565b96611c13999196612077565b611c1c906114e8565b611aef565b5050505050505050509050565b7fffffffffffffffff0000000000000000000000000000000000000000000000008116610388565b3561036b81611c2e565b979694989593929a9199909a60e052608052600060a052611c7f600090565b60a0525b611c8f61036b60e05190565b60a0511015611dfa57600460a051611ca8908c8a611549565b611cb19061124a565b611cba91610793565b60a051611cc8908686611663565b9091611cd390611a10565b91611cdd926117b7565b60c052600260a05160e05190611cf3918c611549565b611cfc9061124a565b611d0591610793565b611d0e90611a94565b60408101518051611d1f6001610786565b611d2891611807565b611d3191611814565b5160c05190611d3f91611acc565b611d49908261183b565b60a05160e05190611d5a918d611549565b611d639061124a565b918c60a051611d72918c611549565b611d7b9061124a565b9180606083015190611d8c91611814565b51916020015190611d9c91611814565b519060a051611dac908d88611549565b611db590611c56565b60a051611dc3908a8a611663565b918c8c60a05190611dd392611663565b9590946080519760c05190611de79a6122b8565b611df260a0516114e8565b60a052611c83565b98505050505050505050565b61036b90546107eb565b90808214611f2957611e2181611e06565b9067ffffffffffffffff82116102bb57611e3f8261106085546107eb565b600090601f8311600114611e9757610fc5929160009183611e8c5750507fffffffffffffffffffffffffffffffffffffffffffffffffffffffffffffffff600883021c1916906002021790565b015490503880611082565b90611eac601f19841692600052602060002090565b90611ebc85600052602060002090565b92815b818110611f1157509160029391856001969410611edf5750505002019055565b01547fffffffffffffffffffffffffffffffffffffffffffffffffffffffffffffffff6008601f8516021c1916611126565b91936001806020928787015481550195019201611ebf565b5050565b906102d491611e10565b9061036b906101206120346008611ff5611fe4611fd36101408701611f66611f6260008c01546107ab565b8952565b611f7d611f7660018c01546107ab565b60208a0152565b611f94611f8d60028c01546107ab565b60408a0152565b611fab611fa460038c01546107ab565b60608a0152565b611fc2611fbb60048c01546107ab565b60808a0152565b60058a0188820360a08a0152610815565b6006890187820360c0890152610815565b6007880186820360e0880152610815565b95015461202f6120058260c01b90565b7fffffffffffffffff00000000000000000000000000000000000000000000000016610100860152565b6108c4565b1515910152565b602080825261036b92910190611f37565b9068ff00000000000000009060401b610fa2565b9061207061036b610fc592151590565b825461204c565b98979492909396959160059961208d60016107b2565b612097908c610793565b600101906120a4916112db565b846120af60016107b2565b6120b9908c610793565b6120c391906112db565b6120cd60016107b2565b6120d7908b610793565b600201906120e4916112db565b6120ee60016107b2565b6120f8908a610793565b60040190612105916112db565b61210f60016107b2565b6121199089610793565b6006019161212692611148565b612131906004610793565b8561213c60016107b2565b6121469082610793565b019061215191611f2d565b61215b60016107b2565b6121659086610793565b6007019161217292611148565b61217c60016107b2565b6121869084610793565b60030190612193916112db565b801561222f576121b89060086121b26121ac60016107b2565b85610793565b01612060565b6121e96121c560016107b2565b916121d060016107b2565b906121e46121dd836114e8565b60016112db565b610793565b9061222a6122177fd98fb183186a869f9d9841d348978b15ca5b38f526400b74ce40912609a0e50e92610786565b9261222160405190565b9182918261203b565b0390a2565b5061223d6121c560016107b2565b9061222a6122177fb11a9b2710b8af1d6a5522154af17d8676d49521fdfe416b0c91f45ccae5fd5c92610786565b9067ffffffffffffffff90610fa2565b906122b16122ab610fc5927fffffffffffffffff0000000000000000000000000000000000000000000000001690565b60c01c90565b825461226b565b99989592909397969160059a6122ce60016107b2565b6122d8908d610793565b600101906122e5916112db565b846122f060016107b2565b6122fa908d610793565b61230491906112db565b61230e60016107b2565b612318908c610793565b60020190612325916112db565b61232f60016107b2565b612339908b610793565b60040190612346916112db565b61235060016107b2565b61235a908a610793565b6006019161236792611148565b612372906004610793565b8661237d60016107b2565b6123879082610793565b019061239291611f2d565b61239c60016107b2565b6123a69087610793565b600801906121519161227b565b61036b90610b5d565b61036b90546123b3565b61036b60006123bc565b6123d86123c6565b3390819073ffffffffffffffffffffffffffffffffffffffff16036123fa5750565b61165f9061240760405190565b9182917f118cdaa70000000000000000000000000000000000000000000000000000000083526004830173ffffffffffffffffffffffffffffffffffffffff909116815260200190565b6124596123d0565b6102d4612477565b610b5d61036b61036b9290565b61036b90612461565b6102d4612484600061246e565b612577565b6102d4612451565b6102d49061249d6123d0565b6124a7600061246e565b73ffffffffffffffffffffffffffffffffffffffff811673ffffffffffffffffffffffffffffffffffffffff8316146124e457506102d490612577565b61165f906124f160405190565b9182917f1e4fbdf70000000000000000000000000000000000000000000000000000000083526004830173ffffffffffffffffffffffffffffffffffffffff909116815260200190565b6102d490612491565b9073ffffffffffffffffffffffffffffffffffffffff90610fa2565b9061257061036b610fc592610e96565b8254612544565b61258160006123bc565b9061258d816000612560565b6125c06125ba7f8be0079c531659141344cd1fd0a4f28419497f9722a3daafe3b4186f6b6457e093610e96565b91610e96565b916125ca60405190565b600090a356fea26469706673582212200f01e326bd2e76f4b225e594e59131e67c23c0384ca040248944b5085f6facc964736f6c63430008130033",
          "opcodes": "PUSH1 0x80 PUSH1 0x40 MSTORE CALLVALUE PUSH3 0x30 JUMPI PUSH3 0x1E PUSH3 0x18 PUSH3 0xD3 JUMP JUMPDEST PUSH3 0x156 JUMP JUMPDEST PUSH1 0x40 MLOAD PUSH2 0x2606 PUSH3 0x272 DUP3 CODECOPY PUSH2 0x2606 SWAP1 RETURN JUMPDEST PUSH1 0x0 DUP1 REVERT JUMPDEST PUSH4 0x4E487B71 PUSH1 0xE0 SHL PUSH1 0x0 MSTORE PUSH1 0x41 PUSH1 0x4 MSTORE PUSH1 0x24 PUSH1 0x0 REVERT JUMPDEST SWAP1 PUSH1 0x1F ADD PUSH1 0x1F NOT AND DUP2 ADD SWAP1 DUP2 LT PUSH1 0x1 PUSH1 0x1 PUSH1 0x40 SHL SUB DUP3 GT OR PUSH3 0x6D JUMPI PUSH1 0x40 MSTORE JUMP JUMPDEST PUSH3 0x35 JUMP JUMPDEST SWAP1 PUSH3 0x8A PUSH3 0x82 PUSH1 0x40 MLOAD SWAP1 JUMP JUMPDEST SWAP3 DUP4 PUSH3 0x4B JUMP JUMPDEST JUMP JUMPDEST PUSH1 0x1 PUSH1 0x1 PUSH1 0xA0 SHL SUB AND SWAP1 JUMP JUMPDEST SWAP1 JUMP JUMPDEST PUSH1 0x1 PUSH1 0x1 PUSH1 0xA0 SHL SUB DUP2 AND SUB PUSH3 0x30 JUMPI JUMP JUMPDEST SWAP1 POP MLOAD SWAP1 PUSH3 0x8A DUP3 PUSH3 0x9B JUMP JUMPDEST SWAP1 PUSH1 0x20 DUP3 DUP3 SUB SLT PUSH3 0x30 JUMPI PUSH3 0x98 SWAP2 PUSH3 0xAD JUMP JUMPDEST PUSH3 0x98 PUSH3 0x2878 DUP1 CODESIZE SUB DUP1 PUSH3 0xEA DUP2 PUSH3 0x73 JUMP JUMPDEST SWAP3 DUP4 CODECOPY DUP2 ADD SWAP1 PUSH3 0xBC JUMP JUMPDEST PUSH3 0x98 SWAP1 PUSH3 0x8C SWAP1 PUSH1 0x1 PUSH1 0x1 PUSH1 0xA0 SHL SUB AND DUP3 JUMP JUMPDEST PUSH3 0x98 SWAP1 PUSH3 0xF6 JUMP JUMPDEST PUSH3 0x98 SWAP1 PUSH3 0x10C JUMP JUMPDEST SWAP1 PUSH3 0x136 PUSH3 0x98 PUSH3 0x152 SWAP3 PUSH3 0x117 JUMP JUMPDEST DUP3 SLOAD PUSH1 0x1 PUSH1 0x1 PUSH1 0xA0 SHL SUB NOT AND PUSH1 0x1 PUSH1 0x1 PUSH1 0xA0 SHL SUB SWAP2 SWAP1 SWAP2 AND OR SWAP1 JUMP JUMPDEST SWAP1 SSTORE JUMP JUMPDEST PUSH3 0x8A SWAP1 PUSH3 0x166 CALLER PUSH3 0x19C JUMP JUMPDEST PUSH1 0x6 PUSH3 0x122 JUMP JUMPDEST PUSH3 0x8C PUSH3 0x98 PUSH3 0x98 SWAP3 SWAP1 JUMP JUMPDEST PUSH3 0x98 SWAP1 PUSH3 0x16E JUMP JUMPDEST PUSH1 0x1 PUSH1 0x1 PUSH1 0xA0 SHL SUB SWAP1 SWAP2 AND DUP2 MSTORE PUSH1 0x20 ADD SWAP1 JUMP JUMPDEST PUSH3 0x1A8 PUSH1 0x0 PUSH3 0x17E JUMP JUMPDEST PUSH1 0x1 PUSH1 0x1 PUSH1 0xA0 SHL SUB DUP2 AND PUSH1 0x1 PUSH1 0x1 PUSH1 0xA0 SHL SUB DUP4 AND EQ PUSH3 0x1CE JUMPI POP PUSH3 0x8A SWAP1 PUSH3 0x20F JUMP JUMPDEST PUSH3 0x1F4 SWAP1 PUSH3 0x1DD PUSH1 0x40 MLOAD SWAP1 JUMP JUMPDEST PUSH4 0x1E4FBDF7 PUSH1 0xE0 SHL DUP2 MSTORE SWAP2 DUP3 SWAP2 PUSH1 0x4 DUP4 ADD PUSH3 0x189 JUMP JUMPDEST SUB SWAP1 REVERT JUMPDEST PUSH3 0x98 SWAP1 PUSH3 0x8C JUMP JUMPDEST PUSH3 0x98 SWAP1 SLOAD PUSH3 0x1F8 JUMP JUMPDEST PUSH3 0x21B PUSH1 0x0 PUSH3 0x203 JUMP JUMPDEST SWAP1 PUSH3 0x229 DUP2 PUSH1 0x0 PUSH3 0x122 JUMP JUMPDEST PUSH3 0x260 PUSH3 0x259 PUSH32 0x8BE0079C531659141344CD1FD0A4F28419497F9722A3DAAFE3B4186F6B6457E0 SWAP4 PUSH3 0x117 JUMP JUMPDEST SWAP2 PUSH3 0x117 JUMP JUMPDEST SWAP2 PUSH3 0x26B PUSH1 0x40 MLOAD SWAP1 JUMP JUMPDEST PUSH1 0x0 SWAP1 LOG3 JUMP INVALID PUSH2 0x100 PUSH1 0x40 MSTORE PUSH1 0x4 CALLDATASIZE LT ISZERO PUSH2 0x13 JUMPI PUSH1 0x0 DUP1 REVERT JUMPDEST PUSH1 0x0 CALLDATALOAD PUSH1 0xE0 SHR DUP1 PUSH4 0x530050C EQ PUSH2 0x153 JUMPI DUP1 PUSH4 0xC2D8B28 EQ PUSH2 0x14E JUMPI DUP1 PUSH4 0x2754A414 EQ PUSH2 0x149 JUMPI DUP1 PUSH4 0x31C128C0 EQ PUSH2 0x144 JUMPI DUP1 PUSH4 0x4513B369 EQ PUSH2 0x13F JUMPI DUP1 PUSH4 0x68F019E6 EQ PUSH2 0x13A JUMPI DUP1 PUSH4 0x70910899 EQ PUSH2 0x135 JUMPI DUP1 PUSH4 0x715018A6 EQ PUSH2 0x130 JUMPI DUP1 PUSH4 0x75E20F29 EQ PUSH2 0x12B JUMPI DUP1 PUSH4 0x7C688E81 EQ PUSH2 0x126 JUMPI DUP1 PUSH4 0x8DA5CB5B EQ PUSH2 0x121 JUMPI DUP1 PUSH4 0xAF640D0F EQ PUSH2 0x11C JUMPI DUP1 PUSH4 0xB84C1392 EQ PUSH2 0x117 JUMPI DUP1 PUSH4 0xD119AD63 EQ PUSH2 0x112 JUMPI DUP1 PUSH4 0xD248F5F5 EQ PUSH2 0x10D JUMPI DUP1 PUSH4 0xD253A92B EQ PUSH2 0x108 JUMPI DUP1 PUSH4 0xD7CEE31E EQ PUSH2 0x103 JUMPI DUP1 PUSH4 0xF2FDE38B EQ PUSH2 0xFE JUMPI DUP1 PUSH4 0xF4217648 EQ PUSH2 0xF9 JUMPI PUSH4 0xFA52C7D8 SUB PUSH2 0x188 JUMPI PUSH2 0xED8 JUMP JUMPDEST PUSH2 0xE51 JUMP JUMPDEST PUSH2 0xE13 JUMP JUMPDEST PUSH2 0xDBB JUMP JUMPDEST PUSH2 0xD61 JUMP JUMPDEST PUSH2 0xD45 JUMP JUMPDEST PUSH2 0xCB0 JUMP JUMPDEST PUSH2 0xC38 JUMP JUMPDEST PUSH2 0xBDA JUMP JUMPDEST PUSH2 0xB76 JUMP JUMPDEST PUSH2 0xB36 JUMP JUMPDEST PUSH2 0xA8F JUMP JUMPDEST PUSH2 0x76E JUMP JUMPDEST PUSH2 0x748 JUMP JUMPDEST PUSH2 0x723 JUMP JUMPDEST PUSH2 0x70A JUMP JUMPDEST PUSH2 0x69C JUMP JUMPDEST PUSH2 0x5D2 JUMP JUMPDEST PUSH2 0x4F4 JUMP JUMPDEST PUSH2 0x221 JUMP JUMPDEST SWAP1 SWAP2 DUP3 PUSH1 0x1F DUP4 ADD SLT ISZERO PUSH2 0x188 JUMPI DUP2 CALLDATALOAD SWAP2 PUSH8 0xFFFFFFFFFFFFFFFF DUP4 GT PUSH2 0x188 JUMPI PUSH1 0x20 ADD SWAP3 PUSH1 0x20 DUP4 MUL DUP5 ADD GT PUSH2 0x188 JUMPI JUMP JUMPDEST PUSH1 0x0 DUP1 REVERT JUMPDEST SWAP1 SWAP2 PUSH1 0x80 DUP3 DUP5 SUB SLT PUSH2 0x188 JUMPI DUP2 CALLDATALOAD PUSH8 0xFFFFFFFFFFFFFFFF DUP2 GT PUSH2 0x188 JUMPI DUP4 PUSH2 0x1B6 SWAP2 DUP5 ADD PUSH2 0x158 JUMP JUMPDEST SWAP3 SWAP1 SWAP4 PUSH1 0x20 DUP3 ADD CALLDATALOAD PUSH8 0xFFFFFFFFFFFFFFFF DUP2 GT PUSH2 0x188 JUMPI DUP2 PUSH2 0x1D9 SWAP2 DUP5 ADD PUSH2 0x158 JUMP JUMPDEST SWAP3 SWAP1 SWAP4 PUSH1 0x40 DUP3 ADD CALLDATALOAD PUSH8 0xFFFFFFFFFFFFFFFF DUP2 GT PUSH2 0x188 JUMPI DUP4 PUSH2 0x1FC SWAP2 DUP5 ADD PUSH2 0x158 JUMP JUMPDEST SWAP3 SWAP1 SWAP4 PUSH1 0x60 DUP3 ADD CALLDATALOAD PUSH8 0xFFFFFFFFFFFFFFFF DUP2 GT PUSH2 0x188 JUMPI PUSH2 0x21D SWAP3 ADD PUSH2 0x158 JUMP JUMPDEST SWAP1 SWAP2 JUMP JUMPDEST CALLVALUE PUSH2 0x188 JUMPI PUSH2 0x243 PUSH2 0x234 CALLDATASIZE PUSH1 0x4 PUSH2 0x18D JUMP JUMPDEST SWAP7 SWAP6 SWAP1 SWAP6 SWAP5 SWAP2 SWAP5 SWAP4 SWAP3 SWAP4 PUSH2 0x1A00 JUMP JUMPDEST PUSH1 0x40 MLOAD STOP JUMPDEST SUB SWAP1 RETURN JUMPDEST PUSH32 0x4E487B7100000000000000000000000000000000000000000000000000000000 PUSH1 0x0 MSTORE PUSH1 0x41 PUSH1 0x4 MSTORE PUSH1 0x24 PUSH1 0x0 REVERT JUMPDEST SWAP1 PUSH1 0x1F ADD PUSH32 0xFFFFFFFFFFFFFFFFFFFFFFFFFFFFFFFFFFFFFFFFFFFFFFFFFFFFFFFFFFFFFFE0 AND DUP2 ADD SWAP1 DUP2 LT PUSH8 0xFFFFFFFFFFFFFFFF DUP3 GT OR PUSH2 0x2BB JUMPI PUSH1 0x40 MSTORE JUMP JUMPDEST PUSH2 0x24C JUMP JUMPDEST SWAP1 PUSH2 0x2D4 PUSH2 0x2CD PUSH1 0x40 MLOAD SWAP1 JUMP JUMPDEST SWAP3 DUP4 PUSH2 0x27B JUMP JUMPDEST JUMP JUMPDEST PUSH8 0xFFFFFFFFFFFFFFFF DUP2 GT PUSH2 0x2BB JUMPI PUSH1 0x20 SWAP1 PUSH1 0x1F ADD PUSH32 0xFFFFFFFFFFFFFFFFFFFFFFFFFFFFFFFFFFFFFFFFFFFFFFFFFFFFFFFFFFFFFFE0 AND ADD SWAP1 JUMP JUMPDEST ADD SWAP1 JUMP JUMPDEST SWAP1 DUP3 PUSH1 0x0 SWAP4 SWAP3 DUP3 CALLDATACOPY ADD MSTORE JUMP JUMPDEST SWAP1 SWAP3 SWAP2 SWAP3 PUSH2 0x336 PUSH2 0x331 DUP3 PUSH2 0x2D6 JUMP JUMPDEST PUSH2 0x2C0 JUMP JUMPDEST SWAP4 DUP2 DUP6 MSTORE PUSH1 0x20 DUP6 ADD SWAP1 DUP3 DUP5 ADD GT PUSH2 0x188 JUMPI PUSH2 0x2D4 SWAP3 PUSH2 0x315 JUMP JUMPDEST SWAP1 DUP1 PUSH1 0x1F DUP4 ADD SLT ISZERO PUSH2 0x188 JUMPI DUP2 PUSH1 0x20 PUSH2 0x36B SWAP4 CALLDATALOAD SWAP2 ADD PUSH2 0x321 JUMP JUMPDEST SWAP1 JUMP JUMPDEST PUSH8 0xFFFFFFFFFFFFFFFF DUP2 GT PUSH2 0x2BB JUMPI PUSH1 0x20 DUP1 SWAP2 MUL ADD SWAP1 JUMP JUMPDEST DUP1 JUMPDEST SUB PUSH2 0x188 JUMPI JUMP JUMPDEST SWAP1 POP CALLDATALOAD SWAP1 PUSH2 0x2D4 DUP3 PUSH2 0x386 JUMP JUMPDEST SWAP1 SWAP3 SWAP2 SWAP3 PUSH2 0x3AC PUSH2 0x331 DUP3 PUSH2 0x36E JUMP JUMPDEST SWAP4 DUP2 DUP6 MSTORE PUSH1 0x20 DUP1 DUP7 ADD SWAP3 MUL DUP4 ADD SWAP3 DUP2 DUP5 GT PUSH2 0x188 JUMPI SWAP2 JUMPDEST DUP4 DUP4 LT PUSH2 0x3D0 JUMPI POP POP POP POP JUMP JUMPDEST PUSH1 0x20 DUP1 SWAP2 PUSH2 0x3DE DUP5 DUP7 PUSH2 0x38F JUMP JUMPDEST DUP2 MSTORE ADD SWAP3 ADD SWAP2 PUSH2 0x3C3 JUMP JUMPDEST SWAP1 DUP1 PUSH1 0x1F DUP4 ADD SLT ISZERO PUSH2 0x188 JUMPI DUP2 PUSH1 0x20 PUSH2 0x36B SWAP4 CALLDATALOAD SWAP2 ADD PUSH2 0x39C JUMP JUMPDEST SWAP2 SWAP1 SWAP2 PUSH1 0xA0 DUP2 DUP5 SUB SLT PUSH2 0x188 JUMPI PUSH2 0x41B PUSH1 0xA0 PUSH2 0x2C0 JUMP JUMPDEST SWAP3 DUP2 CALLDATALOAD PUSH8 0xFFFFFFFFFFFFFFFF DUP2 GT PUSH2 0x188 JUMPI DUP2 PUSH2 0x439 SWAP2 DUP5 ADD PUSH2 0x350 JUMP JUMPDEST DUP5 MSTORE PUSH1 0x20 DUP3 ADD CALLDATALOAD PUSH8 0xFFFFFFFFFFFFFFFF DUP2 GT PUSH2 0x188 JUMPI DUP2 PUSH2 0x45B SWAP2 DUP5 ADD PUSH2 0x3E9 JUMP JUMPDEST PUSH1 0x20 DUP6 ADD MSTORE PUSH1 0x40 DUP3 ADD CALLDATALOAD PUSH8 0xFFFFFFFFFFFFFFFF DUP2 GT PUSH2 0x188 JUMPI DUP2 PUSH2 0x480 SWAP2 DUP5 ADD PUSH2 0x3E9 JUMP JUMPDEST PUSH1 0x40 DUP6 ADD MSTORE PUSH1 0x60 DUP3 ADD CALLDATALOAD SWAP1 PUSH8 0xFFFFFFFFFFFFFFFF DUP3 GT PUSH2 0x188 JUMPI PUSH2 0x4A9 DUP2 PUSH2 0x4B8 SWAP4 DUP6 ADD PUSH2 0x3E9 JUMP JUMPDEST PUSH1 0x60 DUP7 ADD MSTORE PUSH1 0x80 DUP1 SWAP4 ADD PUSH2 0x38F JUMP JUMPDEST SWAP1 DUP4 ADD MSTORE JUMP JUMPDEST SWAP2 SWAP1 PUSH1 0x40 DUP4 DUP3 SUB SLT PUSH2 0x188 JUMPI DUP3 CALLDATALOAD SWAP1 PUSH8 0xFFFFFFFFFFFFFFFF DUP3 GT PUSH2 0x188 JUMPI PUSH2 0x4EB DUP2 PUSH2 0x36B SWAP4 DUP7 ADD PUSH2 0x404 JUMP JUMPDEST SWAP4 PUSH1 0x20 ADD PUSH2 0x38F JUMP JUMPDEST CALLVALUE PUSH2 0x188 JUMPI PUSH2 0x248 PUSH2 0x510 PUSH2 0x50A CALLDATASIZE PUSH1 0x4 PUSH2 0x4BE JUMP JUMPDEST SWAP1 PUSH2 0x183B JUMP JUMPDEST PUSH1 0x40 MLOAD SWAP2 DUP3 SWAP2 DUP3 SWAP1 DUP2 MSTORE PUSH1 0x20 ADD SWAP1 JUMP JUMPDEST SWAP1 PUSH1 0xA0 DUP3 DUP3 SUB SLT PUSH2 0x188 JUMPI DUP2 CALLDATALOAD PUSH8 0xFFFFFFFFFFFFFFFF DUP2 GT PUSH2 0x188 JUMPI DUP2 PUSH2 0x548 SWAP2 DUP5 ADD PUSH2 0x158 JUMP JUMPDEST SWAP3 SWAP1 SWAP4 PUSH1 0x20 DUP3 ADD CALLDATALOAD PUSH8 0xFFFFFFFFFFFFFFFF DUP2 GT PUSH2 0x188 JUMPI DUP4 PUSH2 0x56B SWAP2 DUP5 ADD PUSH2 0x158 JUMP JUMPDEST SWAP3 SWAP1 SWAP4 PUSH1 0x40 DUP3 ADD CALLDATALOAD PUSH8 0xFFFFFFFFFFFFFFFF DUP2 GT PUSH2 0x188 JUMPI DUP2 PUSH2 0x58E SWAP2 DUP5 ADD PUSH2 0x158 JUMP JUMPDEST SWAP3 SWAP1 SWAP4 PUSH1 0x60 DUP3 ADD CALLDATALOAD PUSH8 0xFFFFFFFFFFFFFFFF DUP2 GT PUSH2 0x188 JUMPI DUP4 PUSH2 0x5B1 SWAP2 DUP5 ADD PUSH2 0x158 JUMP JUMPDEST SWAP3 SWAP1 SWAP4 PUSH1 0x80 DUP3 ADD CALLDATALOAD PUSH8 0xFFFFFFFFFFFFFFFF DUP2 GT PUSH2 0x188 JUMPI PUSH2 0x21D SWAP3 ADD PUSH2 0x158 JUMP JUMPDEST CALLVALUE PUSH2 0x188 JUMPI PUSH2 0x243 PUSH2 0x5E5 CALLDATASIZE PUSH1 0x4 PUSH2 0x520 JUMP JUMPDEST SWAP9 SWAP8 SWAP1 SWAP8 SWAP7 SWAP2 SWAP7 SWAP6 SWAP3 SWAP6 SWAP5 SWAP4 SWAP5 PUSH2 0x1932 JUMP JUMPDEST SWAP1 PUSH1 0x20 DUP3 DUP3 SUB SLT PUSH2 0x188 JUMPI PUSH2 0x36B SWAP2 PUSH2 0x38F JUMP JUMPDEST SWAP1 PUSH2 0x62B PUSH2 0x624 PUSH2 0x61A DUP5 MLOAD SWAP1 JUMP JUMPDEST DUP1 DUP5 MSTORE SWAP3 PUSH1 0x20 ADD SWAP1 JUMP JUMPDEST SWAP3 PUSH1 0x20 ADD SWAP1 JUMP JUMPDEST SWAP1 PUSH1 0x0 JUMPDEST DUP2 DUP2 LT PUSH2 0x63C JUMPI POP POP POP SWAP1 JUMP JUMPDEST SWAP1 SWAP2 SWAP3 PUSH2 0x659 PUSH2 0x652 PUSH1 0x1 SWAP3 DUP7 MLOAD DUP2 MSTORE PUSH1 0x20 ADD SWAP1 JUMP JUMPDEST SWAP5 PUSH1 0x20 ADD SWAP1 JUMP JUMPDEST SWAP3 SWAP2 ADD PUSH2 0x62F JUMP JUMPDEST SWAP2 PUSH2 0x68E SWAP1 PUSH2 0x680 PUSH2 0x36B SWAP6 SWAP4 PUSH1 0x60 DUP7 ADD SWAP1 DUP7 DUP3 SUB PUSH1 0x0 DUP9 ADD MSTORE PUSH2 0x60B JUMP JUMPDEST SWAP1 DUP5 DUP3 SUB PUSH1 0x20 DUP7 ADD MSTORE PUSH2 0x60B JUMP JUMPDEST SWAP2 PUSH1 0x40 DUP2 DUP5 SUB SWAP2 ADD MSTORE PUSH2 0x60B JUMP JUMPDEST CALLVALUE PUSH2 0x188 JUMPI PUSH2 0x248 PUSH2 0x6B7 PUSH2 0x6B2 CALLDATASIZE PUSH1 0x4 PUSH2 0x5F7 JUMP JUMPDEST PUSH2 0x144A JUMP JUMPDEST PUSH1 0x40 MLOAD SWAP2 SWAP4 SWAP2 SWAP4 DUP5 SWAP4 DUP5 PUSH2 0x661 JUMP JUMPDEST SWAP1 DUP2 PUSH1 0xA0 SWAP2 SUB SLT PUSH2 0x188 JUMPI SWAP1 JUMP JUMPDEST SWAP2 SWAP1 SWAP2 PUSH1 0x40 DUP2 DUP5 SUB SLT PUSH2 0x188 JUMPI PUSH2 0x6EB DUP4 DUP3 PUSH2 0x38F JUMP JUMPDEST SWAP3 PUSH1 0x20 DUP3 ADD CALLDATALOAD PUSH8 0xFFFFFFFFFFFFFFFF DUP2 GT PUSH2 0x188 JUMPI PUSH2 0x36B SWAP3 ADD PUSH2 0x6C6 JUMP JUMPDEST CALLVALUE PUSH2 0x188 JUMPI PUSH2 0x243 PUSH2 0x71D CALLDATASIZE PUSH1 0x4 PUSH2 0x6D4 JUMP JUMPDEST SWAP1 PUSH2 0x1383 JUMP JUMPDEST CALLVALUE PUSH2 0x188 JUMPI PUSH2 0x243 PUSH2 0x736 CALLDATASIZE PUSH1 0x4 PUSH2 0x520 JUMP JUMPDEST SWAP9 SWAP8 SWAP1 SWAP8 SWAP7 SWAP2 SWAP7 SWAP6 SWAP3 SWAP6 SWAP5 SWAP4 SWAP5 PUSH2 0x197A JUMP JUMPDEST CALLVALUE PUSH2 0x188 JUMPI PUSH2 0x248 PUSH2 0x6B7 PUSH2 0x75E CALLDATASIZE PUSH1 0x4 PUSH2 0x5F7 JUMP JUMPDEST PUSH2 0x1406 JUMP JUMPDEST PUSH1 0x0 SWAP2 SUB SLT PUSH2 0x188 JUMPI JUMP JUMPDEST CALLVALUE PUSH2 0x188 JUMPI PUSH2 0x77E CALLDATASIZE PUSH1 0x4 PUSH2 0x763 JUMP JUMPDEST PUSH2 0x243 PUSH2 0x2489 JUMP JUMPDEST PUSH2 0x36B PUSH2 0x36B PUSH2 0x36B SWAP3 SWAP1 JUMP JUMPDEST SWAP1 PUSH2 0x79D SWAP1 PUSH2 0x786 JUMP JUMPDEST PUSH1 0x0 MSTORE PUSH1 0x20 MSTORE PUSH1 0x40 PUSH1 0x0 KECCAK256 SWAP1 JUMP JUMPDEST PUSH2 0x36B SWAP1 DUP2 JUMP JUMPDEST PUSH2 0x36B SWAP1 SLOAD PUSH2 0x7AB JUMP JUMPDEST PUSH32 0x4E487B7100000000000000000000000000000000000000000000000000000000 PUSH1 0x0 MSTORE PUSH1 0x22 PUSH1 0x4 MSTORE PUSH1 0x24 PUSH1 0x0 REVERT JUMPDEST SWAP1 PUSH1 0x1 PUSH1 0x2 DUP4 DIV SWAP3 AND DUP1 ISZERO PUSH2 0x80B JUMPI JUMPDEST PUSH1 0x20 DUP4 LT EQ PUSH2 0x806 JUMPI JUMP JUMPDEST PUSH2 0x7BC JUMP JUMPDEST SWAP2 PUSH1 0x7F AND SWAP2 PUSH2 0x7FB JUMP JUMPDEST DUP1 SLOAD PUSH1 0x0 SWAP4 SWAP3 SWAP2 PUSH2 0x832 PUSH2 0x828 DUP4 PUSH2 0x7EB JUMP JUMPDEST DUP1 DUP6 MSTORE SWAP4 PUSH1 0x20 ADD SWAP1 JUMP JUMPDEST SWAP2 PUSH1 0x1 DUP2 AND SWAP1 DUP2 ISZERO PUSH2 0x884 JUMPI POP PUSH1 0x1 EQ PUSH2 0x84B JUMPI POP POP POP JUMP JUMPDEST PUSH2 0x85E SWAP2 SWAP3 SWAP4 SWAP5 POP PUSH1 0x0 MSTORE PUSH1 0x20 PUSH1 0x0 KECCAK256 SWAP1 JUMP JUMPDEST SWAP2 PUSH1 0x0 SWAP3 JUMPDEST DUP2 DUP5 LT PUSH2 0x870 JUMPI POP POP ADD SWAP1 JUMP JUMPDEST DUP1 SLOAD DUP5 DUP5 ADD MSTORE PUSH1 0x20 SWAP1 SWAP4 ADD SWAP3 PUSH1 0x1 ADD PUSH2 0x863 JUMP JUMPDEST SWAP3 SWAP5 SWAP6 POP POP POP PUSH1 0xFF NOT AND DUP3 MSTORE ISZERO ISZERO PUSH1 0x20 MUL ADD SWAP1 JUMP JUMPDEST SWAP1 PUSH2 0x36B SWAP2 PUSH2 0x815 JUMP JUMPDEST SWAP1 PUSH2 0x2D4 PUSH2 0x8BD SWAP3 PUSH2 0x8B4 PUSH1 0x40 MLOAD SWAP1 JUMP JUMPDEST SWAP4 DUP5 DUP1 SWAP3 PUSH2 0x899 JUMP JUMPDEST SUB DUP4 PUSH2 0x27B JUMP JUMPDEST PUSH2 0x36B SWAP1 PUSH1 0x40 SHR JUMPDEST PUSH1 0xFF AND SWAP1 JUMP JUMPDEST PUSH2 0x36B SWAP1 SLOAD PUSH2 0x8C4 JUMP JUMPDEST PUSH2 0x8E7 SWAP1 PUSH1 0x5 PUSH2 0x793 JUMP JUMPDEST SWAP1 PUSH2 0x8F1 DUP3 PUSH2 0x7B2 JUMP JUMPDEST SWAP2 PUSH2 0x8FE PUSH1 0x1 DUP3 ADD PUSH2 0x7B2 JUMP JUMPDEST SWAP2 PUSH2 0x90B PUSH1 0x2 DUP4 ADD PUSH2 0x7B2 JUMP JUMPDEST SWAP2 PUSH2 0x918 PUSH1 0x3 DUP3 ADD PUSH2 0x7B2 JUMP JUMPDEST SWAP2 PUSH2 0x925 PUSH1 0x4 DUP4 ADD PUSH2 0x7B2 JUMP JUMPDEST SWAP2 PUSH2 0x932 PUSH1 0x5 DUP3 ADD PUSH2 0x8A3 JUMP JUMPDEST SWAP2 PUSH2 0x93F PUSH1 0x6 DUP4 ADD PUSH2 0x8A3 JUMP JUMPDEST SWAP2 PUSH2 0x94C PUSH1 0x7 DUP3 ADD PUSH2 0x8A3 JUMP JUMPDEST SWAP2 PUSH2 0x36B PUSH1 0x8 PUSH2 0x95F DUP2 DUP6 ADD SLOAD PUSH1 0xC0 SHL SWAP1 JUMP JUMPDEST SWAP4 ADD PUSH2 0x8D2 JUMP JUMPDEST PUSH1 0x0 JUMPDEST DUP4 DUP2 LT PUSH2 0x979 JUMPI POP POP PUSH1 0x0 SWAP2 ADD MSTORE JUMP JUMPDEST DUP2 DUP2 ADD MLOAD DUP4 DUP3 ADD MSTORE PUSH1 0x20 ADD PUSH2 0x969 JUMP JUMPDEST PUSH2 0x9AA PUSH2 0x9B3 PUSH1 0x20 SWAP4 PUSH2 0x311 SWAP4 PUSH2 0x99E DUP2 MLOAD SWAP1 JUMP JUMPDEST DUP1 DUP4 MSTORE SWAP4 DUP5 SWAP3 PUSH1 0x20 ADD SWAP1 JUMP JUMPDEST SWAP6 DUP7 SWAP2 ADD PUSH2 0x966 JUMP JUMPDEST PUSH1 0x1F ADD PUSH32 0xFFFFFFFFFFFFFFFFFFFFFFFFFFFFFFFFFFFFFFFFFFFFFFFFFFFFFFFFFFFFFFE0 AND SWAP1 JUMP JUMPDEST SWAP6 PUSH2 0x120 SWAP8 SWAP2 PUSH2 0xA3F SWAP2 PUSH2 0xA32 PUSH2 0xA87 SWAP9 PUSH2 0x2D4 SWAP14 SWAP16 SWAP15 SWAP13 SWAP8 PUSH2 0xA5B SWAP10 PUSH2 0xA24 PUSH2 0xA2B SWAP3 PUSH1 0x40 DUP16 PUSH2 0xA20 PUSH2 0xA4D SWAP14 PUSH2 0xA19 PUSH2 0x140 DUP5 ADD SWAP13 PUSH1 0x0 DUP6 ADD MSTORE JUMP JUMPDEST PUSH1 0x20 DUP4 ADD MSTORE JUMP JUMPDEST ADD MSTORE JUMP JUMPDEST PUSH1 0x60 DUP14 ADD MSTORE JUMP JUMPDEST PUSH1 0x80 DUP12 ADD MSTORE JUMP JUMPDEST DUP9 DUP3 SUB PUSH1 0xA0 DUP11 ADD MSTORE PUSH2 0x989 JUMP JUMPDEST SWAP1 DUP7 DUP3 SUB PUSH1 0xC0 DUP9 ADD MSTORE PUSH2 0x989 JUMP JUMPDEST SWAP1 DUP5 DUP3 SUB PUSH1 0xE0 DUP7 ADD MSTORE PUSH2 0x989 JUMP JUMPDEST PUSH32 0xFFFFFFFFFFFFFFFF000000000000000000000000000000000000000000000000 SWAP1 SWAP8 AND PUSH2 0x100 DUP4 ADD MSTORE JUMP JUMPDEST ADD SWAP1 ISZERO ISZERO SWAP1 MSTORE JUMP JUMPDEST CALLVALUE PUSH2 0x188 JUMPI PUSH2 0x248 PUSH2 0xAAA PUSH2 0xAA5 CALLDATASIZE PUSH1 0x4 PUSH2 0x5F7 JUMP JUMPDEST PUSH2 0x8DC JUMP JUMPDEST SWAP7 PUSH2 0xAC0 SWAP11 SWAP9 SWAP11 SWAP7 SWAP2 SWAP7 SWAP6 SWAP3 SWAP6 SWAP5 SWAP4 SWAP5 PUSH1 0x40 MLOAD SWAP1 JUMP JUMPDEST SWAP11 DUP12 SWAP11 DUP12 PUSH2 0x9DB JUMP JUMPDEST PUSH32 0x4E487B7100000000000000000000000000000000000000000000000000000000 PUSH1 0x0 MSTORE PUSH1 0x0 PUSH1 0x4 MSTORE PUSH1 0x24 PUSH1 0x0 REVERT JUMPDEST SWAP1 PUSH1 0x0 LT PUSH2 0xB09 JUMPI PUSH2 0x36B SWAP1 PUSH2 0x8A3 JUMP JUMPDEST PUSH2 0xAC9 JUMP JUMPDEST PUSH2 0x36B SWAP1 PUSH2 0xB20 PUSH1 0x4 SWAP2 PUSH1 0x0 SWAP3 PUSH2 0x793 JUMP JUMPDEST PUSH2 0xAF8 JUMP JUMPDEST PUSH1 0x20 DUP1 DUP3 MSTORE PUSH2 0x36B SWAP3 SWAP2 ADD SWAP1 PUSH2 0x989 JUMP JUMPDEST CALLVALUE PUSH2 0x188 JUMPI PUSH2 0x248 PUSH2 0xB51 PUSH2 0xB4C CALLDATASIZE PUSH1 0x4 PUSH2 0x5F7 JUMP JUMPDEST PUSH2 0xB0E JUMP JUMPDEST PUSH1 0x40 MLOAD SWAP2 DUP3 SWAP2 DUP3 PUSH2 0xB25 JUMP JUMPDEST PUSH20 0xFFFFFFFFFFFFFFFFFFFFFFFFFFFFFFFFFFFFFFFF AND SWAP1 JUMP JUMPDEST CALLVALUE PUSH2 0x188 JUMPI PUSH2 0xB86 CALLDATASIZE PUSH1 0x4 PUSH2 0x763 JUMP JUMPDEST PUSH2 0x248 PUSH2 0xB91 PUSH2 0x23C6 JUMP JUMPDEST PUSH1 0x40 MLOAD SWAP2 DUP3 SWAP2 DUP3 PUSH20 0xFFFFFFFFFFFFFFFFFFFFFFFFFFFFFFFFFFFFFFFF SWAP1 SWAP2 AND DUP2 MSTORE PUSH1 0x20 ADD SWAP1 JUMP JUMPDEST PUSH2 0x36B SWAP2 PUSH1 0x8 MUL SHR DUP2 JUMP JUMPDEST SWAP1 PUSH2 0x36B SWAP2 SLOAD PUSH2 0xBB8 JUMP JUMPDEST PUSH2 0x36B PUSH1 0x0 PUSH1 0x1 PUSH2 0xBC3 JUMP JUMPDEST CALLVALUE PUSH2 0x188 JUMPI PUSH2 0xBEA CALLDATASIZE PUSH1 0x4 PUSH2 0x763 JUMP JUMPDEST PUSH2 0x248 PUSH2 0x510 PUSH2 0xBCE JUMP JUMPDEST PUSH2 0xC00 SWAP1 PUSH1 0x2 PUSH2 0x793 JUMP JUMPDEST SWAP1 PUSH2 0x36B PUSH1 0x4 PUSH2 0xC0F DUP5 PUSH2 0x8A3 JUMP JUMPDEST SWAP4 ADD PUSH2 0x7B2 JUMP JUMPDEST SWAP3 SWAP2 PUSH1 0x20 PUSH2 0xC33 PUSH2 0x2D4 SWAP4 PUSH1 0x40 DUP8 ADD SWAP1 DUP8 DUP3 SUB PUSH1 0x0 DUP10 ADD MSTORE PUSH2 0x989 JUMP JUMPDEST SWAP5 ADD MSTORE JUMP JUMPDEST CALLVALUE PUSH2 0x188 JUMPI PUSH2 0xC50 PUSH2 0xC4B CALLDATASIZE PUSH1 0x4 PUSH2 0x5F7 JUMP JUMPDEST PUSH2 0xBF5 JUMP JUMPDEST SWAP1 PUSH2 0x248 PUSH2 0xC5D PUSH1 0x40 MLOAD SWAP1 JUMP JUMPDEST SWAP3 DUP4 SWAP3 DUP4 PUSH2 0xC16 JUMP JUMPDEST SWAP1 SWAP2 PUSH1 0x40 DUP3 DUP5 SUB SLT PUSH2 0x188 JUMPI DUP2 CALLDATALOAD PUSH8 0xFFFFFFFFFFFFFFFF DUP2 GT PUSH2 0x188 JUMPI DUP4 PUSH2 0xC8F SWAP2 DUP5 ADD PUSH2 0x158 JUMP JUMPDEST SWAP3 SWAP1 SWAP4 PUSH1 0x20 DUP3 ADD CALLDATALOAD PUSH8 0xFFFFFFFFFFFFFFFF DUP2 GT PUSH2 0x188 JUMPI PUSH2 0x21D SWAP3 ADD PUSH2 0x158 JUMP JUMPDEST CALLVALUE PUSH2 0x188 JUMPI PUSH2 0x243 PUSH2 0xCC3 CALLDATASIZE PUSH1 0x4 PUSH2 0xC66 JUMP JUMPDEST SWAP3 SWAP2 SWAP1 SWAP2 PUSH2 0x175E JUMP JUMPDEST SWAP1 SWAP2 DUP3 PUSH1 0x1F DUP4 ADD SLT ISZERO PUSH2 0x188 JUMPI DUP2 CALLDATALOAD SWAP2 PUSH8 0xFFFFFFFFFFFFFFFF DUP4 GT PUSH2 0x188 JUMPI PUSH1 0x20 ADD SWAP3 PUSH1 0x1 DUP4 MUL DUP5 ADD GT PUSH2 0x188 JUMPI JUMP JUMPDEST SWAP2 SWAP1 SWAP2 PUSH1 0x40 DUP2 DUP5 SUB SLT PUSH2 0x188 JUMPI DUP1 CALLDATALOAD PUSH8 0xFFFFFFFFFFFFFFFF DUP2 GT PUSH2 0x188 JUMPI DUP4 PUSH2 0xD26 SWAP2 DUP4 ADD PUSH2 0x350 JUMP JUMPDEST SWAP3 PUSH1 0x20 DUP3 ADD CALLDATALOAD PUSH8 0xFFFFFFFFFFFFFFFF DUP2 GT PUSH2 0x188 JUMPI PUSH2 0x21D SWAP3 ADD PUSH2 0xCCC JUMP JUMPDEST CALLVALUE PUSH2 0x188 JUMPI PUSH2 0x248 PUSH2 0x510 PUSH2 0xD5B CALLDATASIZE PUSH1 0x4 PUSH2 0xCFC JUMP JUMPDEST SWAP2 PUSH2 0x17B7 JUMP JUMPDEST CALLVALUE PUSH2 0x188 JUMPI PUSH2 0x243 PUSH2 0xD74 CALLDATASIZE PUSH1 0x4 PUSH2 0x18D JUMP JUMPDEST SWAP7 SWAP6 SWAP1 SWAP6 SWAP5 SWAP2 SWAP5 SWAP4 SWAP3 SWAP4 PUSH2 0x19BE JUMP JUMPDEST PUSH2 0x36B SWAP2 PUSH1 0x8 MUL SHR PUSH20 0xFFFFFFFFFFFFFFFFFFFFFFFFFFFFFFFFFFFFFFFF AND SWAP1 JUMP JUMPDEST SWAP1 PUSH2 0x36B SWAP2 SLOAD PUSH2 0xD83 JUMP JUMPDEST PUSH2 0x36B PUSH1 0x0 PUSH1 0x6 PUSH2 0xDA4 JUMP JUMPDEST CALLVALUE PUSH2 0x188 JUMPI PUSH2 0xDCB CALLDATASIZE PUSH1 0x4 PUSH2 0x763 JUMP JUMPDEST PUSH2 0x248 PUSH2 0xB91 PUSH2 0xDAF JUMP JUMPDEST PUSH20 0xFFFFFFFFFFFFFFFFFFFFFFFFFFFFFFFFFFFFFFFF DUP2 AND PUSH2 0x388 JUMP JUMPDEST SWAP1 POP CALLDATALOAD SWAP1 PUSH2 0x2D4 DUP3 PUSH2 0xDD6 JUMP JUMPDEST SWAP1 PUSH1 0x20 DUP3 DUP3 SUB SLT PUSH2 0x188 JUMPI PUSH2 0x36B SWAP2 PUSH2 0xDF2 JUMP JUMPDEST CALLVALUE PUSH2 0x188 JUMPI PUSH2 0x243 PUSH2 0xE26 CALLDATASIZE PUSH1 0x4 PUSH2 0xDFF JUMP JUMPDEST PUSH2 0x253B JUMP JUMPDEST SWAP1 PUSH1 0x20 DUP3 DUP3 SUB SLT PUSH2 0x188 JUMPI DUP2 CALLDATALOAD PUSH8 0xFFFFFFFFFFFFFFFF DUP2 GT PUSH2 0x188 JUMPI PUSH2 0x21D SWAP3 ADD PUSH2 0x158 JUMP JUMPDEST CALLVALUE PUSH2 0x188 JUMPI PUSH2 0x243 PUSH2 0xE64 CALLDATASIZE PUSH1 0x4 PUSH2 0xE2B JUMP JUMPDEST SWAP1 PUSH2 0x1609 JUMP JUMPDEST PUSH2 0xB5D PUSH2 0x36B PUSH2 0x36B SWAP3 PUSH20 0xFFFFFFFFFFFFFFFFFFFFFFFFFFFFFFFFFFFFFFFF AND SWAP1 JUMP JUMPDEST PUSH2 0x36B SWAP1 PUSH2 0xE6A JUMP JUMPDEST PUSH2 0x36B SWAP1 PUSH2 0xE8D JUMP JUMPDEST SWAP1 PUSH2 0x79D SWAP1 PUSH2 0xE96 JUMP JUMPDEST PUSH2 0x36B SWAP2 PUSH1 0x8 MUL SHR PUSH2 0x8CC JUMP JUMPDEST SWAP1 PUSH2 0x36B SWAP2 SLOAD PUSH2 0xEA9 JUMP JUMPDEST PUSH2 0x36B SWAP1 PUSH2 0xED3 PUSH1 0x3 SWAP2 PUSH1 0x0 SWAP3 PUSH2 0xE9F JUMP JUMPDEST PUSH2 0xEB6 JUMP JUMPDEST CALLVALUE PUSH2 0x188 JUMPI PUSH2 0x248 PUSH2 0xEF3 PUSH2 0xEEE CALLDATASIZE PUSH1 0x4 PUSH2 0xDFF JUMP JUMPDEST PUSH2 0xEC1 JUMP JUMPDEST PUSH1 0x40 MLOAD SWAP2 DUP3 SWAP2 DUP3 SWAP1 ISZERO ISZERO DUP2 MSTORE PUSH1 0x20 ADD SWAP1 JUMP JUMPDEST SWAP1 PUSH2 0x2D4 SWAP2 PUSH2 0xF12 PUSH2 0x23D0 JUMP JUMPDEST PUSH2 0x136F JUMP JUMPDEST SWAP1 CALLDATALOAD SWAP1 PUSH32 0xFFFFFFFFFFFFFFFFFFFFFFFFFFFFFFFFFFFFFFFFFFFFFFFFFFFFFFFFFFFFFFE1 CALLDATASIZE DUP3 SWAP1 SUB ADD DUP3 SLT ISZERO PUSH2 0x188 JUMPI ADD DUP1 CALLDATALOAD SWAP1 PUSH8 0xFFFFFFFFFFFFFFFF DUP3 GT PUSH2 0x188 JUMPI PUSH1 0x20 ADD SWAP2 CALLDATASIZE DUP3 SWAP1 SUB DUP4 SGT PUSH2 0x188 JUMPI JUMP JUMPDEST SWAP2 SWAP1 PUSH1 0x8 PUSH2 0xFA2 SWAP2 MUL SWAP2 PUSH2 0xF9D PUSH32 0xFFFFFFFFFFFFFFFFFFFFFFFFFFFFFFFFFFFFFFFFFFFFFFFFFFFFFFFFFFFFFFFF DUP5 SHL SWAP1 JUMP JUMPDEST SWAP3 SHL SWAP1 JUMP JUMPDEST SWAP2 DUP2 NOT AND SWAP2 AND OR SWAP1 JUMP JUMPDEST SWAP2 SWAP1 PUSH2 0xFBD PUSH2 0x36B PUSH2 0xFC5 SWAP4 PUSH2 0x786 JUMP JUMPDEST SWAP1 DUP4 SLOAD PUSH2 0xF6A JUMP JUMPDEST SWAP1 SSTORE JUMP JUMPDEST PUSH2 0x2D4 SWAP2 PUSH1 0x0 SWAP2 PUSH2 0xFAC JUMP JUMPDEST DUP2 DUP2 LT PUSH2 0xFE0 JUMPI POP POP JUMP JUMPDEST DUP1 PUSH2 0xFEE PUSH1 0x0 PUSH1 0x1 SWAP4 PUSH2 0xFC9 JUMP JUMPDEST ADD PUSH2 0xFD5 JUMP JUMPDEST SWAP2 SWAP1 PUSH1 0x1F DUP2 GT PUSH2 0x1003 JUMPI POP POP POP JUMP JUMPDEST PUSH2 0x1015 PUSH2 0x2D4 SWAP4 PUSH1 0x0 MSTORE PUSH1 0x20 PUSH1 0x0 KECCAK256 SWAP1 JUMP JUMPDEST SWAP1 PUSH1 0x20 PUSH1 0x1F DUP5 ADD DUP2 SWAP1 DIV DUP4 ADD SWAP4 LT PUSH2 0x1037 JUMPI JUMPDEST PUSH1 0x20 PUSH1 0x1F SWAP1 SWAP2 ADD DIV ADD SWAP1 PUSH2 0xFD5 JUMP JUMPDEST SWAP1 SWAP2 POP DUP2 SWAP1 PUSH2 0x1028 JUMP JUMPDEST SWAP2 SWAP1 PUSH8 0xFFFFFFFFFFFFFFFF DUP3 GT PUSH2 0x2BB JUMPI PUSH2 0x1066 DUP3 PUSH2 0x1060 DUP6 SLOAD PUSH2 0x7EB JUMP JUMPDEST DUP6 PUSH2 0xFF4 JUMP JUMPDEST PUSH1 0x0 SWAP1 PUSH1 0x1F DUP4 GT PUSH1 0x1 EQ PUSH2 0x10BF JUMPI PUSH2 0xFC5 SWAP3 SWAP2 PUSH1 0x0 SWAP2 DUP4 PUSH2 0x10B4 JUMPI JUMPDEST POP POP PUSH32 0xFFFFFFFFFFFFFFFFFFFFFFFFFFFFFFFFFFFFFFFFFFFFFFFFFFFFFFFFFFFFFFFF PUSH1 0x8 DUP4 MUL SHR NOT AND SWAP1 PUSH1 0x2 MUL OR SWAP1 JUMP JUMPDEST ADD CALLDATALOAD SWAP1 POP CODESIZE DUP1 PUSH2 0x1082 JUMP JUMPDEST PUSH1 0x1F NOT DUP4 AND SWAP2 PUSH2 0x10D4 DUP6 PUSH1 0x0 MSTORE PUSH1 0x20 PUSH1 0x0 KECCAK256 SWAP1 JUMP JUMPDEST SWAP3 DUP2 JUMPDEST DUP2 DUP2 LT PUSH2 0x1130 JUMPI POP SWAP2 PUSH1 0x2 SWAP4 SWAP2 DUP6 PUSH1 0x1 SWAP7 SWAP5 LT PUSH2 0x10F8 JUMPI JUMPDEST POP POP POP MUL ADD SWAP1 SSTORE JUMP JUMPDEST ADD CALLDATALOAD PUSH32 0xFFFFFFFFFFFFFFFFFFFFFFFFFFFFFFFFFFFFFFFFFFFFFFFFFFFFFFFFFFFFFFFF PUSH1 0x1F DUP5 AND PUSH1 0x8 MUL SHR NOT AND JUMPDEST SWAP1 SSTORE CODESIZE DUP1 DUP1 PUSH2 0x10EF JUMP JUMPDEST SWAP2 SWAP4 PUSH1 0x20 PUSH1 0x1 DUP2 SWAP3 DUP8 DUP8 ADD CALLDATALOAD DUP2 SSTORE ADD SWAP6 ADD SWAP3 ADD PUSH2 0x10D7 JUMP JUMPDEST SWAP1 PUSH2 0x2D4 SWAP3 SWAP2 PUSH2 0x1041 JUMP JUMPDEST SWAP1 CALLDATALOAD SWAP1 PUSH32 0xFFFFFFFFFFFFFFFFFFFFFFFFFFFFFFFFFFFFFFFFFFFFFFFFFFFFFFFFFFFFFFE1 CALLDATASIZE DUP3 SWAP1 SUB ADD DUP3 SLT ISZERO PUSH2 0x188 JUMPI ADD DUP1 CALLDATALOAD SWAP1 PUSH8 0xFFFFFFFFFFFFFFFF DUP3 GT PUSH2 0x188 JUMPI PUSH1 0x20 ADD SWAP2 PUSH1 0x20 DUP3 MUL CALLDATASIZE SUB DUP4 SGT PUSH2 0x188 JUMPI JUMP JUMPDEST PUSH32 0x4E487B7100000000000000000000000000000000000000000000000000000000 PUSH1 0x0 MSTORE PUSH1 0x11 PUSH1 0x4 MSTORE PUSH1 0x24 PUSH1 0x0 REVERT JUMPDEST DUP2 DUP2 LT PUSH2 0x11E2 JUMPI POP POP JUMP JUMPDEST DUP1 PUSH2 0x11F0 PUSH1 0x0 PUSH1 0x1 SWAP4 PUSH2 0xFC9 JUMP JUMPDEST ADD PUSH2 0x11D7 JUMP JUMPDEST SWAP1 SWAP2 DUP3 DUP2 LT PUSH2 0x1204 JUMPI POP POP POP JUMP JUMPDEST PUSH2 0x2D4 SWAP3 SWAP1 PUSH2 0x121A SWAP1 JUMPDEST SWAP3 PUSH1 0x0 MSTORE PUSH1 0x20 PUSH1 0x0 KECCAK256 SWAP1 JUMP JUMPDEST SWAP1 DUP2 ADD SWAP2 ADD PUSH2 0x11D7 JUMP JUMPDEST SWAP1 PUSH9 0x10000000000000000 DUP2 GT PUSH2 0x2BB JUMPI DUP2 PUSH2 0x1241 PUSH2 0x2D4 SWAP4 SLOAD SWAP1 JUMP JUMPDEST SWAP1 DUP3 DUP2 SSTORE PUSH2 0x11F6 JUMP JUMPDEST CALLDATALOAD PUSH2 0x36B DUP2 PUSH2 0x386 JUMP JUMPDEST SWAP1 PUSH8 0xFFFFFFFFFFFFFFFF DUP4 GT PUSH2 0x2BB JUMPI PUSH2 0x1277 PUSH2 0x120E PUSH1 0x1 SWAP3 PUSH2 0x36B DUP7 DUP7 PUSH2 0x1224 JUMP JUMPDEST SWAP3 DIV SWAP2 PUSH1 0x0 JUMPDEST DUP4 DUP2 LT PUSH2 0x128A JUMPI POP POP POP POP JUMP JUMPDEST PUSH1 0x1 SWAP1 PUSH1 0x20 PUSH2 0x129B PUSH2 0x36B DUP7 PUSH2 0x124A JUMP JUMPDEST SWAP5 ADD SWAP4 DUP2 DUP5 ADD SSTORE ADD PUSH2 0x127D JUMP JUMPDEST SWAP1 PUSH2 0x2D4 SWAP3 SWAP2 PUSH2 0x1254 JUMP JUMPDEST SWAP1 PUSH32 0xFFFFFFFFFFFFFFFFFFFFFFFFFFFFFFFFFFFFFFFFFFFFFFFFFFFFFFFFFFFFFFFF SWAP1 PUSH2 0xFA2 JUMP JUMPDEST SWAP1 PUSH2 0x12EB PUSH2 0x36B PUSH2 0xFC5 SWAP3 PUSH2 0x786 JUMP JUMPDEST DUP3 SLOAD PUSH2 0x12B3 JUMP JUMPDEST PUSH2 0x2D4 SWAP2 SWAP1 PUSH2 0x135F SWAP1 PUSH1 0x80 SWAP1 PUSH1 0x4 SWAP1 PUSH2 0x1315 DUP2 PUSH2 0x130F DUP8 DUP1 PUSH2 0xF17 JUMP JUMPDEST SWAP2 PUSH2 0x1148 JUMP JUMPDEST PUSH2 0x132F PUSH1 0x1 DUP3 ADD PUSH2 0x1329 PUSH1 0x20 DUP9 ADD DUP9 PUSH2 0x1153 JUMP JUMPDEST SWAP2 PUSH2 0x12A8 JUMP JUMPDEST PUSH2 0x1343 PUSH1 0x2 DUP3 ADD PUSH2 0x1329 PUSH1 0x40 DUP9 ADD DUP9 PUSH2 0x1153 JUMP JUMPDEST PUSH2 0x1357 PUSH1 0x3 DUP3 ADD PUSH2 0x1329 PUSH1 0x60 DUP9 ADD DUP9 PUSH2 0x1153 JUMP JUMPDEST ADD SWAP3 ADD PUSH2 0x124A JUMP JUMPDEST SWAP1 PUSH2 0x12DB JUMP JUMPDEST SWAP1 PUSH2 0x2D4 SWAP2 PUSH2 0x12F2 JUMP JUMPDEST SWAP1 PUSH2 0x137E PUSH2 0x2D4 SWAP3 PUSH1 0x2 PUSH2 0x793 JUMP JUMPDEST PUSH2 0x1365 JUMP JUMPDEST SWAP1 PUSH2 0x2D4 SWAP2 PUSH2 0xF05 JUMP JUMPDEST SWAP1 PUSH2 0x139C PUSH2 0x120E PUSH2 0x61A DUP5 SLOAD SWAP1 JUMP JUMPDEST SWAP1 PUSH1 0x0 JUMPDEST DUP2 DUP2 LT PUSH2 0x13AD JUMPI POP POP POP SWAP1 JUMP JUMPDEST SWAP1 SWAP2 SWAP3 PUSH2 0x13D1 PUSH2 0x13CA PUSH1 0x1 SWAP3 PUSH2 0x13C2 DUP8 PUSH2 0x7B2 JUMP JUMPDEST DUP2 MSTORE PUSH1 0x20 ADD SWAP1 JUMP JUMPDEST SWAP5 PUSH1 0x1 ADD SWAP1 JUMP JUMPDEST SWAP3 SWAP2 ADD PUSH2 0x13A0 JUMP JUMPDEST SWAP1 PUSH2 0x36B SWAP2 PUSH2 0x138D JUMP JUMPDEST SWAP1 PUSH2 0x2D4 PUSH2 0x8BD SWAP3 PUSH2 0x13F4 PUSH1 0x40 MLOAD SWAP1 JUMP JUMPDEST SWAP4 DUP5 DUP1 SWAP3 PUSH2 0x13D9 JUMP JUMPDEST PUSH2 0x36B SWAP1 PUSH2 0x13E3 JUMP JUMPDEST PUSH1 0x2 SWAP2 PUSH2 0x36B PUSH2 0x1444 PUSH2 0x143E PUSH1 0x3 PUSH2 0x1437 PUSH1 0x1 PUSH2 0x1423 DUP9 DUP11 PUSH2 0x793 JUMP JUMPDEST ADD SWAP7 DUP9 PUSH2 0x1430 DUP3 DUP3 PUSH2 0x793 JUMP JUMPDEST ADD SWAP9 PUSH2 0x793 JUMP JUMPDEST ADD SWAP5 PUSH2 0x13FD JUMP JUMPDEST SWAP5 PUSH2 0x13FD JUMP JUMPDEST SWAP3 PUSH2 0x13FD JUMP JUMPDEST SWAP1 PUSH1 0x5 SWAP1 PUSH1 0x2 PUSH2 0x145A DUP5 DUP5 PUSH2 0x793 JUMP JUMPDEST PUSH1 0x1 ADD PUSH2 0x1466 SWAP1 PUSH2 0x7B2 JUMP JUMPDEST PUSH2 0x1470 SWAP1 DUP3 PUSH2 0x793 JUMP JUMPDEST PUSH1 0x1 ADD SWAP3 DUP2 PUSH2 0x147F DUP7 DUP4 PUSH2 0x793 JUMP JUMPDEST PUSH1 0x1 ADD PUSH2 0x148B SWAP1 PUSH2 0x7B2 JUMP JUMPDEST PUSH2 0x1495 SWAP1 DUP3 PUSH2 0x793 JUMP JUMPDEST ADD SWAP5 PUSH2 0x14A0 SWAP2 PUSH2 0x793 JUMP JUMPDEST PUSH1 0x1 ADD PUSH2 0x14AC SWAP1 PUSH2 0x7B2 JUMP JUMPDEST PUSH2 0x14B5 SWAP2 PUSH2 0x793 JUMP JUMPDEST PUSH1 0x3 ADD SWAP2 PUSH2 0x14C2 SWAP1 PUSH2 0x13FD JUMP JUMPDEST SWAP3 PUSH2 0x14CC SWAP1 PUSH2 0x13FD JUMP JUMPDEST SWAP2 PUSH2 0x36B SWAP1 PUSH2 0x13FD JUMP JUMPDEST SWAP1 PUSH2 0x2D4 SWAP2 PUSH2 0x14E3 PUSH2 0x23D0 JUMP JUMPDEST PUSH2 0x159B JUMP JUMPDEST PUSH32 0xFFFFFFFFFFFFFFFFFFFFFFFFFFFFFFFFFFFFFFFFFFFFFFFFFFFFFFFFFFFFFFFF DUP2 EQ PUSH2 0x1515 JUMPI PUSH1 0x1 ADD SWAP1 JUMP JUMPDEST PUSH2 0x11A8 JUMP JUMPDEST PUSH32 0x4E487B7100000000000000000000000000000000000000000000000000000000 PUSH1 0x0 MSTORE PUSH1 0x32 PUSH1 0x4 MSTORE PUSH1 0x24 PUSH1 0x0 REVERT JUMPDEST SWAP2 SWAP1 DUP2 LT ISZERO PUSH2 0x1559 JUMPI PUSH1 0x20 MUL ADD SWAP1 JUMP JUMPDEST PUSH2 0x151A JUMP JUMPDEST CALLDATALOAD PUSH2 0x36B DUP2 PUSH2 0xDD6 JUMP JUMPDEST PUSH2 0x36B SWAP1 PUSH2 0x8CC JUMP JUMPDEST PUSH2 0x36B SWAP1 SLOAD PUSH2 0x1568 JUMP JUMPDEST SWAP1 PUSH1 0xFF SWAP1 PUSH2 0xFA2 JUMP JUMPDEST SWAP1 PUSH2 0x1594 PUSH2 0x36B PUSH2 0xFC5 SWAP3 ISZERO ISZERO SWAP1 JUMP JUMPDEST DUP3 SLOAD PUSH2 0x157B JUMP JUMPDEST SWAP2 SWAP1 PUSH1 0x0 JUMPDEST DUP2 DUP2 LT ISZERO PUSH2 0x1603 JUMPI PUSH2 0x15FE SWAP1 PUSH2 0x15F9 PUSH1 0x3 PUSH2 0x15F4 PUSH2 0x15DF PUSH2 0x15DB PUSH2 0x15D6 PUSH2 0x15D0 PUSH2 0x15CB DUP9 DUP12 DUP15 PUSH2 0x1549 JUMP JUMPDEST PUSH2 0x155E JUMP JUMPDEST DUP6 PUSH2 0xE9F JUMP JUMPDEST PUSH2 0x1571 JUMP JUMPDEST ISZERO SWAP1 JUMP JUMPDEST SWAP2 PUSH2 0x15EE PUSH2 0x15CB DUP7 DUP10 DUP13 PUSH2 0x1549 JUMP JUMPDEST SWAP1 PUSH2 0xE9F JUMP JUMPDEST PUSH2 0x1584 JUMP JUMPDEST PUSH2 0x14E8 JUMP JUMPDEST PUSH2 0x15A0 JUMP JUMPDEST POP POP SWAP1 POP JUMP JUMPDEST SWAP1 PUSH2 0x2D4 SWAP2 PUSH2 0x14D6 JUMP JUMPDEST SWAP3 SWAP2 SWAP1 PUSH2 0x1627 PUSH2 0x15DB PUSH2 0x15D6 CALLER PUSH1 0x3 PUSH2 0xE9F JUMP JUMPDEST PUSH2 0x1634 JUMPI PUSH2 0x2D4 SWAP4 PUSH2 0x16A9 JUMP JUMPDEST PUSH1 0x40 MLOAD PUSH32 0xEE90C46800000000000000000000000000000000000000000000000000000000 DUP2 MSTORE PUSH1 0x4 SWAP1 REVERT JUMPDEST SUB SWAP1 REVERT JUMPDEST SWAP1 DUP3 LT ISZERO PUSH2 0x1559 JUMPI PUSH1 0x20 PUSH2 0x21D SWAP3 MUL DUP2 ADD SWAP1 PUSH2 0xF17 JUMP JUMPDEST SWAP2 SWAP1 PUSH2 0x9B3 DUP2 PUSH2 0x1691 DUP2 PUSH2 0x311 SWAP6 PUSH1 0x20 SWAP2 DUP2 MSTORE ADD SWAP1 JUMP JUMPDEST DUP1 SWAP6 PUSH2 0x315 JUMP JUMPDEST PUSH1 0x20 DUP1 DUP3 MSTORE PUSH2 0x36B SWAP4 SWAP2 ADD SWAP2 PUSH2 0x167A JUMP JUMPDEST SWAP3 SWAP4 SWAP3 PUSH1 0x0 JUMPDEST DUP3 DUP2 LT ISZERO PUSH2 0x1756 JUMPI DUP1 PUSH2 0x16ED PUSH2 0x16C9 PUSH2 0x1751 SWAP4 DUP10 DUP9 PUSH2 0x1663 JUMP JUMPDEST SWAP1 PUSH2 0x16E8 PUSH1 0x4 PUSH2 0x16E2 PUSH2 0x16DD DUP8 DUP12 DUP12 PUSH2 0x1549 JUMP JUMPDEST PUSH2 0x124A JUMP JUMPDEST SWAP1 PUSH2 0x793 JUMP JUMPDEST PUSH2 0x1148 JUMP JUMPDEST PUSH2 0x16FB PUSH2 0x16DD DUP3 DUP7 DUP7 PUSH2 0x1549 JUMP JUMPDEST PUSH2 0x1706 DUP3 DUP10 DUP9 PUSH2 0x1663 JUMP JUMPDEST PUSH2 0x1733 PUSH32 0x88C3FF32D649F190A2E1493FE9113AA0F0304E3A9C827940AC9C76B84EDBF72D SWAP4 SWAP3 SWAP4 SWAP3 PUSH2 0x786 JUMP JUMPDEST SWAP3 PUSH2 0x1749 PUSH2 0x1740 PUSH1 0x40 MLOAD SWAP1 JUMP JUMPDEST SWAP3 DUP4 SWAP3 DUP4 PUSH2 0x1698 JUMP JUMPDEST SUB SWAP1 LOG2 PUSH2 0x14E8 JUMP JUMPDEST PUSH2 0x16AF JUMP JUMPDEST POP POP POP POP SWAP1 POP JUMP JUMPDEST SWAP1 PUSH2 0x2D4 SWAP4 SWAP3 SWAP2 PUSH2 0x1613 JUMP JUMPDEST SWAP1 SWAP2 PUSH2 0x311 SWAP1 DUP4 SWAP1 DUP1 SWAP4 PUSH2 0x315 JUMP JUMPDEST PUSH2 0x311 PUSH2 0x1791 SWAP3 PUSH1 0x20 SWAP3 PUSH2 0x178B DUP2 MLOAD SWAP1 JUMP JUMPDEST SWAP5 DUP6 SWAP3 SWAP1 JUMP JUMPDEST SWAP4 DUP5 SWAP2 ADD PUSH2 0x966 JUMP JUMPDEST PUSH2 0x36B SWAP4 SWAP3 PUSH2 0x17A8 SWAP3 PUSH2 0x176A JUMP JUMPDEST SWAP1 PUSH2 0x1779 JUMP JUMPDEST PUSH2 0x36B SWAP1 PUSH2 0x786 JUMP JUMPDEST SWAP1 PUSH2 0x36B SWAP3 PUSH2 0x17EF SWAP2 PUSH2 0x17C8 PUSH1 0x0 SWAP1 JUMP JUMPDEST POP PUSH2 0x17E3 PUSH2 0x17D5 PUSH1 0x40 MLOAD SWAP1 JUMP JUMPDEST SWAP5 DUP6 SWAP4 PUSH1 0x20 DUP6 ADD SWAP4 DUP5 PUSH2 0x179A JUMP JUMPDEST SWAP1 DUP2 SUB DUP3 MSTORE SUB DUP3 PUSH2 0x27B JUMP JUMPDEST PUSH2 0x1801 PUSH2 0x17FA DUP3 MLOAD SWAP1 JUMP JUMPDEST SWAP2 PUSH1 0x20 ADD SWAP1 JUMP JUMPDEST KECCAK256 PUSH2 0x17AE JUMP JUMPDEST SWAP2 SWAP1 DUP3 SUB SWAP2 DUP3 GT PUSH2 0x1515 JUMPI JUMP JUMPDEST SWAP1 PUSH2 0x181D DUP3 MLOAD SWAP1 JUMP JUMPDEST DUP2 LT ISZERO PUSH2 0x1559 JUMPI PUSH1 0x20 DUP1 SWAP2 MUL ADD ADD SWAP1 JUMP JUMPDEST SWAP2 SWAP1 DUP3 ADD DUP1 SWAP3 GT PUSH2 0x1515 JUMPI JUMP JUMPDEST SWAP1 PUSH1 0x0 JUMPDEST PUSH1 0x40 DUP4 ADD DUP1 MLOAD MLOAD PUSH2 0x185E PUSH2 0x36B PUSH1 0x1 SWAP3 PUSH2 0x1858 DUP5 PUSH2 0x786 JUMP JUMPDEST SWAP1 PUSH2 0x1807 JUMP JUMPDEST DUP4 LT ISZERO PUSH2 0x18D1 JUMPI PUSH2 0x187A PUSH2 0x36B PUSH2 0x1876 DUP6 DUP6 MLOAD PUSH2 0x1814 JUMP JUMPDEST MLOAD SWAP1 JUMP JUMPDEST DUP5 GT SWAP2 DUP3 PUSH2 0x18A1 JUMPI JUMPDEST POP POP PUSH2 0x189B JUMPI PUSH2 0x1894 PUSH1 0x40 SWAP2 PUSH2 0x14E8 JUMP JUMPDEST SWAP1 POP PUSH2 0x183F JUMP JUMPDEST SWAP2 POP POP SWAP1 JUMP JUMPDEST PUSH2 0x18C7 SWAP3 POP PUSH2 0x36B SWAP2 PUSH2 0x18C1 PUSH2 0x18BB PUSH2 0x1876 SWAP4 MLOAD SWAP3 PUSH2 0x786 JUMP JUMPDEST DUP7 PUSH2 0x182E JUMP JUMPDEST SWAP1 PUSH2 0x1814 JUMP JUMPDEST DUP3 GT ISZERO CODESIZE DUP1 PUSH2 0x1883 JUMP JUMPDEST PUSH1 0x40 MLOAD PUSH32 0xB48C592600000000000000000000000000000000000000000000000000000000 DUP2 MSTORE PUSH1 0x4 SWAP1 REVERT JUMPDEST SWAP9 SWAP8 SWAP7 SWAP6 SWAP5 SWAP4 SWAP3 SWAP2 SWAP1 PUSH2 0x1916 PUSH2 0x15DB PUSH2 0x15D6 CALLER PUSH1 0x3 PUSH2 0xE9F JUMP JUMPDEST PUSH2 0x1634 JUMPI PUSH2 0x2D4 SWAP10 SWAP6 PUSH2 0x2D4 SWAP10 SWAP6 SWAP9 SWAP5 SWAP9 SWAP8 SWAP2 SWAP8 PUSH1 0x0 SWAP10 PUSH2 0x1C60 JUMP JUMPDEST SWAP1 PUSH2 0x2D4 SWAP10 SWAP9 SWAP8 SWAP7 SWAP6 SWAP5 SWAP4 SWAP3 SWAP2 PUSH2 0x18FC JUMP JUMPDEST SWAP9 SWAP8 SWAP7 SWAP6 SWAP5 SWAP4 SWAP3 SWAP2 SWAP1 PUSH2 0x195E PUSH2 0x15DB PUSH2 0x15D6 CALLER PUSH1 0x3 PUSH2 0xE9F JUMP JUMPDEST PUSH2 0x1634 JUMPI PUSH2 0x2D4 SWAP10 SWAP6 PUSH2 0x2D4 SWAP10 SWAP6 SWAP9 SWAP5 SWAP9 SWAP8 SWAP2 SWAP8 PUSH1 0x1 SWAP10 PUSH2 0x1C60 JUMP JUMPDEST SWAP1 PUSH2 0x2D4 SWAP10 SWAP9 SWAP8 SWAP7 SWAP6 SWAP5 SWAP4 SWAP3 SWAP2 PUSH2 0x1944 JUMP JUMPDEST SWAP7 SWAP6 SWAP5 SWAP4 SWAP3 SWAP2 SWAP1 PUSH2 0x19A4 PUSH2 0x15DB PUSH2 0x15D6 CALLER PUSH1 0x3 PUSH2 0xE9F JUMP JUMPDEST PUSH2 0x1634 JUMPI PUSH2 0x2D4 SWAP8 SWAP6 SWAP4 SWAP2 PUSH2 0x2D4 SWAP8 SWAP6 SWAP4 SWAP2 PUSH1 0x1 SWAP8 PUSH2 0x1ADB JUMP JUMPDEST SWAP1 PUSH2 0x2D4 SWAP8 SWAP7 SWAP6 SWAP5 SWAP4 SWAP3 SWAP2 PUSH2 0x198C JUMP JUMPDEST SWAP7 SWAP6 SWAP5 SWAP4 SWAP3 SWAP2 SWAP1 PUSH2 0x19E6 PUSH2 0x15DB PUSH2 0x15D6 CALLER PUSH1 0x3 PUSH2 0xE9F JUMP JUMPDEST PUSH2 0x1634 JUMPI PUSH2 0x2D4 SWAP8 SWAP6 SWAP4 SWAP2 PUSH2 0x2D4 SWAP8 SWAP6 SWAP4 SWAP2 PUSH1 0x0 SWAP8 PUSH2 0x1ADB JUMP JUMPDEST SWAP1 PUSH2 0x2D4 SWAP8 SWAP7 SWAP6 SWAP5 SWAP4 SWAP3 SWAP2 PUSH2 0x19CE JUMP JUMPDEST PUSH2 0x36B SWAP1 PUSH2 0x8A3 JUMP JUMPDEST PUSH2 0x36B PUSH1 0xA0 PUSH2 0x2C0 JUMP JUMPDEST SWAP1 PUSH2 0x2D4 PUSH2 0x1A8D PUSH1 0x4 PUSH2 0x1A34 PUSH2 0x1A19 JUMP JUMPDEST SWAP5 PUSH2 0x1A45 PUSH2 0x1A41 DUP3 PUSH2 0x8A3 JUMP JUMPDEST DUP8 MSTORE JUMP JUMPDEST PUSH2 0x1A5B PUSH2 0x1A54 PUSH1 0x1 DUP4 ADD PUSH2 0x13E3 JUMP JUMPDEST PUSH1 0x20 DUP9 ADD MSTORE JUMP JUMPDEST PUSH2 0x1A71 PUSH2 0x1A6A PUSH1 0x2 DUP4 ADD PUSH2 0x13E3 JUMP JUMPDEST PUSH1 0x40 DUP9 ADD MSTORE JUMP JUMPDEST PUSH2 0x1A87 PUSH2 0x1A80 PUSH1 0x3 DUP4 ADD PUSH2 0x13E3 JUMP JUMPDEST PUSH1 0x60 DUP9 ADD MSTORE JUMP JUMPDEST ADD PUSH2 0x7B2 JUMP JUMPDEST PUSH1 0x80 DUP5 ADD MSTORE JUMP JUMPDEST PUSH2 0x36B SWAP1 PUSH2 0x1A23 JUMP JUMPDEST PUSH32 0x4E487B7100000000000000000000000000000000000000000000000000000000 PUSH1 0x0 MSTORE PUSH1 0x12 PUSH1 0x4 MSTORE PUSH1 0x24 PUSH1 0x0 REVERT JUMPDEST DUP2 ISZERO PUSH2 0x1AD6 JUMPI MOD SWAP1 JUMP JUMPDEST PUSH2 0x1A9D JUMP JUMPDEST SWAP9 SWAP8 SWAP7 SWAP4 SWAP9 SWAP6 SWAP3 SWAP6 SWAP5 SWAP2 SWAP1 SWAP5 PUSH2 0x1AEF PUSH1 0x0 SWAP1 JUMP JUMPDEST DUP8 DUP2 LT ISZERO PUSH2 0x1C21 JUMPI DUP1 DUP10 DUP10 DUP10 DUP10 DUP16 DUP10 DUP10 DUP8 DUP14 SWAP4 DUP2 DUP13 PUSH1 0x4 PUSH2 0x1B11 DUP4 DUP12 DUP5 PUSH2 0x1549 JUMP JUMPDEST PUSH2 0x1B1A SWAP1 PUSH2 0x124A JUMP JUMPDEST PUSH2 0x1B23 SWAP2 PUSH2 0x793 JUMP JUMPDEST PUSH2 0x1B2E DUP4 DUP9 DUP7 PUSH2 0x1663 JUMP JUMPDEST SWAP1 SWAP2 PUSH2 0x1B39 SWAP1 PUSH2 0x1A10 JUMP JUMPDEST SWAP2 PUSH2 0x1B43 SWAP3 PUSH2 0x17B7 JUMP JUMPDEST SWAP12 DUP13 SWAP6 DUP2 PUSH1 0x2 PUSH2 0x1B54 DUP3 DUP16 DUP6 PUSH2 0x1549 JUMP JUMPDEST PUSH2 0x1B5D SWAP1 PUSH2 0x124A JUMP JUMPDEST PUSH2 0x1B66 SWAP2 PUSH2 0x793 JUMP JUMPDEST PUSH2 0x1B6F SWAP1 PUSH2 0x1A94 JUMP JUMPDEST PUSH1 0x40 DUP2 ADD MLOAD DUP1 MLOAD SWAP2 SWAP10 SWAP2 PUSH2 0x1B83 PUSH1 0x1 PUSH2 0x786 JUMP JUMPDEST PUSH2 0x1B8C SWAP2 PUSH2 0x1807 JUMP JUMPDEST PUSH2 0x1B95 SWAP2 PUSH2 0x1814 JUMP JUMPDEST MLOAD PUSH2 0x1B9F SWAP2 PUSH2 0x1ACC JUMP JUMPDEST PUSH2 0x1BA9 SWAP1 DUP10 PUSH2 0x183B JUMP JUMPDEST SWAP13 PUSH2 0x1BB3 SWAP3 PUSH2 0x1549 JUMP JUMPDEST PUSH2 0x1BBC SWAP1 PUSH2 0x124A JUMP JUMPDEST SWAP10 PUSH2 0x1BC6 SWAP3 PUSH2 0x1549 JUMP JUMPDEST PUSH2 0x1BCF SWAP1 PUSH2 0x124A JUMP JUMPDEST SWAP9 DUP1 PUSH1 0x60 DUP7 ADD MLOAD SWAP1 PUSH2 0x1BE0 SWAP2 PUSH2 0x1814 JUMP JUMPDEST MLOAD SWAP5 PUSH1 0x20 ADD MLOAD SWAP1 PUSH2 0x1BF0 SWAP2 PUSH2 0x1814 JUMP JUMPDEST MLOAD SWAP5 PUSH2 0x1BFB SWAP3 PUSH2 0x1663 JUMP JUMPDEST SWAP6 PUSH2 0x1C07 SWAP3 SWAP2 SWAP6 PUSH2 0x1663 JUMP JUMPDEST SWAP7 PUSH2 0x1C13 SWAP10 SWAP2 SWAP7 PUSH2 0x2077 JUMP JUMPDEST PUSH2 0x1C1C SWAP1 PUSH2 0x14E8 JUMP JUMPDEST PUSH2 0x1AEF JUMP JUMPDEST POP POP POP POP POP POP POP POP POP SWAP1 POP JUMP JUMPDEST PUSH32 0xFFFFFFFFFFFFFFFF000000000000000000000000000000000000000000000000 DUP2 AND PUSH2 0x388 JUMP JUMPDEST CALLDATALOAD PUSH2 0x36B DUP2 PUSH2 0x1C2E JUMP JUMPDEST SWAP8 SWAP7 SWAP5 SWAP9 SWAP6 SWAP4 SWAP3 SWAP11 SWAP2 SWAP10 SWAP1 SWAP11 PUSH1 0xE0 MSTORE PUSH1 0x80 MSTORE PUSH1 0x0 PUSH1 0xA0 MSTORE PUSH2 0x1C7F PUSH1 0x0 SWAP1 JUMP JUMPDEST PUSH1 0xA0 MSTORE JUMPDEST PUSH2 0x1C8F PUSH2 0x36B PUSH1 0xE0 MLOAD SWAP1 JUMP JUMPDEST PUSH1 0xA0 MLOAD LT ISZERO PUSH2 0x1DFA JUMPI PUSH1 0x4 PUSH1 0xA0 MLOAD PUSH2 0x1CA8 SWAP1 DUP13 DUP11 PUSH2 0x1549 JUMP JUMPDEST PUSH2 0x1CB1 SWAP1 PUSH2 0x124A JUMP JUMPDEST PUSH2 0x1CBA SWAP2 PUSH2 0x793 JUMP JUMPDEST PUSH1 0xA0 MLOAD PUSH2 0x1CC8 SWAP1 DUP7 DUP7 PUSH2 0x1663 JUMP JUMPDEST SWAP1 SWAP2 PUSH2 0x1CD3 SWAP1 PUSH2 0x1A10 JUMP JUMPDEST SWAP2 PUSH2 0x1CDD SWAP3 PUSH2 0x17B7 JUMP JUMPDEST PUSH1 0xC0 MSTORE PUSH1 0x2 PUSH1 0xA0 MLOAD PUSH1 0xE0 MLOAD SWAP1 PUSH2 0x1CF3 SWAP2 DUP13 PUSH2 0x1549 JUMP JUMPDEST PUSH2 0x1CFC SWAP1 PUSH2 0x124A JUMP JUMPDEST PUSH2 0x1D05 SWAP2 PUSH2 0x793 JUMP JUMPDEST PUSH2 0x1D0E SWAP1 PUSH2 0x1A94 JUMP JUMPDEST PUSH1 0x40 DUP2 ADD MLOAD DUP1 MLOAD PUSH2 0x1D1F PUSH1 0x1 PUSH2 0x786 JUMP JUMPDEST PUSH2 0x1D28 SWAP2 PUSH2 0x1807 JUMP JUMPDEST PUSH2 0x1D31 SWAP2 PUSH2 0x1814 JUMP JUMPDEST MLOAD PUSH1 0xC0 MLOAD SWAP1 PUSH2 0x1D3F SWAP2 PUSH2 0x1ACC JUMP JUMPDEST PUSH2 0x1D49 SWAP1 DUP3 PUSH2 0x183B JUMP JUMPDEST PUSH1 0xA0 MLOAD PUSH1 0xE0 MLOAD SWAP1 PUSH2 0x1D5A SWAP2 DUP14 PUSH2 0x1549 JUMP JUMPDEST PUSH2 0x1D63 SWAP1 PUSH2 0x124A JUMP JUMPDEST SWAP2 DUP13 PUSH1 0xA0 MLOAD PUSH2 0x1D72 SWAP2 DUP13 PUSH2 0x1549 JUMP JUMPDEST PUSH2 0x1D7B SWAP1 PUSH2 0x124A JUMP JUMPDEST SWAP2 DUP1 PUSH1 0x60 DUP4 ADD MLOAD SWAP1 PUSH2 0x1D8C SWAP2 PUSH2 0x1814 JUMP JUMPDEST MLOAD SWAP2 PUSH1 0x20 ADD MLOAD SWAP1 PUSH2 0x1D9C SWAP2 PUSH2 0x1814 JUMP JUMPDEST MLOAD SWAP1 PUSH1 0xA0 MLOAD PUSH2 0x1DAC SWAP1 DUP14 DUP9 PUSH2 0x1549 JUMP JUMPDEST PUSH2 0x1DB5 SWAP1 PUSH2 0x1C56 JUMP JUMPDEST PUSH1 0xA0 MLOAD PUSH2 0x1DC3 SWAP1 DUP11 DUP11 PUSH2 0x1663 JUMP JUMPDEST SWAP2 DUP13 DUP13 PUSH1 0xA0 MLOAD SWAP1 PUSH2 0x1DD3 SWAP3 PUSH2 0x1663 JUMP JUMPDEST SWAP6 SWAP1 SWAP5 PUSH1 0x80 MLOAD SWAP8 PUSH1 0xC0 MLOAD SWAP1 PUSH2 0x1DE7 SWAP11 PUSH2 0x22B8 JUMP JUMPDEST PUSH2 0x1DF2 PUSH1 0xA0 MLOAD PUSH2 0x14E8 JUMP JUMPDEST PUSH1 0xA0 MSTORE PUSH2 0x1C83 JUMP JUMPDEST SWAP9 POP POP POP POP POP POP POP POP POP JUMP JUMPDEST PUSH2 0x36B SWAP1 SLOAD PUSH2 0x7EB JUMP JUMPDEST SWAP1 DUP1 DUP3 EQ PUSH2 0x1F29 JUMPI PUSH2 0x1E21 DUP2 PUSH2 0x1E06 JUMP JUMPDEST SWAP1 PUSH8 0xFFFFFFFFFFFFFFFF DUP3 GT PUSH2 0x2BB JUMPI PUSH2 0x1E3F DUP3 PUSH2 0x1060 DUP6 SLOAD PUSH2 0x7EB JUMP JUMPDEST PUSH1 0x0 SWAP1 PUSH1 0x1F DUP4 GT PUSH1 0x1 EQ PUSH2 0x1E97 JUMPI PUSH2 0xFC5 SWAP3 SWAP2 PUSH1 0x0 SWAP2 DUP4 PUSH2 0x1E8C JUMPI POP POP PUSH32 0xFFFFFFFFFFFFFFFFFFFFFFFFFFFFFFFFFFFFFFFFFFFFFFFFFFFFFFFFFFFFFFFF PUSH1 0x8 DUP4 MUL SHR NOT AND SWAP1 PUSH1 0x2 MUL OR SWAP1 JUMP JUMPDEST ADD SLOAD SWAP1 POP CODESIZE DUP1 PUSH2 0x1082 JUMP JUMPDEST SWAP1 PUSH2 0x1EAC PUSH1 0x1F NOT DUP5 AND SWAP3 PUSH1 0x0 MSTORE PUSH1 0x20 PUSH1 0x0 KECCAK256 SWAP1 JUMP JUMPDEST SWAP1 PUSH2 0x1EBC DUP6 PUSH1 0x0 MSTORE PUSH1 0x20 PUSH1 0x0 KECCAK256 SWAP1 JUMP JUMPDEST SWAP3 DUP2 JUMPDEST DUP2 DUP2 LT PUSH2 0x1F11 JUMPI POP SWAP2 PUSH1 0x2 SWAP4 SWAP2 DUP6 PUSH1 0x1 SWAP7 SWAP5 LT PUSH2 0x1EDF JUMPI POP POP POP MUL ADD SWAP1 SSTORE JUMP JUMPDEST ADD SLOAD PUSH32 0xFFFFFFFFFFFFFFFFFFFFFFFFFFFFFFFFFFFFFFFFFFFFFFFFFFFFFFFFFFFFFFFF PUSH1 0x8 PUSH1 0x1F DUP6 AND MUL SHR NOT AND PUSH2 0x1126 JUMP JUMPDEST SWAP2 SWAP4 PUSH1 0x1 DUP1 PUSH1 0x20 SWAP3 DUP8 DUP8 ADD SLOAD DUP2 SSTORE ADD SWAP6 ADD SWAP3 ADD PUSH2 0x1EBF JUMP JUMPDEST POP POP JUMP JUMPDEST SWAP1 PUSH2 0x2D4 SWAP2 PUSH2 0x1E10 JUMP JUMPDEST SWAP1 PUSH2 0x36B SWAP1 PUSH2 0x120 PUSH2 0x2034 PUSH1 0x8 PUSH2 0x1FF5 PUSH2 0x1FE4 PUSH2 0x1FD3 PUSH2 0x140 DUP8 ADD PUSH2 0x1F66 PUSH2 0x1F62 PUSH1 0x0 DUP13 ADD SLOAD PUSH2 0x7AB JUMP JUMPDEST DUP10 MSTORE JUMP JUMPDEST PUSH2 0x1F7D PUSH2 0x1F76 PUSH1 0x1 DUP13 ADD SLOAD PUSH2 0x7AB JUMP JUMPDEST PUSH1 0x20 DUP11 ADD MSTORE JUMP JUMPDEST PUSH2 0x1F94 PUSH2 0x1F8D PUSH1 0x2 DUP13 ADD SLOAD PUSH2 0x7AB JUMP JUMPDEST PUSH1 0x40 DUP11 ADD MSTORE JUMP JUMPDEST PUSH2 0x1FAB PUSH2 0x1FA4 PUSH1 0x3 DUP13 ADD SLOAD PUSH2 0x7AB JUMP JUMPDEST PUSH1 0x60 DUP11 ADD MSTORE JUMP JUMPDEST PUSH2 0x1FC2 PUSH2 0x1FBB PUSH1 0x4 DUP13 ADD SLOAD PUSH2 0x7AB JUMP JUMPDEST PUSH1 0x80 DUP11 ADD MSTORE JUMP JUMPDEST PUSH1 0x5 DUP11 ADD DUP9 DUP3 SUB PUSH1 0xA0 DUP11 ADD MSTORE PUSH2 0x815 JUMP JUMPDEST PUSH1 0x6 DUP10 ADD DUP8 DUP3 SUB PUSH1 0xC0 DUP10 ADD MSTORE PUSH2 0x815 JUMP JUMPDEST PUSH1 0x7 DUP9 ADD DUP7 DUP3 SUB PUSH1 0xE0 DUP9 ADD MSTORE PUSH2 0x815 JUMP JUMPDEST SWAP6 ADD SLOAD PUSH2 0x202F PUSH2 0x2005 DUP3 PUSH1 0xC0 SHL SWAP1 JUMP JUMPDEST PUSH32 0xFFFFFFFFFFFFFFFF000000000000000000000000000000000000000000000000 AND PUSH2 0x100 DUP7 ADD MSTORE JUMP JUMPDEST PUSH2 0x8C4 JUMP JUMPDEST ISZERO ISZERO SWAP2 ADD MSTORE JUMP JUMPDEST PUSH1 0x20 DUP1 DUP3 MSTORE PUSH2 0x36B SWAP3 SWAP2 ADD SWAP1 PUSH2 0x1F37 JUMP JUMPDEST SWAP1 PUSH9 0xFF0000000000000000 SWAP1 PUSH1 0x40 SHL PUSH2 0xFA2 JUMP JUMPDEST SWAP1 PUSH2 0x2070 PUSH2 0x36B PUSH2 0xFC5 SWAP3 ISZERO ISZERO SWAP1 JUMP JUMPDEST DUP3 SLOAD PUSH2 0x204C JUMP JUMPDEST SWAP9 SWAP8 SWAP5 SWAP3 SWAP1 SWAP4 SWAP7 SWAP6 SWAP2 PUSH1 0x5 SWAP10 PUSH2 0x208D PUSH1 0x1 PUSH2 0x7B2 JUMP JUMPDEST PUSH2 0x2097 SWAP1 DUP13 PUSH2 0x793 JUMP JUMPDEST PUSH1 0x1 ADD SWAP1 PUSH2 0x20A4 SWAP2 PUSH2 0x12DB JUMP JUMPDEST DUP5 PUSH2 0x20AF PUSH1 0x1 PUSH2 0x7B2 JUMP JUMPDEST PUSH2 0x20B9 SWAP1 DUP13 PUSH2 0x793 JUMP JUMPDEST PUSH2 0x20C3 SWAP2 SWAP1 PUSH2 0x12DB JUMP JUMPDEST PUSH2 0x20CD PUSH1 0x1 PUSH2 0x7B2 JUMP JUMPDEST PUSH2 0x20D7 SWAP1 DUP12 PUSH2 0x793 JUMP JUMPDEST PUSH1 0x2 ADD SWAP1 PUSH2 0x20E4 SWAP2 PUSH2 0x12DB JUMP JUMPDEST PUSH2 0x20EE PUSH1 0x1 PUSH2 0x7B2 JUMP JUMPDEST PUSH2 0x20F8 SWAP1 DUP11 PUSH2 0x793 JUMP JUMPDEST PUSH1 0x4 ADD SWAP1 PUSH2 0x2105 SWAP2 PUSH2 0x12DB JUMP JUMPDEST PUSH2 0x210F PUSH1 0x1 PUSH2 0x7B2 JUMP JUMPDEST PUSH2 0x2119 SWAP1 DUP10 PUSH2 0x793 JUMP JUMPDEST PUSH1 0x6 ADD SWAP2 PUSH2 0x2126 SWAP3 PUSH2 0x1148 JUMP JUMPDEST PUSH2 0x2131 SWAP1 PUSH1 0x4 PUSH2 0x793 JUMP JUMPDEST DUP6 PUSH2 0x213C PUSH1 0x1 PUSH2 0x7B2 JUMP JUMPDEST PUSH2 0x2146 SWAP1 DUP3 PUSH2 0x793 JUMP JUMPDEST ADD SWAP1 PUSH2 0x2151 SWAP2 PUSH2 0x1F2D JUMP JUMPDEST PUSH2 0x215B PUSH1 0x1 PUSH2 0x7B2 JUMP JUMPDEST PUSH2 0x2165 SWAP1 DUP7 PUSH2 0x793 JUMP JUMPDEST PUSH1 0x7 ADD SWAP2 PUSH2 0x2172 SWAP3 PUSH2 0x1148 JUMP JUMPDEST PUSH2 0x217C PUSH1 0x1 PUSH2 0x7B2 JUMP JUMPDEST PUSH2 0x2186 SWAP1 DUP5 PUSH2 0x793 JUMP JUMPDEST PUSH1 0x3 ADD SWAP1 PUSH2 0x2193 SWAP2 PUSH2 0x12DB JUMP JUMPDEST DUP1 ISZERO PUSH2 0x222F JUMPI PUSH2 0x21B8 SWAP1 PUSH1 0x8 PUSH2 0x21B2 PUSH2 0x21AC PUSH1 0x1 PUSH2 0x7B2 JUMP JUMPDEST DUP6 PUSH2 0x793 JUMP JUMPDEST ADD PUSH2 0x2060 JUMP JUMPDEST PUSH2 0x21E9 PUSH2 0x21C5 PUSH1 0x1 PUSH2 0x7B2 JUMP JUMPDEST SWAP2 PUSH2 0x21D0 PUSH1 0x1 PUSH2 0x7B2 JUMP JUMPDEST SWAP1 PUSH2 0x21E4 PUSH2 0x21DD DUP4 PUSH2 0x14E8 JUMP JUMPDEST PUSH1 0x1 PUSH2 0x12DB JUMP JUMPDEST PUSH2 0x793 JUMP JUMPDEST SWAP1 PUSH2 0x222A PUSH2 0x2217 PUSH32 0xD98FB183186A869F9D9841D348978B15CA5B38F526400B74CE40912609A0E50E SWAP3 PUSH2 0x786 JUMP JUMPDEST SWAP3 PUSH2 0x2221 PUSH1 0x40 MLOAD SWAP1 JUMP JUMPDEST SWAP2 DUP3 SWAP2 DUP3 PUSH2 0x203B JUMP JUMPDEST SUB SWAP1 LOG2 JUMP JUMPDEST POP PUSH2 0x223D PUSH2 0x21C5 PUSH1 0x1 PUSH2 0x7B2 JUMP JUMPDEST SWAP1 PUSH2 0x222A PUSH2 0x2217 PUSH32 0xB11A9B2710B8AF1D6A5522154AF17D8676D49521FDFE416B0C91F45CCAE5FD5C SWAP3 PUSH2 0x786 JUMP JUMPDEST SWAP1 PUSH8 0xFFFFFFFFFFFFFFFF SWAP1 PUSH2 0xFA2 JUMP JUMPDEST SWAP1 PUSH2 0x22B1 PUSH2 0x22AB PUSH2 0xFC5 SWAP3 PUSH32 0xFFFFFFFFFFFFFFFF000000000000000000000000000000000000000000000000 AND SWAP1 JUMP JUMPDEST PUSH1 0xC0 SHR SWAP1 JUMP JUMPDEST DUP3 SLOAD PUSH2 0x226B JUMP JUMPDEST SWAP10 SWAP9 SWAP6 SWAP3 SWAP1 SWAP4 SWAP8 SWAP7 SWAP2 PUSH1 0x5 SWAP11 PUSH2 0x22CE PUSH1 0x1 PUSH2 0x7B2 JUMP JUMPDEST PUSH2 0x22D8 SWAP1 DUP14 PUSH2 0x793 JUMP JUMPDEST PUSH1 0x1 ADD SWAP1 PUSH2 0x22E5 SWAP2 PUSH2 0x12DB JUMP JUMPDEST DUP5 PUSH2 0x22F0 PUSH1 0x1 PUSH2 0x7B2 JUMP JUMPDEST PUSH2 0x22FA SWAP1 DUP14 PUSH2 0x793 JUMP JUMPDEST PUSH2 0x2304 SWAP2 SWAP1 PUSH2 0x12DB JUMP JUMPDEST PUSH2 0x230E PUSH1 0x1 PUSH2 0x7B2 JUMP JUMPDEST PUSH2 0x2318 SWAP1 DUP13 PUSH2 0x793 JUMP JUMPDEST PUSH1 0x2 ADD SWAP1 PUSH2 0x2325 SWAP2 PUSH2 0x12DB JUMP JUMPDEST PUSH2 0x232F PUSH1 0x1 PUSH2 0x7B2 JUMP JUMPDEST PUSH2 0x2339 SWAP1 DUP12 PUSH2 0x793 JUMP JUMPDEST PUSH1 0x4 ADD SWAP1 PUSH2 0x2346 SWAP2 PUSH2 0x12DB JUMP JUMPDEST PUSH2 0x2350 PUSH1 0x1 PUSH2 0x7B2 JUMP JUMPDEST PUSH2 0x235A SWAP1 DUP11 PUSH2 0x793 JUMP JUMPDEST PUSH1 0x6 ADD SWAP2 PUSH2 0x2367 SWAP3 PUSH2 0x1148 JUMP JUMPDEST PUSH2 0x2372 SWAP1 PUSH1 0x4 PUSH2 0x793 JUMP JUMPDEST DUP7 PUSH2 0x237D PUSH1 0x1 PUSH2 0x7B2 JUMP JUMPDEST PUSH2 0x2387 SWAP1 DUP3 PUSH2 0x793 JUMP JUMPDEST ADD SWAP1 PUSH2 0x2392 SWAP2 PUSH2 0x1F2D JUMP JUMPDEST PUSH2 0x239C PUSH1 0x1 PUSH2 0x7B2 JUMP JUMPDEST PUSH2 0x23A6 SWAP1 DUP8 PUSH2 0x793 JUMP JUMPDEST PUSH1 0x8 ADD SWAP1 PUSH2 0x2151 SWAP2 PUSH2 0x227B JUMP JUMPDEST PUSH2 0x36B SWAP1 PUSH2 0xB5D JUMP JUMPDEST PUSH2 0x36B SWAP1 SLOAD PUSH2 0x23B3 JUMP JUMPDEST PUSH2 0x36B PUSH1 0x0 PUSH2 0x23BC JUMP JUMPDEST PUSH2 0x23D8 PUSH2 0x23C6 JUMP JUMPDEST CALLER SWAP1 DUP2 SWAP1 PUSH20 0xFFFFFFFFFFFFFFFFFFFFFFFFFFFFFFFFFFFFFFFF AND SUB PUSH2 0x23FA JUMPI POP JUMP JUMPDEST PUSH2 0x165F SWAP1 PUSH2 0x2407 PUSH1 0x40 MLOAD SWAP1 JUMP JUMPDEST SWAP2 DUP3 SWAP2 PUSH32 0x118CDAA700000000000000000000000000000000000000000000000000000000 DUP4 MSTORE PUSH1 0x4 DUP4 ADD PUSH20 0xFFFFFFFFFFFFFFFFFFFFFFFFFFFFFFFFFFFFFFFF SWAP1 SWAP2 AND DUP2 MSTORE PUSH1 0x20 ADD SWAP1 JUMP JUMPDEST PUSH2 0x2459 PUSH2 0x23D0 JUMP JUMPDEST PUSH2 0x2D4 PUSH2 0x2477 JUMP JUMPDEST PUSH2 0xB5D PUSH2 0x36B PUSH2 0x36B SWAP3 SWAP1 JUMP JUMPDEST PUSH2 0x36B SWAP1 PUSH2 0x2461 JUMP JUMPDEST PUSH2 0x2D4 PUSH2 0x2484 PUSH1 0x0 PUSH2 0x246E JUMP JUMPDEST PUSH2 0x2577 JUMP JUMPDEST PUSH2 0x2D4 PUSH2 0x2451 JUMP JUMPDEST PUSH2 0x2D4 SWAP1 PUSH2 0x249D PUSH2 0x23D0 JUMP JUMPDEST PUSH2 0x24A7 PUSH1 0x0 PUSH2 0x246E JUMP JUMPDEST PUSH20 0xFFFFFFFFFFFFFFFFFFFFFFFFFFFFFFFFFFFFFFFF DUP2 AND PUSH20 0xFFFFFFFFFFFFFFFFFFFFFFFFFFFFFFFFFFFFFFFF DUP4 AND EQ PUSH2 0x24E4 JUMPI POP PUSH2 0x2D4 SWAP1 PUSH2 0x2577 JUMP JUMPDEST PUSH2 0x165F SWAP1 PUSH2 0x24F1 PUSH1 0x40 MLOAD SWAP1 JUMP JUMPDEST SWAP2 DUP3 SWAP2 PUSH32 0x1E4FBDF700000000000000000000000000000000000000000000000000000000 DUP4 MSTORE PUSH1 0x4 DUP4 ADD PUSH20 0xFFFFFFFFFFFFFFFFFFFFFFFFFFFFFFFFFFFFFFFF SWAP1 SWAP2 AND DUP2 MSTORE PUSH1 0x20 ADD SWAP1 JUMP JUMPDEST PUSH2 0x2D4 SWAP1 PUSH2 0x2491 JUMP JUMPDEST SWAP1 PUSH20 0xFFFFFFFFFFFFFFFFFFFFFFFFFFFFFFFFFFFFFFFF SWAP1 PUSH2 0xFA2 JUMP JUMPDEST SWAP1 PUSH2 0x2570 PUSH2 0x36B PUSH2 0xFC5 SWAP3 PUSH2 0xE96 JUMP JUMPDEST DUP3 SLOAD PUSH2 0x2544 JUMP JUMPDEST PUSH2 0x2581 PUSH1 0x0 PUSH2 0x23BC JUMP JUMPDEST SWAP1 PUSH2 0x258D DUP2 PUSH1 0x0 PUSH2 0x2560 JUMP JUMPDEST PUSH2 0x25C0 PUSH2 0x25BA PUSH32 0x8BE0079C531659141344CD1FD0A4F28419497F9722A3DAAFE3B4186F6B6457E0 SWAP4 PUSH2 0xE96 JUMP JUMPDEST SWAP2 PUSH2 0xE96 JUMP JUMPDEST SWAP2 PUSH2 0x25CA PUSH1 0x40 MLOAD SWAP1 JUMP JUMPDEST PUSH1 0x0 SWAP1 LOG3 JUMP INVALID LOG2 PUSH5 0x6970667358 0x22 SLT KECCAK256 0xF ADD 0xE3 0x26 0xBD 0x2E PUSH23 0xF4B225E594E59131E67C23C0384CA040248944B5085F6F 0xAC 0xC9 PUSH5 0x736F6C6343 STOP ADDMOD SGT STOP CALLER "
        },
        "methodIdentifiers": {
          "batchValidateBattleOpens(string[],bytes8[],uint256[],uint256[],string[])": "2754a414",
          "batchValidateOpens(uint256[],uint256[],string[],string[])": "0530050c",
          "batchValidateVirtualBattleOpens(string[],bytes8[],uint256[],uint256[],string[])": "68f019e6",
          "batchValidateVirtualOpens(uint256[],uint256[],string[],string[])": "d253a92b",
          "getItemWon((string,uint256[],uint256[],uint256[],uint256),uint256)": "0c2d8b28",
          "getOpeningArrays(uint256)": "31c128c0",
          "getPackArrays(uint256)": "70910899",
          "getRandomness(string,string)": "d248f5f5",
          "houseAddress()": "d7cee31e",
          "id()": "af640d0f",
          "openings(uint256)": "75e20f29",
          "owner()": "8da5cb5b",
          "packs(uint256)": "b84c1392",
          "renounceOwnership()": "715018a6",
          "setPack(uint256,(string,uint256[],uint256[],uint256[],uint256))": "4513b369",
          "setUserKeys(uint256[],string[])": "d119ad63",
          "setWhitelist(address[])": "f4217648",
          "transferOwnership(address)": "f2fde38b",
          "userIdToKey(uint256)": "7c688e81",
          "validators(address)": "fa52c7d8"
        }
      }
    }
  }
}